
zephyr.elf:     file format elf32-littlearm


Disassembly of section rom_start:

0000c000 <_vector_table>:
    c000:	20027038 	.word	0x20027038
    c004:	0000ee7d 	.word	0x0000ee7d
    c008:	00023295 	.word	0x00023295
    c00c:	0000eead 	.word	0x0000eead
    c010:	0000eead 	.word	0x0000eead
    c014:	0000eead 	.word	0x0000eead
    c018:	0000eead 	.word	0x0000eead
    c01c:	0000eead 	.word	0x0000eead
	...
    c02c:	0000eded 	.word	0x0000eded
    c030:	0000eead 	.word	0x0000eead
    c034:	00000000 	.word	0x00000000
    c038:	0000ed49 	.word	0x0000ed49
    c03c:	00022e53 	.word	0x00022e53

0000c040 <_irq_vector_table>:
    c040:	0000ee3d 0000ee3d 0000ee3d 0000ee3d     =...=...=...=...
    c050:	0000ee3d 0000ee3d 0000ee3d 0000ee3d     =...=...=...=...
    c060:	0000ee3d 0000ee3d 0000ee3d 0000ee3d     =...=...=...=...
    c070:	0000ee3d 0000ee3d 0000ee3d 0000ee3d     =...=...=...=...
    c080:	0000ee3d 0000ee3d 0000ee3d 0000ee3d     =...=...=...=...
    c090:	0000ee3d 0000ee3d 0000ee3d 0000ee3d     =...=...=...=...
    c0a0:	0000ee3d 0000ee3d 0000ee3d 0000ee3d     =...=...=...=...
    c0b0:	000276bd 000276e9 0000ee3d 0000ee3d     .v...v..=...=...
    c0c0:	0000ee3d 0000ee3d 0000ee3d 0000ee3d     =...=...=...=...
    c0d0:	0000ee3d 0000ee3d 000219ad 0000ee3d     =...=.......=...
    c0e0:	0000ee3d 0000ee3d 0002767f 0000ee3d     =...=....v..=...
    c0f0:	0000ee3d 0000ee3d 0000ee3d 0000ee3d     =...=...=...=...
    c100:	0000ee3d 0000ee3d 0000ee3d 0000ee3d     =...=...=...=...
    c110:	0000ee3d 0000ee3d 0000ee3d 0000ee3d     =...=...=...=...
    c120:	0000ee3d 0000ee3d 0000ee3d 0000ee3d     =...=...=...=...
    c130:	0000ee3d 0000ee3d 0000ee3d 0000ee3d     =...=...=...=...
    c140:	0000ee3d                                =...

0000c144 <_vector_end>:
	...

0000c200 <m_firmware_info>:
    c200:	281ee6de 8fcebb4c 00005b02 0000003c     ...(L....[..<...
    c210:	00022e08 00000001 0000c000 0000c000     ................
    c220:	9102ffff 00000000 00000000 00000000     ................
	...

Disassembly of section text:

0000c240 <__aeabi_drsub>:
    c240:	f081 4100 	eor.w	r1, r1, #2147483648	; 0x80000000
    c244:	e002      	b.n	c24c <__adddf3>
    c246:	bf00      	nop

0000c248 <__aeabi_dsub>:
    c248:	f083 4300 	eor.w	r3, r3, #2147483648	; 0x80000000

0000c24c <__adddf3>:
    c24c:	b530      	push	{r4, r5, lr}
    c24e:	ea4f 0441 	mov.w	r4, r1, lsl #1
    c252:	ea4f 0543 	mov.w	r5, r3, lsl #1
    c256:	ea94 0f05 	teq	r4, r5
    c25a:	bf08      	it	eq
    c25c:	ea90 0f02 	teqeq	r0, r2
    c260:	bf1f      	itttt	ne
    c262:	ea54 0c00 	orrsne.w	ip, r4, r0
    c266:	ea55 0c02 	orrsne.w	ip, r5, r2
    c26a:	ea7f 5c64 	mvnsne.w	ip, r4, asr #21
    c26e:	ea7f 5c65 	mvnsne.w	ip, r5, asr #21
    c272:	f000 80e2 	beq.w	c43a <__adddf3+0x1ee>
    c276:	ea4f 5454 	mov.w	r4, r4, lsr #21
    c27a:	ebd4 5555 	rsbs	r5, r4, r5, lsr #21
    c27e:	bfb8      	it	lt
    c280:	426d      	neglt	r5, r5
    c282:	dd0c      	ble.n	c29e <__adddf3+0x52>
    c284:	442c      	add	r4, r5
    c286:	ea80 0202 	eor.w	r2, r0, r2
    c28a:	ea81 0303 	eor.w	r3, r1, r3
    c28e:	ea82 0000 	eor.w	r0, r2, r0
    c292:	ea83 0101 	eor.w	r1, r3, r1
    c296:	ea80 0202 	eor.w	r2, r0, r2
    c29a:	ea81 0303 	eor.w	r3, r1, r3
    c29e:	2d36      	cmp	r5, #54	; 0x36
    c2a0:	bf88      	it	hi
    c2a2:	bd30      	pophi	{r4, r5, pc}
    c2a4:	f011 4f00 	tst.w	r1, #2147483648	; 0x80000000
    c2a8:	ea4f 3101 	mov.w	r1, r1, lsl #12
    c2ac:	f44f 1c80 	mov.w	ip, #1048576	; 0x100000
    c2b0:	ea4c 3111 	orr.w	r1, ip, r1, lsr #12
    c2b4:	d002      	beq.n	c2bc <__adddf3+0x70>
    c2b6:	4240      	negs	r0, r0
    c2b8:	eb61 0141 	sbc.w	r1, r1, r1, lsl #1
    c2bc:	f013 4f00 	tst.w	r3, #2147483648	; 0x80000000
    c2c0:	ea4f 3303 	mov.w	r3, r3, lsl #12
    c2c4:	ea4c 3313 	orr.w	r3, ip, r3, lsr #12
    c2c8:	d002      	beq.n	c2d0 <__adddf3+0x84>
    c2ca:	4252      	negs	r2, r2
    c2cc:	eb63 0343 	sbc.w	r3, r3, r3, lsl #1
    c2d0:	ea94 0f05 	teq	r4, r5
    c2d4:	f000 80a7 	beq.w	c426 <__adddf3+0x1da>
    c2d8:	f1a4 0401 	sub.w	r4, r4, #1
    c2dc:	f1d5 0e20 	rsbs	lr, r5, #32
    c2e0:	db0d      	blt.n	c2fe <__adddf3+0xb2>
    c2e2:	fa02 fc0e 	lsl.w	ip, r2, lr
    c2e6:	fa22 f205 	lsr.w	r2, r2, r5
    c2ea:	1880      	adds	r0, r0, r2
    c2ec:	f141 0100 	adc.w	r1, r1, #0
    c2f0:	fa03 f20e 	lsl.w	r2, r3, lr
    c2f4:	1880      	adds	r0, r0, r2
    c2f6:	fa43 f305 	asr.w	r3, r3, r5
    c2fa:	4159      	adcs	r1, r3
    c2fc:	e00e      	b.n	c31c <__adddf3+0xd0>
    c2fe:	f1a5 0520 	sub.w	r5, r5, #32
    c302:	f10e 0e20 	add.w	lr, lr, #32
    c306:	2a01      	cmp	r2, #1
    c308:	fa03 fc0e 	lsl.w	ip, r3, lr
    c30c:	bf28      	it	cs
    c30e:	f04c 0c02 	orrcs.w	ip, ip, #2
    c312:	fa43 f305 	asr.w	r3, r3, r5
    c316:	18c0      	adds	r0, r0, r3
    c318:	eb51 71e3 	adcs.w	r1, r1, r3, asr #31
    c31c:	f001 4500 	and.w	r5, r1, #2147483648	; 0x80000000
    c320:	d507      	bpl.n	c332 <__adddf3+0xe6>
    c322:	f04f 0e00 	mov.w	lr, #0
    c326:	f1dc 0c00 	rsbs	ip, ip, #0
    c32a:	eb7e 0000 	sbcs.w	r0, lr, r0
    c32e:	eb6e 0101 	sbc.w	r1, lr, r1
    c332:	f5b1 1f80 	cmp.w	r1, #1048576	; 0x100000
    c336:	d31b      	bcc.n	c370 <__adddf3+0x124>
    c338:	f5b1 1f00 	cmp.w	r1, #2097152	; 0x200000
    c33c:	d30c      	bcc.n	c358 <__adddf3+0x10c>
    c33e:	0849      	lsrs	r1, r1, #1
    c340:	ea5f 0030 	movs.w	r0, r0, rrx
    c344:	ea4f 0c3c 	mov.w	ip, ip, rrx
    c348:	f104 0401 	add.w	r4, r4, #1
    c34c:	ea4f 5244 	mov.w	r2, r4, lsl #21
    c350:	f512 0f80 	cmn.w	r2, #4194304	; 0x400000
    c354:	f080 809a 	bcs.w	c48c <__adddf3+0x240>
    c358:	f1bc 4f00 	cmp.w	ip, #2147483648	; 0x80000000
    c35c:	bf08      	it	eq
    c35e:	ea5f 0c50 	movseq.w	ip, r0, lsr #1
    c362:	f150 0000 	adcs.w	r0, r0, #0
    c366:	eb41 5104 	adc.w	r1, r1, r4, lsl #20
    c36a:	ea41 0105 	orr.w	r1, r1, r5
    c36e:	bd30      	pop	{r4, r5, pc}
    c370:	ea5f 0c4c 	movs.w	ip, ip, lsl #1
    c374:	4140      	adcs	r0, r0
    c376:	eb41 0101 	adc.w	r1, r1, r1
    c37a:	f411 1f80 	tst.w	r1, #1048576	; 0x100000
    c37e:	f1a4 0401 	sub.w	r4, r4, #1
    c382:	d1e9      	bne.n	c358 <__adddf3+0x10c>
    c384:	f091 0f00 	teq	r1, #0
    c388:	bf04      	itt	eq
    c38a:	4601      	moveq	r1, r0
    c38c:	2000      	moveq	r0, #0
    c38e:	fab1 f381 	clz	r3, r1
    c392:	bf08      	it	eq
    c394:	3320      	addeq	r3, #32
    c396:	f1a3 030b 	sub.w	r3, r3, #11
    c39a:	f1b3 0220 	subs.w	r2, r3, #32
    c39e:	da0c      	bge.n	c3ba <__adddf3+0x16e>
    c3a0:	320c      	adds	r2, #12
    c3a2:	dd08      	ble.n	c3b6 <__adddf3+0x16a>
    c3a4:	f102 0c14 	add.w	ip, r2, #20
    c3a8:	f1c2 020c 	rsb	r2, r2, #12
    c3ac:	fa01 f00c 	lsl.w	r0, r1, ip
    c3b0:	fa21 f102 	lsr.w	r1, r1, r2
    c3b4:	e00c      	b.n	c3d0 <__adddf3+0x184>
    c3b6:	f102 0214 	add.w	r2, r2, #20
    c3ba:	bfd8      	it	le
    c3bc:	f1c2 0c20 	rsble	ip, r2, #32
    c3c0:	fa01 f102 	lsl.w	r1, r1, r2
    c3c4:	fa20 fc0c 	lsr.w	ip, r0, ip
    c3c8:	bfdc      	itt	le
    c3ca:	ea41 010c 	orrle.w	r1, r1, ip
    c3ce:	4090      	lslle	r0, r2
    c3d0:	1ae4      	subs	r4, r4, r3
    c3d2:	bfa2      	ittt	ge
    c3d4:	eb01 5104 	addge.w	r1, r1, r4, lsl #20
    c3d8:	4329      	orrge	r1, r5
    c3da:	bd30      	popge	{r4, r5, pc}
    c3dc:	ea6f 0404 	mvn.w	r4, r4
    c3e0:	3c1f      	subs	r4, #31
    c3e2:	da1c      	bge.n	c41e <__adddf3+0x1d2>
    c3e4:	340c      	adds	r4, #12
    c3e6:	dc0e      	bgt.n	c406 <__adddf3+0x1ba>
    c3e8:	f104 0414 	add.w	r4, r4, #20
    c3ec:	f1c4 0220 	rsb	r2, r4, #32
    c3f0:	fa20 f004 	lsr.w	r0, r0, r4
    c3f4:	fa01 f302 	lsl.w	r3, r1, r2
    c3f8:	ea40 0003 	orr.w	r0, r0, r3
    c3fc:	fa21 f304 	lsr.w	r3, r1, r4
    c400:	ea45 0103 	orr.w	r1, r5, r3
    c404:	bd30      	pop	{r4, r5, pc}
    c406:	f1c4 040c 	rsb	r4, r4, #12
    c40a:	f1c4 0220 	rsb	r2, r4, #32
    c40e:	fa20 f002 	lsr.w	r0, r0, r2
    c412:	fa01 f304 	lsl.w	r3, r1, r4
    c416:	ea40 0003 	orr.w	r0, r0, r3
    c41a:	4629      	mov	r1, r5
    c41c:	bd30      	pop	{r4, r5, pc}
    c41e:	fa21 f004 	lsr.w	r0, r1, r4
    c422:	4629      	mov	r1, r5
    c424:	bd30      	pop	{r4, r5, pc}
    c426:	f094 0f00 	teq	r4, #0
    c42a:	f483 1380 	eor.w	r3, r3, #1048576	; 0x100000
    c42e:	bf06      	itte	eq
    c430:	f481 1180 	eoreq.w	r1, r1, #1048576	; 0x100000
    c434:	3401      	addeq	r4, #1
    c436:	3d01      	subne	r5, #1
    c438:	e74e      	b.n	c2d8 <__adddf3+0x8c>
    c43a:	ea7f 5c64 	mvns.w	ip, r4, asr #21
    c43e:	bf18      	it	ne
    c440:	ea7f 5c65 	mvnsne.w	ip, r5, asr #21
    c444:	d029      	beq.n	c49a <__adddf3+0x24e>
    c446:	ea94 0f05 	teq	r4, r5
    c44a:	bf08      	it	eq
    c44c:	ea90 0f02 	teqeq	r0, r2
    c450:	d005      	beq.n	c45e <__adddf3+0x212>
    c452:	ea54 0c00 	orrs.w	ip, r4, r0
    c456:	bf04      	itt	eq
    c458:	4619      	moveq	r1, r3
    c45a:	4610      	moveq	r0, r2
    c45c:	bd30      	pop	{r4, r5, pc}
    c45e:	ea91 0f03 	teq	r1, r3
    c462:	bf1e      	ittt	ne
    c464:	2100      	movne	r1, #0
    c466:	2000      	movne	r0, #0
    c468:	bd30      	popne	{r4, r5, pc}
    c46a:	ea5f 5c54 	movs.w	ip, r4, lsr #21
    c46e:	d105      	bne.n	c47c <__adddf3+0x230>
    c470:	0040      	lsls	r0, r0, #1
    c472:	4149      	adcs	r1, r1
    c474:	bf28      	it	cs
    c476:	f041 4100 	orrcs.w	r1, r1, #2147483648	; 0x80000000
    c47a:	bd30      	pop	{r4, r5, pc}
    c47c:	f514 0480 	adds.w	r4, r4, #4194304	; 0x400000
    c480:	bf3c      	itt	cc
    c482:	f501 1180 	addcc.w	r1, r1, #1048576	; 0x100000
    c486:	bd30      	popcc	{r4, r5, pc}
    c488:	f001 4500 	and.w	r5, r1, #2147483648	; 0x80000000
    c48c:	f045 41fe 	orr.w	r1, r5, #2130706432	; 0x7f000000
    c490:	f441 0170 	orr.w	r1, r1, #15728640	; 0xf00000
    c494:	f04f 0000 	mov.w	r0, #0
    c498:	bd30      	pop	{r4, r5, pc}
    c49a:	ea7f 5c64 	mvns.w	ip, r4, asr #21
    c49e:	bf1a      	itte	ne
    c4a0:	4619      	movne	r1, r3
    c4a2:	4610      	movne	r0, r2
    c4a4:	ea7f 5c65 	mvnseq.w	ip, r5, asr #21
    c4a8:	bf1c      	itt	ne
    c4aa:	460b      	movne	r3, r1
    c4ac:	4602      	movne	r2, r0
    c4ae:	ea50 3401 	orrs.w	r4, r0, r1, lsl #12
    c4b2:	bf06      	itte	eq
    c4b4:	ea52 3503 	orrseq.w	r5, r2, r3, lsl #12
    c4b8:	ea91 0f03 	teqeq	r1, r3
    c4bc:	f441 2100 	orrne.w	r1, r1, #524288	; 0x80000
    c4c0:	bd30      	pop	{r4, r5, pc}
    c4c2:	bf00      	nop

0000c4c4 <__aeabi_ui2d>:
    c4c4:	f090 0f00 	teq	r0, #0
    c4c8:	bf04      	itt	eq
    c4ca:	2100      	moveq	r1, #0
    c4cc:	4770      	bxeq	lr
    c4ce:	b530      	push	{r4, r5, lr}
    c4d0:	f44f 6480 	mov.w	r4, #1024	; 0x400
    c4d4:	f104 0432 	add.w	r4, r4, #50	; 0x32
    c4d8:	f04f 0500 	mov.w	r5, #0
    c4dc:	f04f 0100 	mov.w	r1, #0
    c4e0:	e750      	b.n	c384 <__adddf3+0x138>
    c4e2:	bf00      	nop

0000c4e4 <__aeabi_i2d>:
    c4e4:	f090 0f00 	teq	r0, #0
    c4e8:	bf04      	itt	eq
    c4ea:	2100      	moveq	r1, #0
    c4ec:	4770      	bxeq	lr
    c4ee:	b530      	push	{r4, r5, lr}
    c4f0:	f44f 6480 	mov.w	r4, #1024	; 0x400
    c4f4:	f104 0432 	add.w	r4, r4, #50	; 0x32
    c4f8:	f010 4500 	ands.w	r5, r0, #2147483648	; 0x80000000
    c4fc:	bf48      	it	mi
    c4fe:	4240      	negmi	r0, r0
    c500:	f04f 0100 	mov.w	r1, #0
    c504:	e73e      	b.n	c384 <__adddf3+0x138>
    c506:	bf00      	nop

0000c508 <__aeabi_f2d>:
    c508:	0042      	lsls	r2, r0, #1
    c50a:	ea4f 01e2 	mov.w	r1, r2, asr #3
    c50e:	ea4f 0131 	mov.w	r1, r1, rrx
    c512:	ea4f 7002 	mov.w	r0, r2, lsl #28
    c516:	bf1f      	itttt	ne
    c518:	f012 437f 	andsne.w	r3, r2, #4278190080	; 0xff000000
    c51c:	f093 4f7f 	teqne	r3, #4278190080	; 0xff000000
    c520:	f081 5160 	eorne.w	r1, r1, #939524096	; 0x38000000
    c524:	4770      	bxne	lr
    c526:	f032 427f 	bics.w	r2, r2, #4278190080	; 0xff000000
    c52a:	bf08      	it	eq
    c52c:	4770      	bxeq	lr
    c52e:	f093 4f7f 	teq	r3, #4278190080	; 0xff000000
    c532:	bf04      	itt	eq
    c534:	f441 2100 	orreq.w	r1, r1, #524288	; 0x80000
    c538:	4770      	bxeq	lr
    c53a:	b530      	push	{r4, r5, lr}
    c53c:	f44f 7460 	mov.w	r4, #896	; 0x380
    c540:	f001 4500 	and.w	r5, r1, #2147483648	; 0x80000000
    c544:	f021 4100 	bic.w	r1, r1, #2147483648	; 0x80000000
    c548:	e71c      	b.n	c384 <__adddf3+0x138>
    c54a:	bf00      	nop

0000c54c <__aeabi_ul2d>:
    c54c:	ea50 0201 	orrs.w	r2, r0, r1
    c550:	bf08      	it	eq
    c552:	4770      	bxeq	lr
    c554:	b530      	push	{r4, r5, lr}
    c556:	f04f 0500 	mov.w	r5, #0
    c55a:	e00a      	b.n	c572 <__aeabi_l2d+0x16>

0000c55c <__aeabi_l2d>:
    c55c:	ea50 0201 	orrs.w	r2, r0, r1
    c560:	bf08      	it	eq
    c562:	4770      	bxeq	lr
    c564:	b530      	push	{r4, r5, lr}
    c566:	f011 4500 	ands.w	r5, r1, #2147483648	; 0x80000000
    c56a:	d502      	bpl.n	c572 <__aeabi_l2d+0x16>
    c56c:	4240      	negs	r0, r0
    c56e:	eb61 0141 	sbc.w	r1, r1, r1, lsl #1
    c572:	f44f 6480 	mov.w	r4, #1024	; 0x400
    c576:	f104 0432 	add.w	r4, r4, #50	; 0x32
    c57a:	ea5f 5c91 	movs.w	ip, r1, lsr #22
    c57e:	f43f aed8 	beq.w	c332 <__adddf3+0xe6>
    c582:	f04f 0203 	mov.w	r2, #3
    c586:	ea5f 0cdc 	movs.w	ip, ip, lsr #3
    c58a:	bf18      	it	ne
    c58c:	3203      	addne	r2, #3
    c58e:	ea5f 0cdc 	movs.w	ip, ip, lsr #3
    c592:	bf18      	it	ne
    c594:	3203      	addne	r2, #3
    c596:	eb02 02dc 	add.w	r2, r2, ip, lsr #3
    c59a:	f1c2 0320 	rsb	r3, r2, #32
    c59e:	fa00 fc03 	lsl.w	ip, r0, r3
    c5a2:	fa20 f002 	lsr.w	r0, r0, r2
    c5a6:	fa01 fe03 	lsl.w	lr, r1, r3
    c5aa:	ea40 000e 	orr.w	r0, r0, lr
    c5ae:	fa21 f102 	lsr.w	r1, r1, r2
    c5b2:	4414      	add	r4, r2
    c5b4:	e6bd      	b.n	c332 <__adddf3+0xe6>
    c5b6:	bf00      	nop

0000c5b8 <__aeabi_dmul>:
    c5b8:	b570      	push	{r4, r5, r6, lr}
    c5ba:	f04f 0cff 	mov.w	ip, #255	; 0xff
    c5be:	f44c 6ce0 	orr.w	ip, ip, #1792	; 0x700
    c5c2:	ea1c 5411 	ands.w	r4, ip, r1, lsr #20
    c5c6:	bf1d      	ittte	ne
    c5c8:	ea1c 5513 	andsne.w	r5, ip, r3, lsr #20
    c5cc:	ea94 0f0c 	teqne	r4, ip
    c5d0:	ea95 0f0c 	teqne	r5, ip
    c5d4:	f000 f8de 	bleq	c794 <__aeabi_dmul+0x1dc>
    c5d8:	442c      	add	r4, r5
    c5da:	ea81 0603 	eor.w	r6, r1, r3
    c5de:	ea21 514c 	bic.w	r1, r1, ip, lsl #21
    c5e2:	ea23 534c 	bic.w	r3, r3, ip, lsl #21
    c5e6:	ea50 3501 	orrs.w	r5, r0, r1, lsl #12
    c5ea:	bf18      	it	ne
    c5ec:	ea52 3503 	orrsne.w	r5, r2, r3, lsl #12
    c5f0:	f441 1180 	orr.w	r1, r1, #1048576	; 0x100000
    c5f4:	f443 1380 	orr.w	r3, r3, #1048576	; 0x100000
    c5f8:	d038      	beq.n	c66c <__aeabi_dmul+0xb4>
    c5fa:	fba0 ce02 	umull	ip, lr, r0, r2
    c5fe:	f04f 0500 	mov.w	r5, #0
    c602:	fbe1 e502 	umlal	lr, r5, r1, r2
    c606:	f006 4200 	and.w	r2, r6, #2147483648	; 0x80000000
    c60a:	fbe0 e503 	umlal	lr, r5, r0, r3
    c60e:	f04f 0600 	mov.w	r6, #0
    c612:	fbe1 5603 	umlal	r5, r6, r1, r3
    c616:	f09c 0f00 	teq	ip, #0
    c61a:	bf18      	it	ne
    c61c:	f04e 0e01 	orrne.w	lr, lr, #1
    c620:	f1a4 04ff 	sub.w	r4, r4, #255	; 0xff
    c624:	f5b6 7f00 	cmp.w	r6, #512	; 0x200
    c628:	f564 7440 	sbc.w	r4, r4, #768	; 0x300
    c62c:	d204      	bcs.n	c638 <__aeabi_dmul+0x80>
    c62e:	ea5f 0e4e 	movs.w	lr, lr, lsl #1
    c632:	416d      	adcs	r5, r5
    c634:	eb46 0606 	adc.w	r6, r6, r6
    c638:	ea42 21c6 	orr.w	r1, r2, r6, lsl #11
    c63c:	ea41 5155 	orr.w	r1, r1, r5, lsr #21
    c640:	ea4f 20c5 	mov.w	r0, r5, lsl #11
    c644:	ea40 505e 	orr.w	r0, r0, lr, lsr #21
    c648:	ea4f 2ece 	mov.w	lr, lr, lsl #11
    c64c:	f1b4 0cfd 	subs.w	ip, r4, #253	; 0xfd
    c650:	bf88      	it	hi
    c652:	f5bc 6fe0 	cmphi.w	ip, #1792	; 0x700
    c656:	d81e      	bhi.n	c696 <__aeabi_dmul+0xde>
    c658:	f1be 4f00 	cmp.w	lr, #2147483648	; 0x80000000
    c65c:	bf08      	it	eq
    c65e:	ea5f 0e50 	movseq.w	lr, r0, lsr #1
    c662:	f150 0000 	adcs.w	r0, r0, #0
    c666:	eb41 5104 	adc.w	r1, r1, r4, lsl #20
    c66a:	bd70      	pop	{r4, r5, r6, pc}
    c66c:	f006 4600 	and.w	r6, r6, #2147483648	; 0x80000000
    c670:	ea46 0101 	orr.w	r1, r6, r1
    c674:	ea40 0002 	orr.w	r0, r0, r2
    c678:	ea81 0103 	eor.w	r1, r1, r3
    c67c:	ebb4 045c 	subs.w	r4, r4, ip, lsr #1
    c680:	bfc2      	ittt	gt
    c682:	ebd4 050c 	rsbsgt	r5, r4, ip
    c686:	ea41 5104 	orrgt.w	r1, r1, r4, lsl #20
    c68a:	bd70      	popgt	{r4, r5, r6, pc}
    c68c:	f441 1180 	orr.w	r1, r1, #1048576	; 0x100000
    c690:	f04f 0e00 	mov.w	lr, #0
    c694:	3c01      	subs	r4, #1
    c696:	f300 80ab 	bgt.w	c7f0 <__aeabi_dmul+0x238>
    c69a:	f114 0f36 	cmn.w	r4, #54	; 0x36
    c69e:	bfde      	ittt	le
    c6a0:	2000      	movle	r0, #0
    c6a2:	f001 4100 	andle.w	r1, r1, #2147483648	; 0x80000000
    c6a6:	bd70      	pople	{r4, r5, r6, pc}
    c6a8:	f1c4 0400 	rsb	r4, r4, #0
    c6ac:	3c20      	subs	r4, #32
    c6ae:	da35      	bge.n	c71c <__aeabi_dmul+0x164>
    c6b0:	340c      	adds	r4, #12
    c6b2:	dc1b      	bgt.n	c6ec <__aeabi_dmul+0x134>
    c6b4:	f104 0414 	add.w	r4, r4, #20
    c6b8:	f1c4 0520 	rsb	r5, r4, #32
    c6bc:	fa00 f305 	lsl.w	r3, r0, r5
    c6c0:	fa20 f004 	lsr.w	r0, r0, r4
    c6c4:	fa01 f205 	lsl.w	r2, r1, r5
    c6c8:	ea40 0002 	orr.w	r0, r0, r2
    c6cc:	f001 4200 	and.w	r2, r1, #2147483648	; 0x80000000
    c6d0:	f021 4100 	bic.w	r1, r1, #2147483648	; 0x80000000
    c6d4:	eb10 70d3 	adds.w	r0, r0, r3, lsr #31
    c6d8:	fa21 f604 	lsr.w	r6, r1, r4
    c6dc:	eb42 0106 	adc.w	r1, r2, r6
    c6e0:	ea5e 0e43 	orrs.w	lr, lr, r3, lsl #1
    c6e4:	bf08      	it	eq
    c6e6:	ea20 70d3 	biceq.w	r0, r0, r3, lsr #31
    c6ea:	bd70      	pop	{r4, r5, r6, pc}
    c6ec:	f1c4 040c 	rsb	r4, r4, #12
    c6f0:	f1c4 0520 	rsb	r5, r4, #32
    c6f4:	fa00 f304 	lsl.w	r3, r0, r4
    c6f8:	fa20 f005 	lsr.w	r0, r0, r5
    c6fc:	fa01 f204 	lsl.w	r2, r1, r4
    c700:	ea40 0002 	orr.w	r0, r0, r2
    c704:	f001 4100 	and.w	r1, r1, #2147483648	; 0x80000000
    c708:	eb10 70d3 	adds.w	r0, r0, r3, lsr #31
    c70c:	f141 0100 	adc.w	r1, r1, #0
    c710:	ea5e 0e43 	orrs.w	lr, lr, r3, lsl #1
    c714:	bf08      	it	eq
    c716:	ea20 70d3 	biceq.w	r0, r0, r3, lsr #31
    c71a:	bd70      	pop	{r4, r5, r6, pc}
    c71c:	f1c4 0520 	rsb	r5, r4, #32
    c720:	fa00 f205 	lsl.w	r2, r0, r5
    c724:	ea4e 0e02 	orr.w	lr, lr, r2
    c728:	fa20 f304 	lsr.w	r3, r0, r4
    c72c:	fa01 f205 	lsl.w	r2, r1, r5
    c730:	ea43 0302 	orr.w	r3, r3, r2
    c734:	fa21 f004 	lsr.w	r0, r1, r4
    c738:	f001 4100 	and.w	r1, r1, #2147483648	; 0x80000000
    c73c:	fa21 f204 	lsr.w	r2, r1, r4
    c740:	ea20 0002 	bic.w	r0, r0, r2
    c744:	eb00 70d3 	add.w	r0, r0, r3, lsr #31
    c748:	ea5e 0e43 	orrs.w	lr, lr, r3, lsl #1
    c74c:	bf08      	it	eq
    c74e:	ea20 70d3 	biceq.w	r0, r0, r3, lsr #31
    c752:	bd70      	pop	{r4, r5, r6, pc}
    c754:	f094 0f00 	teq	r4, #0
    c758:	d10f      	bne.n	c77a <__aeabi_dmul+0x1c2>
    c75a:	f001 4600 	and.w	r6, r1, #2147483648	; 0x80000000
    c75e:	0040      	lsls	r0, r0, #1
    c760:	eb41 0101 	adc.w	r1, r1, r1
    c764:	f411 1f80 	tst.w	r1, #1048576	; 0x100000
    c768:	bf08      	it	eq
    c76a:	3c01      	subeq	r4, #1
    c76c:	d0f7      	beq.n	c75e <__aeabi_dmul+0x1a6>
    c76e:	ea41 0106 	orr.w	r1, r1, r6
    c772:	f095 0f00 	teq	r5, #0
    c776:	bf18      	it	ne
    c778:	4770      	bxne	lr
    c77a:	f003 4600 	and.w	r6, r3, #2147483648	; 0x80000000
    c77e:	0052      	lsls	r2, r2, #1
    c780:	eb43 0303 	adc.w	r3, r3, r3
    c784:	f413 1f80 	tst.w	r3, #1048576	; 0x100000
    c788:	bf08      	it	eq
    c78a:	3d01      	subeq	r5, #1
    c78c:	d0f7      	beq.n	c77e <__aeabi_dmul+0x1c6>
    c78e:	ea43 0306 	orr.w	r3, r3, r6
    c792:	4770      	bx	lr
    c794:	ea94 0f0c 	teq	r4, ip
    c798:	ea0c 5513 	and.w	r5, ip, r3, lsr #20
    c79c:	bf18      	it	ne
    c79e:	ea95 0f0c 	teqne	r5, ip
    c7a2:	d00c      	beq.n	c7be <__aeabi_dmul+0x206>
    c7a4:	ea50 0641 	orrs.w	r6, r0, r1, lsl #1
    c7a8:	bf18      	it	ne
    c7aa:	ea52 0643 	orrsne.w	r6, r2, r3, lsl #1
    c7ae:	d1d1      	bne.n	c754 <__aeabi_dmul+0x19c>
    c7b0:	ea81 0103 	eor.w	r1, r1, r3
    c7b4:	f001 4100 	and.w	r1, r1, #2147483648	; 0x80000000
    c7b8:	f04f 0000 	mov.w	r0, #0
    c7bc:	bd70      	pop	{r4, r5, r6, pc}
    c7be:	ea50 0641 	orrs.w	r6, r0, r1, lsl #1
    c7c2:	bf06      	itte	eq
    c7c4:	4610      	moveq	r0, r2
    c7c6:	4619      	moveq	r1, r3
    c7c8:	ea52 0643 	orrsne.w	r6, r2, r3, lsl #1
    c7cc:	d019      	beq.n	c802 <__aeabi_dmul+0x24a>
    c7ce:	ea94 0f0c 	teq	r4, ip
    c7d2:	d102      	bne.n	c7da <__aeabi_dmul+0x222>
    c7d4:	ea50 3601 	orrs.w	r6, r0, r1, lsl #12
    c7d8:	d113      	bne.n	c802 <__aeabi_dmul+0x24a>
    c7da:	ea95 0f0c 	teq	r5, ip
    c7de:	d105      	bne.n	c7ec <__aeabi_dmul+0x234>
    c7e0:	ea52 3603 	orrs.w	r6, r2, r3, lsl #12
    c7e4:	bf1c      	itt	ne
    c7e6:	4610      	movne	r0, r2
    c7e8:	4619      	movne	r1, r3
    c7ea:	d10a      	bne.n	c802 <__aeabi_dmul+0x24a>
    c7ec:	ea81 0103 	eor.w	r1, r1, r3
    c7f0:	f001 4100 	and.w	r1, r1, #2147483648	; 0x80000000
    c7f4:	f041 41fe 	orr.w	r1, r1, #2130706432	; 0x7f000000
    c7f8:	f441 0170 	orr.w	r1, r1, #15728640	; 0xf00000
    c7fc:	f04f 0000 	mov.w	r0, #0
    c800:	bd70      	pop	{r4, r5, r6, pc}
    c802:	f041 41fe 	orr.w	r1, r1, #2130706432	; 0x7f000000
    c806:	f441 0178 	orr.w	r1, r1, #16252928	; 0xf80000
    c80a:	bd70      	pop	{r4, r5, r6, pc}

0000c80c <__aeabi_ddiv>:
    c80c:	b570      	push	{r4, r5, r6, lr}
    c80e:	f04f 0cff 	mov.w	ip, #255	; 0xff
    c812:	f44c 6ce0 	orr.w	ip, ip, #1792	; 0x700
    c816:	ea1c 5411 	ands.w	r4, ip, r1, lsr #20
    c81a:	bf1d      	ittte	ne
    c81c:	ea1c 5513 	andsne.w	r5, ip, r3, lsr #20
    c820:	ea94 0f0c 	teqne	r4, ip
    c824:	ea95 0f0c 	teqne	r5, ip
    c828:	f000 f8a7 	bleq	c97a <__aeabi_ddiv+0x16e>
    c82c:	eba4 0405 	sub.w	r4, r4, r5
    c830:	ea81 0e03 	eor.w	lr, r1, r3
    c834:	ea52 3503 	orrs.w	r5, r2, r3, lsl #12
    c838:	ea4f 3101 	mov.w	r1, r1, lsl #12
    c83c:	f000 8088 	beq.w	c950 <__aeabi_ddiv+0x144>
    c840:	ea4f 3303 	mov.w	r3, r3, lsl #12
    c844:	f04f 5580 	mov.w	r5, #268435456	; 0x10000000
    c848:	ea45 1313 	orr.w	r3, r5, r3, lsr #4
    c84c:	ea43 6312 	orr.w	r3, r3, r2, lsr #24
    c850:	ea4f 2202 	mov.w	r2, r2, lsl #8
    c854:	ea45 1511 	orr.w	r5, r5, r1, lsr #4
    c858:	ea45 6510 	orr.w	r5, r5, r0, lsr #24
    c85c:	ea4f 2600 	mov.w	r6, r0, lsl #8
    c860:	f00e 4100 	and.w	r1, lr, #2147483648	; 0x80000000
    c864:	429d      	cmp	r5, r3
    c866:	bf08      	it	eq
    c868:	4296      	cmpeq	r6, r2
    c86a:	f144 04fd 	adc.w	r4, r4, #253	; 0xfd
    c86e:	f504 7440 	add.w	r4, r4, #768	; 0x300
    c872:	d202      	bcs.n	c87a <__aeabi_ddiv+0x6e>
    c874:	085b      	lsrs	r3, r3, #1
    c876:	ea4f 0232 	mov.w	r2, r2, rrx
    c87a:	1ab6      	subs	r6, r6, r2
    c87c:	eb65 0503 	sbc.w	r5, r5, r3
    c880:	085b      	lsrs	r3, r3, #1
    c882:	ea4f 0232 	mov.w	r2, r2, rrx
    c886:	f44f 1080 	mov.w	r0, #1048576	; 0x100000
    c88a:	f44f 2c00 	mov.w	ip, #524288	; 0x80000
    c88e:	ebb6 0e02 	subs.w	lr, r6, r2
    c892:	eb75 0e03 	sbcs.w	lr, r5, r3
    c896:	bf22      	ittt	cs
    c898:	1ab6      	subcs	r6, r6, r2
    c89a:	4675      	movcs	r5, lr
    c89c:	ea40 000c 	orrcs.w	r0, r0, ip
    c8a0:	085b      	lsrs	r3, r3, #1
    c8a2:	ea4f 0232 	mov.w	r2, r2, rrx
    c8a6:	ebb6 0e02 	subs.w	lr, r6, r2
    c8aa:	eb75 0e03 	sbcs.w	lr, r5, r3
    c8ae:	bf22      	ittt	cs
    c8b0:	1ab6      	subcs	r6, r6, r2
    c8b2:	4675      	movcs	r5, lr
    c8b4:	ea40 005c 	orrcs.w	r0, r0, ip, lsr #1
    c8b8:	085b      	lsrs	r3, r3, #1
    c8ba:	ea4f 0232 	mov.w	r2, r2, rrx
    c8be:	ebb6 0e02 	subs.w	lr, r6, r2
    c8c2:	eb75 0e03 	sbcs.w	lr, r5, r3
    c8c6:	bf22      	ittt	cs
    c8c8:	1ab6      	subcs	r6, r6, r2
    c8ca:	4675      	movcs	r5, lr
    c8cc:	ea40 009c 	orrcs.w	r0, r0, ip, lsr #2
    c8d0:	085b      	lsrs	r3, r3, #1
    c8d2:	ea4f 0232 	mov.w	r2, r2, rrx
    c8d6:	ebb6 0e02 	subs.w	lr, r6, r2
    c8da:	eb75 0e03 	sbcs.w	lr, r5, r3
    c8de:	bf22      	ittt	cs
    c8e0:	1ab6      	subcs	r6, r6, r2
    c8e2:	4675      	movcs	r5, lr
    c8e4:	ea40 00dc 	orrcs.w	r0, r0, ip, lsr #3
    c8e8:	ea55 0e06 	orrs.w	lr, r5, r6
    c8ec:	d018      	beq.n	c920 <__aeabi_ddiv+0x114>
    c8ee:	ea4f 1505 	mov.w	r5, r5, lsl #4
    c8f2:	ea45 7516 	orr.w	r5, r5, r6, lsr #28
    c8f6:	ea4f 1606 	mov.w	r6, r6, lsl #4
    c8fa:	ea4f 03c3 	mov.w	r3, r3, lsl #3
    c8fe:	ea43 7352 	orr.w	r3, r3, r2, lsr #29
    c902:	ea4f 02c2 	mov.w	r2, r2, lsl #3
    c906:	ea5f 1c1c 	movs.w	ip, ip, lsr #4
    c90a:	d1c0      	bne.n	c88e <__aeabi_ddiv+0x82>
    c90c:	f411 1f80 	tst.w	r1, #1048576	; 0x100000
    c910:	d10b      	bne.n	c92a <__aeabi_ddiv+0x11e>
    c912:	ea41 0100 	orr.w	r1, r1, r0
    c916:	f04f 0000 	mov.w	r0, #0
    c91a:	f04f 4c00 	mov.w	ip, #2147483648	; 0x80000000
    c91e:	e7b6      	b.n	c88e <__aeabi_ddiv+0x82>
    c920:	f411 1f80 	tst.w	r1, #1048576	; 0x100000
    c924:	bf04      	itt	eq
    c926:	4301      	orreq	r1, r0
    c928:	2000      	moveq	r0, #0
    c92a:	f1b4 0cfd 	subs.w	ip, r4, #253	; 0xfd
    c92e:	bf88      	it	hi
    c930:	f5bc 6fe0 	cmphi.w	ip, #1792	; 0x700
    c934:	f63f aeaf 	bhi.w	c696 <__aeabi_dmul+0xde>
    c938:	ebb5 0c03 	subs.w	ip, r5, r3
    c93c:	bf04      	itt	eq
    c93e:	ebb6 0c02 	subseq.w	ip, r6, r2
    c942:	ea5f 0c50 	movseq.w	ip, r0, lsr #1
    c946:	f150 0000 	adcs.w	r0, r0, #0
    c94a:	eb41 5104 	adc.w	r1, r1, r4, lsl #20
    c94e:	bd70      	pop	{r4, r5, r6, pc}
    c950:	f00e 4e00 	and.w	lr, lr, #2147483648	; 0x80000000
    c954:	ea4e 3111 	orr.w	r1, lr, r1, lsr #12
    c958:	eb14 045c 	adds.w	r4, r4, ip, lsr #1
    c95c:	bfc2      	ittt	gt
    c95e:	ebd4 050c 	rsbsgt	r5, r4, ip
    c962:	ea41 5104 	orrgt.w	r1, r1, r4, lsl #20
    c966:	bd70      	popgt	{r4, r5, r6, pc}
    c968:	f441 1180 	orr.w	r1, r1, #1048576	; 0x100000
    c96c:	f04f 0e00 	mov.w	lr, #0
    c970:	3c01      	subs	r4, #1
    c972:	e690      	b.n	c696 <__aeabi_dmul+0xde>
    c974:	ea45 0e06 	orr.w	lr, r5, r6
    c978:	e68d      	b.n	c696 <__aeabi_dmul+0xde>
    c97a:	ea0c 5513 	and.w	r5, ip, r3, lsr #20
    c97e:	ea94 0f0c 	teq	r4, ip
    c982:	bf08      	it	eq
    c984:	ea95 0f0c 	teqeq	r5, ip
    c988:	f43f af3b 	beq.w	c802 <__aeabi_dmul+0x24a>
    c98c:	ea94 0f0c 	teq	r4, ip
    c990:	d10a      	bne.n	c9a8 <__aeabi_ddiv+0x19c>
    c992:	ea50 3401 	orrs.w	r4, r0, r1, lsl #12
    c996:	f47f af34 	bne.w	c802 <__aeabi_dmul+0x24a>
    c99a:	ea95 0f0c 	teq	r5, ip
    c99e:	f47f af25 	bne.w	c7ec <__aeabi_dmul+0x234>
    c9a2:	4610      	mov	r0, r2
    c9a4:	4619      	mov	r1, r3
    c9a6:	e72c      	b.n	c802 <__aeabi_dmul+0x24a>
    c9a8:	ea95 0f0c 	teq	r5, ip
    c9ac:	d106      	bne.n	c9bc <__aeabi_ddiv+0x1b0>
    c9ae:	ea52 3503 	orrs.w	r5, r2, r3, lsl #12
    c9b2:	f43f aefd 	beq.w	c7b0 <__aeabi_dmul+0x1f8>
    c9b6:	4610      	mov	r0, r2
    c9b8:	4619      	mov	r1, r3
    c9ba:	e722      	b.n	c802 <__aeabi_dmul+0x24a>
    c9bc:	ea50 0641 	orrs.w	r6, r0, r1, lsl #1
    c9c0:	bf18      	it	ne
    c9c2:	ea52 0643 	orrsne.w	r6, r2, r3, lsl #1
    c9c6:	f47f aec5 	bne.w	c754 <__aeabi_dmul+0x19c>
    c9ca:	ea50 0441 	orrs.w	r4, r0, r1, lsl #1
    c9ce:	f47f af0d 	bne.w	c7ec <__aeabi_dmul+0x234>
    c9d2:	ea52 0543 	orrs.w	r5, r2, r3, lsl #1
    c9d6:	f47f aeeb 	bne.w	c7b0 <__aeabi_dmul+0x1f8>
    c9da:	e712      	b.n	c802 <__aeabi_dmul+0x24a>

0000c9dc <__aeabi_d2f>:
    c9dc:	ea4f 0241 	mov.w	r2, r1, lsl #1
    c9e0:	f1b2 43e0 	subs.w	r3, r2, #1879048192	; 0x70000000
    c9e4:	bf24      	itt	cs
    c9e6:	f5b3 1c00 	subscs.w	ip, r3, #2097152	; 0x200000
    c9ea:	f1dc 5cfe 	rsbscs	ip, ip, #532676608	; 0x1fc00000
    c9ee:	d90d      	bls.n	ca0c <__aeabi_d2f+0x30>
    c9f0:	f001 4c00 	and.w	ip, r1, #2147483648	; 0x80000000
    c9f4:	ea4f 02c0 	mov.w	r2, r0, lsl #3
    c9f8:	ea4c 7050 	orr.w	r0, ip, r0, lsr #29
    c9fc:	f1b2 4f00 	cmp.w	r2, #2147483648	; 0x80000000
    ca00:	eb40 0083 	adc.w	r0, r0, r3, lsl #2
    ca04:	bf08      	it	eq
    ca06:	f020 0001 	biceq.w	r0, r0, #1
    ca0a:	4770      	bx	lr
    ca0c:	f011 4f80 	tst.w	r1, #1073741824	; 0x40000000
    ca10:	d121      	bne.n	ca56 <__aeabi_d2f+0x7a>
    ca12:	f113 7238 	adds.w	r2, r3, #48234496	; 0x2e00000
    ca16:	bfbc      	itt	lt
    ca18:	f001 4000 	andlt.w	r0, r1, #2147483648	; 0x80000000
    ca1c:	4770      	bxlt	lr
    ca1e:	f441 1180 	orr.w	r1, r1, #1048576	; 0x100000
    ca22:	ea4f 5252 	mov.w	r2, r2, lsr #21
    ca26:	f1c2 0218 	rsb	r2, r2, #24
    ca2a:	f1c2 0c20 	rsb	ip, r2, #32
    ca2e:	fa10 f30c 	lsls.w	r3, r0, ip
    ca32:	fa20 f002 	lsr.w	r0, r0, r2
    ca36:	bf18      	it	ne
    ca38:	f040 0001 	orrne.w	r0, r0, #1
    ca3c:	ea4f 23c1 	mov.w	r3, r1, lsl #11
    ca40:	ea4f 23d3 	mov.w	r3, r3, lsr #11
    ca44:	fa03 fc0c 	lsl.w	ip, r3, ip
    ca48:	ea40 000c 	orr.w	r0, r0, ip
    ca4c:	fa23 f302 	lsr.w	r3, r3, r2
    ca50:	ea4f 0343 	mov.w	r3, r3, lsl #1
    ca54:	e7cc      	b.n	c9f0 <__aeabi_d2f+0x14>
    ca56:	ea7f 5362 	mvns.w	r3, r2, asr #21
    ca5a:	d107      	bne.n	ca6c <__aeabi_d2f+0x90>
    ca5c:	ea50 3301 	orrs.w	r3, r0, r1, lsl #12
    ca60:	bf1e      	ittt	ne
    ca62:	f04f 40fe 	movne.w	r0, #2130706432	; 0x7f000000
    ca66:	f440 0040 	orrne.w	r0, r0, #12582912	; 0xc00000
    ca6a:	4770      	bxne	lr
    ca6c:	f001 4000 	and.w	r0, r1, #2147483648	; 0x80000000
    ca70:	f040 40fe 	orr.w	r0, r0, #2130706432	; 0x7f000000
    ca74:	f440 0000 	orr.w	r0, r0, #8388608	; 0x800000
    ca78:	4770      	bx	lr
    ca7a:	bf00      	nop

0000ca7c <__aeabi_uldivmod>:
    ca7c:	b953      	cbnz	r3, ca94 <__aeabi_uldivmod+0x18>
    ca7e:	b94a      	cbnz	r2, ca94 <__aeabi_uldivmod+0x18>
    ca80:	2900      	cmp	r1, #0
    ca82:	bf08      	it	eq
    ca84:	2800      	cmpeq	r0, #0
    ca86:	bf1c      	itt	ne
    ca88:	f04f 31ff 	movne.w	r1, #4294967295
    ca8c:	f04f 30ff 	movne.w	r0, #4294967295
    ca90:	f000 b970 	b.w	cd74 <__aeabi_idiv0>
    ca94:	f1ad 0c08 	sub.w	ip, sp, #8
    ca98:	e96d ce04 	strd	ip, lr, [sp, #-16]!
    ca9c:	f000 f806 	bl	caac <__udivmoddi4>
    caa0:	f8dd e004 	ldr.w	lr, [sp, #4]
    caa4:	e9dd 2302 	ldrd	r2, r3, [sp, #8]
    caa8:	b004      	add	sp, #16
    caaa:	4770      	bx	lr

0000caac <__udivmoddi4>:
    caac:	e92d 4ff0 	stmdb	sp!, {r4, r5, r6, r7, r8, r9, sl, fp, lr}
    cab0:	9e09      	ldr	r6, [sp, #36]	; 0x24
    cab2:	4604      	mov	r4, r0
    cab4:	4689      	mov	r9, r1
    cab6:	2b00      	cmp	r3, #0
    cab8:	f040 8083 	bne.w	cbc2 <__udivmoddi4+0x116>
    cabc:	428a      	cmp	r2, r1
    cabe:	4615      	mov	r5, r2
    cac0:	d945      	bls.n	cb4e <__udivmoddi4+0xa2>
    cac2:	fab2 f282 	clz	r2, r2
    cac6:	b14a      	cbz	r2, cadc <__udivmoddi4+0x30>
    cac8:	f1c2 0720 	rsb	r7, r2, #32
    cacc:	fa01 f302 	lsl.w	r3, r1, r2
    cad0:	4095      	lsls	r5, r2
    cad2:	4094      	lsls	r4, r2
    cad4:	fa20 f707 	lsr.w	r7, r0, r7
    cad8:	ea47 0903 	orr.w	r9, r7, r3
    cadc:	ea4f 4e15 	mov.w	lr, r5, lsr #16
    cae0:	0c23      	lsrs	r3, r4, #16
    cae2:	fa1f f885 	uxth.w	r8, r5
    cae6:	fbb9 fcfe 	udiv	ip, r9, lr
    caea:	fb0e 991c 	mls	r9, lr, ip, r9
    caee:	fb0c f108 	mul.w	r1, ip, r8
    caf2:	ea43 4309 	orr.w	r3, r3, r9, lsl #16
    caf6:	4299      	cmp	r1, r3
    caf8:	d90a      	bls.n	cb10 <__udivmoddi4+0x64>
    cafa:	18eb      	adds	r3, r5, r3
    cafc:	bf2c      	ite	cs
    cafe:	2001      	movcs	r0, #1
    cb00:	2000      	movcc	r0, #0
    cb02:	4299      	cmp	r1, r3
    cb04:	d902      	bls.n	cb0c <__udivmoddi4+0x60>
    cb06:	2800      	cmp	r0, #0
    cb08:	f000 811d 	beq.w	cd46 <__udivmoddi4+0x29a>
    cb0c:	f10c 3cff 	add.w	ip, ip, #4294967295
    cb10:	1a59      	subs	r1, r3, r1
    cb12:	b2a3      	uxth	r3, r4
    cb14:	fbb1 f0fe 	udiv	r0, r1, lr
    cb18:	fb0e 1110 	mls	r1, lr, r0, r1
    cb1c:	fb00 f808 	mul.w	r8, r0, r8
    cb20:	ea43 4401 	orr.w	r4, r3, r1, lsl #16
    cb24:	45a0      	cmp	r8, r4
    cb26:	d905      	bls.n	cb34 <__udivmoddi4+0x88>
    cb28:	192c      	adds	r4, r5, r4
    cb2a:	d202      	bcs.n	cb32 <__udivmoddi4+0x86>
    cb2c:	45a0      	cmp	r8, r4
    cb2e:	f200 810e 	bhi.w	cd4e <__udivmoddi4+0x2a2>
    cb32:	3801      	subs	r0, #1
    cb34:	eba4 0408 	sub.w	r4, r4, r8
    cb38:	ea40 400c 	orr.w	r0, r0, ip, lsl #16
    cb3c:	2700      	movs	r7, #0
    cb3e:	b11e      	cbz	r6, cb48 <__udivmoddi4+0x9c>
    cb40:	40d4      	lsrs	r4, r2
    cb42:	2300      	movs	r3, #0
    cb44:	e9c6 4300 	strd	r4, r3, [r6]
    cb48:	4639      	mov	r1, r7
    cb4a:	e8bd 8ff0 	ldmia.w	sp!, {r4, r5, r6, r7, r8, r9, sl, fp, pc}
    cb4e:	2a00      	cmp	r2, #0
    cb50:	d051      	beq.n	cbf6 <__udivmoddi4+0x14a>
    cb52:	fab2 f282 	clz	r2, r2
    cb56:	2a00      	cmp	r2, #0
    cb58:	f040 80af 	bne.w	ccba <__udivmoddi4+0x20e>
    cb5c:	1b49      	subs	r1, r1, r5
    cb5e:	ea4f 4e15 	mov.w	lr, r5, lsr #16
    cb62:	fa1f f885 	uxth.w	r8, r5
    cb66:	2701      	movs	r7, #1
    cb68:	0c23      	lsrs	r3, r4, #16
    cb6a:	fbb1 fcfe 	udiv	ip, r1, lr
    cb6e:	fb0e 111c 	mls	r1, lr, ip, r1
    cb72:	fb08 f00c 	mul.w	r0, r8, ip
    cb76:	ea43 4301 	orr.w	r3, r3, r1, lsl #16
    cb7a:	4298      	cmp	r0, r3
    cb7c:	d90a      	bls.n	cb94 <__udivmoddi4+0xe8>
    cb7e:	18eb      	adds	r3, r5, r3
    cb80:	bf2c      	ite	cs
    cb82:	2101      	movcs	r1, #1
    cb84:	2100      	movcc	r1, #0
    cb86:	4298      	cmp	r0, r3
    cb88:	d902      	bls.n	cb90 <__udivmoddi4+0xe4>
    cb8a:	2900      	cmp	r1, #0
    cb8c:	f000 80d7 	beq.w	cd3e <__udivmoddi4+0x292>
    cb90:	f10c 3cff 	add.w	ip, ip, #4294967295
    cb94:	1a19      	subs	r1, r3, r0
    cb96:	b2a3      	uxth	r3, r4
    cb98:	fbb1 f0fe 	udiv	r0, r1, lr
    cb9c:	fb0e 1110 	mls	r1, lr, r0, r1
    cba0:	fb08 f800 	mul.w	r8, r8, r0
    cba4:	ea43 4401 	orr.w	r4, r3, r1, lsl #16
    cba8:	45a0      	cmp	r8, r4
    cbaa:	d905      	bls.n	cbb8 <__udivmoddi4+0x10c>
    cbac:	192c      	adds	r4, r5, r4
    cbae:	d202      	bcs.n	cbb6 <__udivmoddi4+0x10a>
    cbb0:	45a0      	cmp	r8, r4
    cbb2:	f200 80c1 	bhi.w	cd38 <__udivmoddi4+0x28c>
    cbb6:	3801      	subs	r0, #1
    cbb8:	eba4 0408 	sub.w	r4, r4, r8
    cbbc:	ea40 400c 	orr.w	r0, r0, ip, lsl #16
    cbc0:	e7bd      	b.n	cb3e <__udivmoddi4+0x92>
    cbc2:	428b      	cmp	r3, r1
    cbc4:	d908      	bls.n	cbd8 <__udivmoddi4+0x12c>
    cbc6:	2e00      	cmp	r6, #0
    cbc8:	d074      	beq.n	ccb4 <__udivmoddi4+0x208>
    cbca:	2700      	movs	r7, #0
    cbcc:	e9c6 0100 	strd	r0, r1, [r6]
    cbd0:	4638      	mov	r0, r7
    cbd2:	4639      	mov	r1, r7
    cbd4:	e8bd 8ff0 	ldmia.w	sp!, {r4, r5, r6, r7, r8, r9, sl, fp, pc}
    cbd8:	fab3 f783 	clz	r7, r3
    cbdc:	b967      	cbnz	r7, cbf8 <__udivmoddi4+0x14c>
    cbde:	428b      	cmp	r3, r1
    cbe0:	f0c0 80a4 	bcc.w	cd2c <__udivmoddi4+0x280>
    cbe4:	4282      	cmp	r2, r0
    cbe6:	f240 80a1 	bls.w	cd2c <__udivmoddi4+0x280>
    cbea:	4638      	mov	r0, r7
    cbec:	2e00      	cmp	r6, #0
    cbee:	d0ab      	beq.n	cb48 <__udivmoddi4+0x9c>
    cbf0:	e9c6 4900 	strd	r4, r9, [r6]
    cbf4:	e7a8      	b.n	cb48 <__udivmoddi4+0x9c>
    cbf6:	deff      	udf	#255	; 0xff
    cbf8:	f1c7 0520 	rsb	r5, r7, #32
    cbfc:	40bb      	lsls	r3, r7
    cbfe:	fa02 fc07 	lsl.w	ip, r2, r7
    cc02:	fa01 f407 	lsl.w	r4, r1, r7
    cc06:	40ea      	lsrs	r2, r5
    cc08:	fa20 f805 	lsr.w	r8, r0, r5
    cc0c:	40e9      	lsrs	r1, r5
    cc0e:	fa00 fe07 	lsl.w	lr, r0, r7
    cc12:	431a      	orrs	r2, r3
    cc14:	ea48 0404 	orr.w	r4, r8, r4
    cc18:	ea4f 4812 	mov.w	r8, r2, lsr #16
    cc1c:	0c20      	lsrs	r0, r4, #16
    cc1e:	fa1f f982 	uxth.w	r9, r2
    cc22:	fbb1 faf8 	udiv	sl, r1, r8
    cc26:	fb08 111a 	mls	r1, r8, sl, r1
    cc2a:	fb0a fb09 	mul.w	fp, sl, r9
    cc2e:	ea40 4101 	orr.w	r1, r0, r1, lsl #16
    cc32:	458b      	cmp	fp, r1
    cc34:	d90a      	bls.n	cc4c <__udivmoddi4+0x1a0>
    cc36:	1851      	adds	r1, r2, r1
    cc38:	bf2c      	ite	cs
    cc3a:	2301      	movcs	r3, #1
    cc3c:	2300      	movcc	r3, #0
    cc3e:	458b      	cmp	fp, r1
    cc40:	d902      	bls.n	cc48 <__udivmoddi4+0x19c>
    cc42:	2b00      	cmp	r3, #0
    cc44:	f000 8088 	beq.w	cd58 <__udivmoddi4+0x2ac>
    cc48:	f10a 3aff 	add.w	sl, sl, #4294967295
    cc4c:	eba1 010b 	sub.w	r1, r1, fp
    cc50:	b2a4      	uxth	r4, r4
    cc52:	fbb1 f0f8 	udiv	r0, r1, r8
    cc56:	fb08 1110 	mls	r1, r8, r0, r1
    cc5a:	fb00 f909 	mul.w	r9, r0, r9
    cc5e:	ea44 4101 	orr.w	r1, r4, r1, lsl #16
    cc62:	4589      	cmp	r9, r1
    cc64:	d904      	bls.n	cc70 <__udivmoddi4+0x1c4>
    cc66:	1851      	adds	r1, r2, r1
    cc68:	d201      	bcs.n	cc6e <__udivmoddi4+0x1c2>
    cc6a:	4589      	cmp	r9, r1
    cc6c:	d87b      	bhi.n	cd66 <__udivmoddi4+0x2ba>
    cc6e:	3801      	subs	r0, #1
    cc70:	ea40 400a 	orr.w	r0, r0, sl, lsl #16
    cc74:	eba1 0109 	sub.w	r1, r1, r9
    cc78:	fba0 890c 	umull	r8, r9, r0, ip
    cc7c:	4549      	cmp	r1, r9
    cc7e:	4644      	mov	r4, r8
    cc80:	464b      	mov	r3, r9
    cc82:	d302      	bcc.n	cc8a <__udivmoddi4+0x1de>
    cc84:	d106      	bne.n	cc94 <__udivmoddi4+0x1e8>
    cc86:	45c6      	cmp	lr, r8
    cc88:	d204      	bcs.n	cc94 <__udivmoddi4+0x1e8>
    cc8a:	3801      	subs	r0, #1
    cc8c:	ebb8 040c 	subs.w	r4, r8, ip
    cc90:	eb69 0302 	sbc.w	r3, r9, r2
    cc94:	2e00      	cmp	r6, #0
    cc96:	d05d      	beq.n	cd54 <__udivmoddi4+0x2a8>
    cc98:	ebbe 0204 	subs.w	r2, lr, r4
    cc9c:	eb61 0103 	sbc.w	r1, r1, r3
    cca0:	fa01 f505 	lsl.w	r5, r1, r5
    cca4:	fa22 f307 	lsr.w	r3, r2, r7
    cca8:	40f9      	lsrs	r1, r7
    ccaa:	2700      	movs	r7, #0
    ccac:	431d      	orrs	r5, r3
    ccae:	e9c6 5100 	strd	r5, r1, [r6]
    ccb2:	e749      	b.n	cb48 <__udivmoddi4+0x9c>
    ccb4:	4637      	mov	r7, r6
    ccb6:	4630      	mov	r0, r6
    ccb8:	e746      	b.n	cb48 <__udivmoddi4+0x9c>
    ccba:	f1c2 0020 	rsb	r0, r2, #32
    ccbe:	4095      	lsls	r5, r2
    ccc0:	fa01 f702 	lsl.w	r7, r1, r2
    ccc4:	fa21 f300 	lsr.w	r3, r1, r0
    ccc8:	ea4f 4e15 	mov.w	lr, r5, lsr #16
    cccc:	fa24 f100 	lsr.w	r1, r4, r0
    ccd0:	fa1f f885 	uxth.w	r8, r5
    ccd4:	4094      	lsls	r4, r2
    ccd6:	4339      	orrs	r1, r7
    ccd8:	fbb3 f0fe 	udiv	r0, r3, lr
    ccdc:	0c0f      	lsrs	r7, r1, #16
    ccde:	fb0e 3310 	mls	r3, lr, r0, r3
    cce2:	fb00 fc08 	mul.w	ip, r0, r8
    cce6:	ea47 4303 	orr.w	r3, r7, r3, lsl #16
    ccea:	459c      	cmp	ip, r3
    ccec:	d907      	bls.n	ccfe <__udivmoddi4+0x252>
    ccee:	18eb      	adds	r3, r5, r3
    ccf0:	bf2c      	ite	cs
    ccf2:	2701      	movcs	r7, #1
    ccf4:	2700      	movcc	r7, #0
    ccf6:	459c      	cmp	ip, r3
    ccf8:	d900      	bls.n	ccfc <__udivmoddi4+0x250>
    ccfa:	b38f      	cbz	r7, cd60 <__udivmoddi4+0x2b4>
    ccfc:	3801      	subs	r0, #1
    ccfe:	eba3 030c 	sub.w	r3, r3, ip
    cd02:	b289      	uxth	r1, r1
    cd04:	fbb3 f7fe 	udiv	r7, r3, lr
    cd08:	fb0e 3317 	mls	r3, lr, r7, r3
    cd0c:	fb07 fc08 	mul.w	ip, r7, r8
    cd10:	ea41 4103 	orr.w	r1, r1, r3, lsl #16
    cd14:	458c      	cmp	ip, r1
    cd16:	d904      	bls.n	cd22 <__udivmoddi4+0x276>
    cd18:	1869      	adds	r1, r5, r1
    cd1a:	d201      	bcs.n	cd20 <__udivmoddi4+0x274>
    cd1c:	458c      	cmp	ip, r1
    cd1e:	d825      	bhi.n	cd6c <__udivmoddi4+0x2c0>
    cd20:	3f01      	subs	r7, #1
    cd22:	eba1 010c 	sub.w	r1, r1, ip
    cd26:	ea47 4700 	orr.w	r7, r7, r0, lsl #16
    cd2a:	e71d      	b.n	cb68 <__udivmoddi4+0xbc>
    cd2c:	1a84      	subs	r4, r0, r2
    cd2e:	eb61 0303 	sbc.w	r3, r1, r3
    cd32:	2001      	movs	r0, #1
    cd34:	4699      	mov	r9, r3
    cd36:	e759      	b.n	cbec <__udivmoddi4+0x140>
    cd38:	3802      	subs	r0, #2
    cd3a:	442c      	add	r4, r5
    cd3c:	e73c      	b.n	cbb8 <__udivmoddi4+0x10c>
    cd3e:	f1ac 0c02 	sub.w	ip, ip, #2
    cd42:	442b      	add	r3, r5
    cd44:	e726      	b.n	cb94 <__udivmoddi4+0xe8>
    cd46:	f1ac 0c02 	sub.w	ip, ip, #2
    cd4a:	442b      	add	r3, r5
    cd4c:	e6e0      	b.n	cb10 <__udivmoddi4+0x64>
    cd4e:	3802      	subs	r0, #2
    cd50:	442c      	add	r4, r5
    cd52:	e6ef      	b.n	cb34 <__udivmoddi4+0x88>
    cd54:	4637      	mov	r7, r6
    cd56:	e6f7      	b.n	cb48 <__udivmoddi4+0x9c>
    cd58:	f1aa 0a02 	sub.w	sl, sl, #2
    cd5c:	4411      	add	r1, r2
    cd5e:	e775      	b.n	cc4c <__udivmoddi4+0x1a0>
    cd60:	3802      	subs	r0, #2
    cd62:	442b      	add	r3, r5
    cd64:	e7cb      	b.n	ccfe <__udivmoddi4+0x252>
    cd66:	3802      	subs	r0, #2
    cd68:	4411      	add	r1, r2
    cd6a:	e781      	b.n	cc70 <__udivmoddi4+0x1c4>
    cd6c:	3f02      	subs	r7, #2
    cd6e:	4429      	add	r1, r5
    cd70:	e7d7      	b.n	cd22 <__udivmoddi4+0x276>
    cd72:	bf00      	nop

0000cd74 <__aeabi_idiv0>:
    cd74:	4770      	bx	lr
    cd76:	bf00      	nop

0000cd78 <header_states>:

static
int header_states(struct http_parser *parser, const char *data, size_t len,
		  const char **ptr, enum state *p_state,
		  enum header_states *header_state, char ch, char c)
{
    cd78:	e92d 4ff0 	stmdb	sp!, {r4, r5, r6, r7, r8, r9, sl, fp, lr}
    cd7c:	b091      	sub	sp, #68	; 0x44
    cd7e:	af00      	add	r7, sp, #0
    cd80:	60f8      	str	r0, [r7, #12]
    cd82:	60b9      	str	r1, [r7, #8]
    cd84:	607a      	str	r2, [r7, #4]
    cd86:	603b      	str	r3, [r7, #0]
	enum header_states h_state = *header_state;
    cd88:	6efb      	ldr	r3, [r7, #108]	; 0x6c
    cd8a:	781b      	ldrb	r3, [r3, #0]
    cd8c:	f887 303f 	strb.w	r3, [r7, #63]	; 0x3f
	const char *p = *ptr;
    cd90:	683b      	ldr	r3, [r7, #0]
    cd92:	681b      	ldr	r3, [r3, #0]
    cd94:	63bb      	str	r3, [r7, #56]	; 0x38
	int cond1;

	switch (h_state) {
    cd96:	f897 303f 	ldrb.w	r3, [r7, #63]	; 0x3f
    cd9a:	2b16      	cmp	r3, #22
    cd9c:	f200 825d 	bhi.w	d25a <header_states+0x4e2>
    cda0:	a201      	add	r2, pc, #4	; (adr r2, cda8 <header_states+0x30>)
    cda2:	f852 f023 	ldr.w	pc, [r2, r3, lsl #2]
    cda6:	bf00      	nop
    cda8:	0000ce05 	.word	0x0000ce05
    cdac:	0000d25b 	.word	0x0000d25b
    cdb0:	0000d25b 	.word	0x0000d25b
    cdb4:	0000d25b 	.word	0x0000d25b
    cdb8:	0000d25b 	.word	0x0000d25b
    cdbc:	0000d25b 	.word	0x0000d25b
    cdc0:	0000d25b 	.word	0x0000d25b
    cdc4:	0000d25b 	.word	0x0000d25b
    cdc8:	0000d25b 	.word	0x0000d25b
    cdcc:	0000d269 	.word	0x0000d269
    cdd0:	0000ce7d 	.word	0x0000ce7d
    cdd4:	0000d269 	.word	0x0000d269
    cdd8:	0000d25b 	.word	0x0000d25b
    cddc:	0000cf7f 	.word	0x0000cf7f
    cde0:	0000cfef 	.word	0x0000cfef
    cde4:	0000d04f 	.word	0x0000d04f
    cde8:	0000d0bf 	.word	0x0000d0bf
    cdec:	0000d12f 	.word	0x0000d12f
    cdf0:	0000d19d 	.word	0x0000d19d
    cdf4:	0000d1b7 	.word	0x0000d1b7
    cdf8:	0000d1c7 	.word	0x0000d1c7
    cdfc:	0000d1c7 	.word	0x0000d1c7
    ce00:	0000d1c7 	.word	0x0000d1c7
	case h_general: {
		size_t limit = data + len - p;
    ce04:	68ba      	ldr	r2, [r7, #8]
    ce06:	687b      	ldr	r3, [r7, #4]
    ce08:	441a      	add	r2, r3
    ce0a:	6bbb      	ldr	r3, [r7, #56]	; 0x38
    ce0c:	1ad3      	subs	r3, r2, r3
    ce0e:	637b      	str	r3, [r7, #52]	; 0x34
		const char *p_cr;
		const char *p_lf;

		limit = MIN(limit, HTTP_MAX_HEADER_SIZE);
    ce10:	6b7b      	ldr	r3, [r7, #52]	; 0x34
    ce12:	f5b3 3fa0 	cmp.w	r3, #81920	; 0x14000
    ce16:	bf28      	it	cs
    ce18:	f44f 33a0 	movcs.w	r3, #81920	; 0x14000
    ce1c:	637b      	str	r3, [r7, #52]	; 0x34
		p_cr = (const char *)memchr(p, CR, limit);
    ce1e:	6b7a      	ldr	r2, [r7, #52]	; 0x34
    ce20:	210d      	movs	r1, #13
    ce22:	6bb8      	ldr	r0, [r7, #56]	; 0x38
    ce24:	f017 f9eb 	bl	241fe <memchr>
    ce28:	6338      	str	r0, [r7, #48]	; 0x30
		p_lf = (const char *)memchr(p, LF, limit);
    ce2a:	6b7a      	ldr	r2, [r7, #52]	; 0x34
    ce2c:	210a      	movs	r1, #10
    ce2e:	6bb8      	ldr	r0, [r7, #56]	; 0x38
    ce30:	f017 f9e5 	bl	241fe <memchr>
    ce34:	62f8      	str	r0, [r7, #44]	; 0x2c
		if (p_cr != NULL) {
    ce36:	6b3b      	ldr	r3, [r7, #48]	; 0x30
    ce38:	2b00      	cmp	r3, #0
    ce3a:	d00c      	beq.n	ce56 <header_states+0xde>
			if (p_lf != NULL && p_cr >= p_lf) {
    ce3c:	6afb      	ldr	r3, [r7, #44]	; 0x2c
    ce3e:	2b00      	cmp	r3, #0
    ce40:	d006      	beq.n	ce50 <header_states+0xd8>
    ce42:	6b3a      	ldr	r2, [r7, #48]	; 0x30
    ce44:	6afb      	ldr	r3, [r7, #44]	; 0x2c
    ce46:	429a      	cmp	r2, r3
    ce48:	d302      	bcc.n	ce50 <header_states+0xd8>
				p = p_lf;
    ce4a:	6afb      	ldr	r3, [r7, #44]	; 0x2c
    ce4c:	63bb      	str	r3, [r7, #56]	; 0x38
    ce4e:	e011      	b.n	ce74 <header_states+0xfc>
			} else {
				p = p_cr;
    ce50:	6b3b      	ldr	r3, [r7, #48]	; 0x30
    ce52:	63bb      	str	r3, [r7, #56]	; 0x38
    ce54:	e00e      	b.n	ce74 <header_states+0xfc>
			}
		} else if (UNLIKELY(p_lf != NULL)) {
    ce56:	6afb      	ldr	r3, [r7, #44]	; 0x2c
    ce58:	2b00      	cmp	r3, #0
    ce5a:	bf14      	ite	ne
    ce5c:	2301      	movne	r3, #1
    ce5e:	2300      	moveq	r3, #0
    ce60:	b2db      	uxtb	r3, r3
    ce62:	2b00      	cmp	r3, #0
    ce64:	d002      	beq.n	ce6c <header_states+0xf4>
			p = p_lf;
    ce66:	6afb      	ldr	r3, [r7, #44]	; 0x2c
    ce68:	63bb      	str	r3, [r7, #56]	; 0x38
    ce6a:	e003      	b.n	ce74 <header_states+0xfc>
		} else {
			p = data + len;
    ce6c:	68ba      	ldr	r2, [r7, #8]
    ce6e:	687b      	ldr	r3, [r7, #4]
    ce70:	4413      	add	r3, r2
    ce72:	63bb      	str	r3, [r7, #56]	; 0x38
		}
		--p;
    ce74:	6bbb      	ldr	r3, [r7, #56]	; 0x38
    ce76:	3b01      	subs	r3, #1
    ce78:	63bb      	str	r3, [r7, #56]	; 0x38

		break;
    ce7a:	e218      	b.n	d2ae <header_states+0x536>

	case h_content_length: {
		u64_t t;
		u64_t value;

		if (ch == ' ') {
    ce7c:	f897 3070 	ldrb.w	r3, [r7, #112]	; 0x70
    ce80:	2b20      	cmp	r3, #32
    ce82:	f000 81f3 	beq.w	d26c <header_states+0x4f4>
			break;
		}

		if (UNLIKELY(!IS_NUM(ch))) {
    ce86:	f897 3070 	ldrb.w	r3, [r7, #112]	; 0x70
    ce8a:	2b2f      	cmp	r3, #47	; 0x2f
    ce8c:	bf94      	ite	ls
    ce8e:	2301      	movls	r3, #1
    ce90:	2300      	movhi	r3, #0
    ce92:	b2db      	uxtb	r3, r3
    ce94:	2b00      	cmp	r3, #0
    ce96:	d108      	bne.n	ceaa <header_states+0x132>
    ce98:	f897 3070 	ldrb.w	r3, [r7, #112]	; 0x70
    ce9c:	2b39      	cmp	r3, #57	; 0x39
    ce9e:	bf8c      	ite	hi
    cea0:	2301      	movhi	r3, #1
    cea2:	2300      	movls	r3, #0
    cea4:	b2db      	uxtb	r3, r3
    cea6:	2b00      	cmp	r3, #0
    cea8:	d012      	beq.n	ced0 <header_states+0x158>
			SET_ERRNO(HPE_INVALID_CONTENT_LENGTH);
    ceaa:	68fa      	ldr	r2, [r7, #12]
    ceac:	7dd3      	ldrb	r3, [r2, #23]
    ceae:	2119      	movs	r1, #25
    ceb0:	f361 0306 	bfi	r3, r1, #0, #7
    ceb4:	75d3      	strb	r3, [r2, #23]
			parser->header_state = h_state;
    ceb6:	f897 303f 	ldrb.w	r3, [r7, #63]	; 0x3f
    ceba:	f003 037f 	and.w	r3, r3, #127	; 0x7f
    cebe:	b2d9      	uxtb	r1, r3
    cec0:	68fa      	ldr	r2, [r7, #12]
    cec2:	7893      	ldrb	r3, [r2, #2]
    cec4:	f361 0347 	bfi	r3, r1, #1, #7
    cec8:	7093      	strb	r3, [r2, #2]
			return -1;
    ceca:	f04f 33ff 	mov.w	r3, #4294967295
    cece:	e1f6      	b.n	d2be <header_states+0x546>
		}

		t = parser->content_length;
    ced0:	68fb      	ldr	r3, [r7, #12]
    ced2:	e9d3 3402 	ldrd	r3, r4, [r3, #8]
    ced6:	e9c7 3408 	strd	r3, r4, [r7, #32]
		t *= 10U;
    ceda:	e9d7 5608 	ldrd	r5, r6, [r7, #32]
    cede:	462b      	mov	r3, r5
    cee0:	4634      	mov	r4, r6
    cee2:	f04f 0100 	mov.w	r1, #0
    cee6:	f04f 0200 	mov.w	r2, #0
    ceea:	00a2      	lsls	r2, r4, #2
    ceec:	ea42 7293 	orr.w	r2, r2, r3, lsr #30
    cef0:	0099      	lsls	r1, r3, #2
    cef2:	460b      	mov	r3, r1
    cef4:	4614      	mov	r4, r2
    cef6:	195b      	adds	r3, r3, r5
    cef8:	eb46 0404 	adc.w	r4, r6, r4
    cefc:	eb13 0a03 	adds.w	sl, r3, r3
    cf00:	eb44 0b04 	adc.w	fp, r4, r4
    cf04:	4653      	mov	r3, sl
    cf06:	465c      	mov	r4, fp
    cf08:	e9c7 3408 	strd	r3, r4, [r7, #32]
		t += ch - '0';
    cf0c:	f897 3070 	ldrb.w	r3, [r7, #112]	; 0x70
    cf10:	3b30      	subs	r3, #48	; 0x30
    cf12:	ea4f 74e3 	mov.w	r4, r3, asr #31
    cf16:	e9d7 1208 	ldrd	r1, r2, [r7, #32]
    cf1a:	eb11 0803 	adds.w	r8, r1, r3
    cf1e:	eb42 0904 	adc.w	r9, r2, r4
    cf22:	e9c7 8908 	strd	r8, r9, [r7, #32]

		/* Overflow? Test against a conservative limit for simplicity */
		value = (ULLONG_MAX - 10) / 10;
    cf26:	a4df      	add	r4, pc, #892	; (adr r4, d2a4 <header_states+0x52c>)
    cf28:	e9d4 3400 	ldrd	r3, r4, [r4]
    cf2c:	e9c7 3406 	strd	r3, r4, [r7, #24]

		if (UNLIKELY(value < parser->content_length)) {
    cf30:	68fb      	ldr	r3, [r7, #12]
    cf32:	e9d3 3402 	ldrd	r3, r4, [r3, #8]
    cf36:	e9d7 1206 	ldrd	r1, r2, [r7, #24]
    cf3a:	42a2      	cmp	r2, r4
    cf3c:	bf08      	it	eq
    cf3e:	4299      	cmpeq	r1, r3
    cf40:	bf34      	ite	cc
    cf42:	2301      	movcc	r3, #1
    cf44:	2300      	movcs	r3, #0
    cf46:	b2db      	uxtb	r3, r3
    cf48:	2b00      	cmp	r3, #0
    cf4a:	d012      	beq.n	cf72 <header_states+0x1fa>
			SET_ERRNO(HPE_INVALID_CONTENT_LENGTH);
    cf4c:	68fa      	ldr	r2, [r7, #12]
    cf4e:	7dd3      	ldrb	r3, [r2, #23]
    cf50:	2119      	movs	r1, #25
    cf52:	f361 0306 	bfi	r3, r1, #0, #7
    cf56:	75d3      	strb	r3, [r2, #23]
			parser->header_state = h_state;
    cf58:	f897 303f 	ldrb.w	r3, [r7, #63]	; 0x3f
    cf5c:	f003 037f 	and.w	r3, r3, #127	; 0x7f
    cf60:	b2d9      	uxtb	r1, r3
    cf62:	68fa      	ldr	r2, [r7, #12]
    cf64:	7893      	ldrb	r3, [r2, #2]
    cf66:	f361 0347 	bfi	r3, r1, #1, #7
    cf6a:	7093      	strb	r3, [r2, #2]
			return -1;
    cf6c:	f04f 33ff 	mov.w	r3, #4294967295
    cf70:	e1a5      	b.n	d2be <header_states+0x546>
		}

		parser->content_length = t;
    cf72:	68fa      	ldr	r2, [r7, #12]
    cf74:	e9d7 3408 	ldrd	r3, r4, [r7, #32]
    cf78:	e9c2 3402 	strd	r3, r4, [r2, #8]
		break;
    cf7c:	e197      	b.n	d2ae <header_states+0x536>
	}

	/* Transfer-Encoding: chunked */
	case h_matching_transfer_encoding_chunked:
		parser->index++;
    cf7e:	68fb      	ldr	r3, [r7, #12]
    cf80:	78db      	ldrb	r3, [r3, #3]
    cf82:	f3c3 0306 	ubfx	r3, r3, #0, #7
    cf86:	b2db      	uxtb	r3, r3
    cf88:	3301      	adds	r3, #1
    cf8a:	f003 037f 	and.w	r3, r3, #127	; 0x7f
    cf8e:	b2d9      	uxtb	r1, r3
    cf90:	68fa      	ldr	r2, [r7, #12]
    cf92:	78d3      	ldrb	r3, [r2, #3]
    cf94:	f361 0306 	bfi	r3, r1, #0, #7
    cf98:	70d3      	strb	r3, [r2, #3]
		cond1 = parser->index > sizeof(CHUNKED) - 1;
    cf9a:	68fb      	ldr	r3, [r7, #12]
    cf9c:	78db      	ldrb	r3, [r3, #3]
    cf9e:	f3c3 0306 	ubfx	r3, r3, #0, #7
    cfa2:	b2db      	uxtb	r3, r3
    cfa4:	2b07      	cmp	r3, #7
    cfa6:	bf8c      	ite	hi
    cfa8:	2301      	movhi	r3, #1
    cfaa:	2300      	movls	r3, #0
    cfac:	b2db      	uxtb	r3, r3
    cfae:	617b      	str	r3, [r7, #20]
		if (cond1 || c != CHUNKED[parser->index]) {
    cfb0:	697b      	ldr	r3, [r7, #20]
    cfb2:	2b00      	cmp	r3, #0
    cfb4:	d10b      	bne.n	cfce <header_states+0x256>
    cfb6:	68fb      	ldr	r3, [r7, #12]
    cfb8:	78db      	ldrb	r3, [r3, #3]
    cfba:	f3c3 0306 	ubfx	r3, r3, #0, #7
    cfbe:	b2db      	uxtb	r3, r3
    cfc0:	461a      	mov	r2, r3
    cfc2:	4bb3      	ldr	r3, [pc, #716]	; (d290 <header_states+0x518>)
    cfc4:	5c9b      	ldrb	r3, [r3, r2]
    cfc6:	f897 2074 	ldrb.w	r2, [r7, #116]	; 0x74
    cfca:	429a      	cmp	r2, r3
    cfcc:	d003      	beq.n	cfd6 <header_states+0x25e>
			h_state = h_general;
    cfce:	2300      	movs	r3, #0
    cfd0:	f887 303f 	strb.w	r3, [r7, #63]	; 0x3f
		} else if (parser->index == sizeof(CHUNKED) - 2) {
			h_state = h_transfer_encoding_chunked;
		}
		break;
    cfd4:	e14c      	b.n	d270 <header_states+0x4f8>
		} else if (parser->index == sizeof(CHUNKED) - 2) {
    cfd6:	68fb      	ldr	r3, [r7, #12]
    cfd8:	78db      	ldrb	r3, [r3, #3]
    cfda:	f003 037f 	and.w	r3, r3, #127	; 0x7f
    cfde:	b2db      	uxtb	r3, r3
    cfe0:	2b06      	cmp	r3, #6
    cfe2:	f040 8145 	bne.w	d270 <header_states+0x4f8>
			h_state = h_transfer_encoding_chunked;
    cfe6:	2313      	movs	r3, #19
    cfe8:	f887 303f 	strb.w	r3, [r7, #63]	; 0x3f
		break;
    cfec:	e140      	b.n	d270 <header_states+0x4f8>

	case h_matching_connection_token_start:
		/* looking for 'Connection: keep-alive' */
		if (c == 'k') {
    cfee:	f897 3074 	ldrb.w	r3, [r7, #116]	; 0x74
    cff2:	2b6b      	cmp	r3, #107	; 0x6b
    cff4:	d103      	bne.n	cffe <header_states+0x286>
			h_state = h_matching_connection_keep_alive;
    cff6:	230f      	movs	r3, #15
    cff8:	f887 303f 	strb.w	r3, [r7, #63]	; 0x3f
		} else if (c == ' ' || c == '\t') {
			/* Skip lws */
		} else {
			h_state = h_general;
		}
		break;
    cffc:	e13a      	b.n	d274 <header_states+0x4fc>
		} else if (c == 'c') {
    cffe:	f897 3074 	ldrb.w	r3, [r7, #116]	; 0x74
    d002:	2b63      	cmp	r3, #99	; 0x63
    d004:	d103      	bne.n	d00e <header_states+0x296>
			h_state = h_matching_connection_close;
    d006:	2310      	movs	r3, #16
    d008:	f887 303f 	strb.w	r3, [r7, #63]	; 0x3f
		break;
    d00c:	e132      	b.n	d274 <header_states+0x4fc>
		} else if (c == 'u') {
    d00e:	f897 3074 	ldrb.w	r3, [r7, #116]	; 0x74
    d012:	2b75      	cmp	r3, #117	; 0x75
    d014:	d103      	bne.n	d01e <header_states+0x2a6>
			h_state = h_matching_connection_upgrade;
    d016:	2311      	movs	r3, #17
    d018:	f887 303f 	strb.w	r3, [r7, #63]	; 0x3f
		break;
    d01c:	e12a      	b.n	d274 <header_states+0x4fc>
		} else if (STRICT_TOKEN(c)) {
    d01e:	f897 3074 	ldrb.w	r3, [r7, #116]	; 0x74
    d022:	4a9c      	ldr	r2, [pc, #624]	; (d294 <header_states+0x51c>)
    d024:	5cd3      	ldrb	r3, [r2, r3]
    d026:	2b00      	cmp	r3, #0
    d028:	d003      	beq.n	d032 <header_states+0x2ba>
			h_state = h_matching_connection_token;
    d02a:	2312      	movs	r3, #18
    d02c:	f887 303f 	strb.w	r3, [r7, #63]	; 0x3f
		break;
    d030:	e120      	b.n	d274 <header_states+0x4fc>
		} else if (c == ' ' || c == '\t') {
    d032:	f897 3074 	ldrb.w	r3, [r7, #116]	; 0x74
    d036:	2b20      	cmp	r3, #32
    d038:	f000 811c 	beq.w	d274 <header_states+0x4fc>
    d03c:	f897 3074 	ldrb.w	r3, [r7, #116]	; 0x74
    d040:	2b09      	cmp	r3, #9
    d042:	f000 8117 	beq.w	d274 <header_states+0x4fc>
			h_state = h_general;
    d046:	2300      	movs	r3, #0
    d048:	f887 303f 	strb.w	r3, [r7, #63]	; 0x3f
		break;
    d04c:	e112      	b.n	d274 <header_states+0x4fc>

	/* looking for 'Connection: keep-alive' */
	case h_matching_connection_keep_alive:
		parser->index++;
    d04e:	68fb      	ldr	r3, [r7, #12]
    d050:	78db      	ldrb	r3, [r3, #3]
    d052:	f3c3 0306 	ubfx	r3, r3, #0, #7
    d056:	b2db      	uxtb	r3, r3
    d058:	3301      	adds	r3, #1
    d05a:	f003 037f 	and.w	r3, r3, #127	; 0x7f
    d05e:	b2d9      	uxtb	r1, r3
    d060:	68fa      	ldr	r2, [r7, #12]
    d062:	78d3      	ldrb	r3, [r2, #3]
    d064:	f361 0306 	bfi	r3, r1, #0, #7
    d068:	70d3      	strb	r3, [r2, #3]
		cond1 = parser->index > sizeof(KEEP_ALIVE) - 1;
    d06a:	68fb      	ldr	r3, [r7, #12]
    d06c:	78db      	ldrb	r3, [r3, #3]
    d06e:	f3c3 0306 	ubfx	r3, r3, #0, #7
    d072:	b2db      	uxtb	r3, r3
    d074:	2b0a      	cmp	r3, #10
    d076:	bf8c      	ite	hi
    d078:	2301      	movhi	r3, #1
    d07a:	2300      	movls	r3, #0
    d07c:	b2db      	uxtb	r3, r3
    d07e:	617b      	str	r3, [r7, #20]
		if (cond1 || c != KEEP_ALIVE[parser->index]) {
    d080:	697b      	ldr	r3, [r7, #20]
    d082:	2b00      	cmp	r3, #0
    d084:	d10b      	bne.n	d09e <header_states+0x326>
    d086:	68fb      	ldr	r3, [r7, #12]
    d088:	78db      	ldrb	r3, [r3, #3]
    d08a:	f3c3 0306 	ubfx	r3, r3, #0, #7
    d08e:	b2db      	uxtb	r3, r3
    d090:	461a      	mov	r2, r3
    d092:	4b81      	ldr	r3, [pc, #516]	; (d298 <header_states+0x520>)
    d094:	5c9b      	ldrb	r3, [r3, r2]
    d096:	f897 2074 	ldrb.w	r2, [r7, #116]	; 0x74
    d09a:	429a      	cmp	r2, r3
    d09c:	d003      	beq.n	d0a6 <header_states+0x32e>
			h_state = h_matching_connection_token;
    d09e:	2312      	movs	r3, #18
    d0a0:	f887 303f 	strb.w	r3, [r7, #63]	; 0x3f
		} else if (parser->index == sizeof(KEEP_ALIVE) - 2) {
			h_state = h_connection_keep_alive;
		}
		break;
    d0a4:	e0e8      	b.n	d278 <header_states+0x500>
		} else if (parser->index == sizeof(KEEP_ALIVE) - 2) {
    d0a6:	68fb      	ldr	r3, [r7, #12]
    d0a8:	78db      	ldrb	r3, [r3, #3]
    d0aa:	f003 037f 	and.w	r3, r3, #127	; 0x7f
    d0ae:	b2db      	uxtb	r3, r3
    d0b0:	2b09      	cmp	r3, #9
    d0b2:	f040 80e1 	bne.w	d278 <header_states+0x500>
			h_state = h_connection_keep_alive;
    d0b6:	2314      	movs	r3, #20
    d0b8:	f887 303f 	strb.w	r3, [r7, #63]	; 0x3f
		break;
    d0bc:	e0dc      	b.n	d278 <header_states+0x500>

	/* looking for 'Connection: close' */
	case h_matching_connection_close:
		parser->index++;
    d0be:	68fb      	ldr	r3, [r7, #12]
    d0c0:	78db      	ldrb	r3, [r3, #3]
    d0c2:	f3c3 0306 	ubfx	r3, r3, #0, #7
    d0c6:	b2db      	uxtb	r3, r3
    d0c8:	3301      	adds	r3, #1
    d0ca:	f003 037f 	and.w	r3, r3, #127	; 0x7f
    d0ce:	b2d9      	uxtb	r1, r3
    d0d0:	68fa      	ldr	r2, [r7, #12]
    d0d2:	78d3      	ldrb	r3, [r2, #3]
    d0d4:	f361 0306 	bfi	r3, r1, #0, #7
    d0d8:	70d3      	strb	r3, [r2, #3]
		cond1 = parser->index > sizeof(CLOSE) - 1;
    d0da:	68fb      	ldr	r3, [r7, #12]
    d0dc:	78db      	ldrb	r3, [r3, #3]
    d0de:	f3c3 0306 	ubfx	r3, r3, #0, #7
    d0e2:	b2db      	uxtb	r3, r3
    d0e4:	2b05      	cmp	r3, #5
    d0e6:	bf8c      	ite	hi
    d0e8:	2301      	movhi	r3, #1
    d0ea:	2300      	movls	r3, #0
    d0ec:	b2db      	uxtb	r3, r3
    d0ee:	617b      	str	r3, [r7, #20]
		if (cond1 || c != CLOSE[parser->index]) {
    d0f0:	697b      	ldr	r3, [r7, #20]
    d0f2:	2b00      	cmp	r3, #0
    d0f4:	d10b      	bne.n	d10e <header_states+0x396>
    d0f6:	68fb      	ldr	r3, [r7, #12]
    d0f8:	78db      	ldrb	r3, [r3, #3]
    d0fa:	f3c3 0306 	ubfx	r3, r3, #0, #7
    d0fe:	b2db      	uxtb	r3, r3
    d100:	461a      	mov	r2, r3
    d102:	4b66      	ldr	r3, [pc, #408]	; (d29c <header_states+0x524>)
    d104:	5c9b      	ldrb	r3, [r3, r2]
    d106:	f897 2074 	ldrb.w	r2, [r7, #116]	; 0x74
    d10a:	429a      	cmp	r2, r3
    d10c:	d003      	beq.n	d116 <header_states+0x39e>
			h_state = h_matching_connection_token;
    d10e:	2312      	movs	r3, #18
    d110:	f887 303f 	strb.w	r3, [r7, #63]	; 0x3f
		} else if (parser->index == sizeof(CLOSE) - 2) {
			h_state = h_connection_close;
		}
		break;
    d114:	e0b2      	b.n	d27c <header_states+0x504>
		} else if (parser->index == sizeof(CLOSE) - 2) {
    d116:	68fb      	ldr	r3, [r7, #12]
    d118:	78db      	ldrb	r3, [r3, #3]
    d11a:	f003 037f 	and.w	r3, r3, #127	; 0x7f
    d11e:	b2db      	uxtb	r3, r3
    d120:	2b04      	cmp	r3, #4
    d122:	f040 80ab 	bne.w	d27c <header_states+0x504>
			h_state = h_connection_close;
    d126:	2315      	movs	r3, #21
    d128:	f887 303f 	strb.w	r3, [r7, #63]	; 0x3f
		break;
    d12c:	e0a6      	b.n	d27c <header_states+0x504>

	/* looking for 'Connection: upgrade' */
	case h_matching_connection_upgrade:
		parser->index++;
    d12e:	68fb      	ldr	r3, [r7, #12]
    d130:	78db      	ldrb	r3, [r3, #3]
    d132:	f3c3 0306 	ubfx	r3, r3, #0, #7
    d136:	b2db      	uxtb	r3, r3
    d138:	3301      	adds	r3, #1
    d13a:	f003 037f 	and.w	r3, r3, #127	; 0x7f
    d13e:	b2d9      	uxtb	r1, r3
    d140:	68fa      	ldr	r2, [r7, #12]
    d142:	78d3      	ldrb	r3, [r2, #3]
    d144:	f361 0306 	bfi	r3, r1, #0, #7
    d148:	70d3      	strb	r3, [r2, #3]
		cond1 = parser->index > sizeof(UPGRADE) - 1;
    d14a:	68fb      	ldr	r3, [r7, #12]
    d14c:	78db      	ldrb	r3, [r3, #3]
    d14e:	f3c3 0306 	ubfx	r3, r3, #0, #7
    d152:	b2db      	uxtb	r3, r3
    d154:	2b07      	cmp	r3, #7
    d156:	bf8c      	ite	hi
    d158:	2301      	movhi	r3, #1
    d15a:	2300      	movls	r3, #0
    d15c:	b2db      	uxtb	r3, r3
    d15e:	617b      	str	r3, [r7, #20]
		if (cond1 || c != UPGRADE[parser->index]) {
    d160:	697b      	ldr	r3, [r7, #20]
    d162:	2b00      	cmp	r3, #0
    d164:	d10b      	bne.n	d17e <header_states+0x406>
    d166:	68fb      	ldr	r3, [r7, #12]
    d168:	78db      	ldrb	r3, [r3, #3]
    d16a:	f3c3 0306 	ubfx	r3, r3, #0, #7
    d16e:	b2db      	uxtb	r3, r3
    d170:	461a      	mov	r2, r3
    d172:	4b4b      	ldr	r3, [pc, #300]	; (d2a0 <header_states+0x528>)
    d174:	5c9b      	ldrb	r3, [r3, r2]
    d176:	f897 2074 	ldrb.w	r2, [r7, #116]	; 0x74
    d17a:	429a      	cmp	r2, r3
    d17c:	d003      	beq.n	d186 <header_states+0x40e>
			h_state = h_matching_connection_token;
    d17e:	2312      	movs	r3, #18
    d180:	f887 303f 	strb.w	r3, [r7, #63]	; 0x3f
		} else if (parser->index == sizeof(UPGRADE) - 2) {
			h_state = h_connection_upgrade;
		}
		break;
    d184:	e07c      	b.n	d280 <header_states+0x508>
		} else if (parser->index == sizeof(UPGRADE) - 2) {
    d186:	68fb      	ldr	r3, [r7, #12]
    d188:	78db      	ldrb	r3, [r3, #3]
    d18a:	f003 037f 	and.w	r3, r3, #127	; 0x7f
    d18e:	b2db      	uxtb	r3, r3
    d190:	2b06      	cmp	r3, #6
    d192:	d175      	bne.n	d280 <header_states+0x508>
			h_state = h_connection_upgrade;
    d194:	2316      	movs	r3, #22
    d196:	f887 303f 	strb.w	r3, [r7, #63]	; 0x3f
		break;
    d19a:	e071      	b.n	d280 <header_states+0x508>

	case h_matching_connection_token:
		if (ch == ',') {
    d19c:	f897 3070 	ldrb.w	r3, [r7, #112]	; 0x70
    d1a0:	2b2c      	cmp	r3, #44	; 0x2c
    d1a2:	d16f      	bne.n	d284 <header_states+0x50c>
			h_state = h_matching_connection_token_start;
    d1a4:	230e      	movs	r3, #14
    d1a6:	f887 303f 	strb.w	r3, [r7, #63]	; 0x3f
			parser->index = 0U;
    d1aa:	68fa      	ldr	r2, [r7, #12]
    d1ac:	78d3      	ldrb	r3, [r2, #3]
    d1ae:	f36f 0306 	bfc	r3, #0, #7
    d1b2:	70d3      	strb	r3, [r2, #3]
		}
		break;
    d1b4:	e066      	b.n	d284 <header_states+0x50c>

	case h_transfer_encoding_chunked:
		if (ch != ' ') {
    d1b6:	f897 3070 	ldrb.w	r3, [r7, #112]	; 0x70
    d1ba:	2b20      	cmp	r3, #32
    d1bc:	d064      	beq.n	d288 <header_states+0x510>
			h_state = h_general;
    d1be:	2300      	movs	r3, #0
    d1c0:	f887 303f 	strb.w	r3, [r7, #63]	; 0x3f
		}
		break;
    d1c4:	e060      	b.n	d288 <header_states+0x510>

	case h_connection_keep_alive:
	case h_connection_close:
	case h_connection_upgrade:
		if (ch == ',') {
    d1c6:	f897 3070 	ldrb.w	r3, [r7, #112]	; 0x70
    d1ca:	2b2c      	cmp	r3, #44	; 0x2c
    d1cc:	d13d      	bne.n	d24a <header_states+0x4d2>
			if (h_state == h_connection_keep_alive) {
    d1ce:	f897 303f 	ldrb.w	r3, [r7, #63]	; 0x3f
    d1d2:	2b14      	cmp	r3, #20
    d1d4:	d10d      	bne.n	d1f2 <header_states+0x47a>
				parser->flags |= F_CONNECTION_KEEP_ALIVE;
    d1d6:	68fb      	ldr	r3, [r7, #12]
    d1d8:	881b      	ldrh	r3, [r3, #0]
    d1da:	f3c3 0387 	ubfx	r3, r3, #2, #8
    d1de:	b2db      	uxtb	r3, r3
    d1e0:	f043 0302 	orr.w	r3, r3, #2
    d1e4:	b2d9      	uxtb	r1, r3
    d1e6:	68fa      	ldr	r2, [r7, #12]
    d1e8:	8813      	ldrh	r3, [r2, #0]
    d1ea:	f361 0389 	bfi	r3, r1, #2, #8
    d1ee:	8013      	strh	r3, [r2, #0]
    d1f0:	e022      	b.n	d238 <header_states+0x4c0>
			} else if (h_state == h_connection_close) {
    d1f2:	f897 303f 	ldrb.w	r3, [r7, #63]	; 0x3f
    d1f6:	2b15      	cmp	r3, #21
    d1f8:	d10d      	bne.n	d216 <header_states+0x49e>
				parser->flags |= F_CONNECTION_CLOSE;
    d1fa:	68fb      	ldr	r3, [r7, #12]
    d1fc:	881b      	ldrh	r3, [r3, #0]
    d1fe:	f3c3 0387 	ubfx	r3, r3, #2, #8
    d202:	b2db      	uxtb	r3, r3
    d204:	f043 0304 	orr.w	r3, r3, #4
    d208:	b2d9      	uxtb	r1, r3
    d20a:	68fa      	ldr	r2, [r7, #12]
    d20c:	8813      	ldrh	r3, [r2, #0]
    d20e:	f361 0389 	bfi	r3, r1, #2, #8
    d212:	8013      	strh	r3, [r2, #0]
    d214:	e010      	b.n	d238 <header_states+0x4c0>
			} else if (h_state == h_connection_upgrade) {
    d216:	f897 303f 	ldrb.w	r3, [r7, #63]	; 0x3f
    d21a:	2b16      	cmp	r3, #22
    d21c:	d10c      	bne.n	d238 <header_states+0x4c0>
				parser->flags |= F_CONNECTION_UPGRADE;
    d21e:	68fb      	ldr	r3, [r7, #12]
    d220:	881b      	ldrh	r3, [r3, #0]
    d222:	f3c3 0387 	ubfx	r3, r3, #2, #8
    d226:	b2db      	uxtb	r3, r3
    d228:	f043 0308 	orr.w	r3, r3, #8
    d22c:	b2d9      	uxtb	r1, r3
    d22e:	68fa      	ldr	r2, [r7, #12]
    d230:	8813      	ldrh	r3, [r2, #0]
    d232:	f361 0389 	bfi	r3, r1, #2, #8
    d236:	8013      	strh	r3, [r2, #0]
			}
			h_state = h_matching_connection_token_start;
    d238:	230e      	movs	r3, #14
    d23a:	f887 303f 	strb.w	r3, [r7, #63]	; 0x3f
			parser->index = 0U;
    d23e:	68fa      	ldr	r2, [r7, #12]
    d240:	78d3      	ldrb	r3, [r2, #3]
    d242:	f36f 0306 	bfc	r3, #0, #7
    d246:	70d3      	strb	r3, [r2, #3]
		} else if (ch != ' ') {
			h_state = h_matching_connection_token;
		}
		break;
    d248:	e030      	b.n	d2ac <header_states+0x534>
		} else if (ch != ' ') {
    d24a:	f897 3070 	ldrb.w	r3, [r7, #112]	; 0x70
    d24e:	2b20      	cmp	r3, #32
    d250:	d02c      	beq.n	d2ac <header_states+0x534>
			h_state = h_matching_connection_token;
    d252:	2312      	movs	r3, #18
    d254:	f887 303f 	strb.w	r3, [r7, #63]	; 0x3f
		break;
    d258:	e028      	b.n	d2ac <header_states+0x534>

	default:
		*p_state = s_header_value;
    d25a:	6ebb      	ldr	r3, [r7, #104]	; 0x68
    d25c:	2230      	movs	r2, #48	; 0x30
    d25e:	701a      	strb	r2, [r3, #0]
		h_state = h_general;
    d260:	2300      	movs	r3, #0
    d262:	f887 303f 	strb.w	r3, [r7, #63]	; 0x3f
		break;
    d266:	e022      	b.n	d2ae <header_states+0x536>
		break;
    d268:	bf00      	nop
    d26a:	e020      	b.n	d2ae <header_states+0x536>
			break;
    d26c:	bf00      	nop
    d26e:	e01e      	b.n	d2ae <header_states+0x536>
		break;
    d270:	bf00      	nop
    d272:	e01c      	b.n	d2ae <header_states+0x536>
		break;
    d274:	bf00      	nop
    d276:	e01a      	b.n	d2ae <header_states+0x536>
		break;
    d278:	bf00      	nop
    d27a:	e018      	b.n	d2ae <header_states+0x536>
		break;
    d27c:	bf00      	nop
    d27e:	e016      	b.n	d2ae <header_states+0x536>
		break;
    d280:	bf00      	nop
    d282:	e014      	b.n	d2ae <header_states+0x536>
		break;
    d284:	bf00      	nop
    d286:	e012      	b.n	d2ae <header_states+0x536>
		break;
    d288:	bf00      	nop
    d28a:	e010      	b.n	d2ae <header_states+0x536>
    d28c:	f3af 8000 	nop.w
    d290:	0002d230 	.word	0x0002d230
    d294:	0002e524 	.word	0x0002e524
    d298:	0002d238 	.word	0x0002d238
    d29c:	0002d244 	.word	0x0002d244
    d2a0:	0002d228 	.word	0x0002d228
    d2a4:	99999998 	.word	0x99999998
    d2a8:	19999999 	.word	0x19999999
		break;
    d2ac:	bf00      	nop
	}

	*header_state = h_state;
    d2ae:	6efb      	ldr	r3, [r7, #108]	; 0x6c
    d2b0:	f897 203f 	ldrb.w	r2, [r7, #63]	; 0x3f
    d2b4:	701a      	strb	r2, [r3, #0]
	*ptr = p;
    d2b6:	683b      	ldr	r3, [r7, #0]
    d2b8:	6bba      	ldr	r2, [r7, #56]	; 0x38
    d2ba:	601a      	str	r2, [r3, #0]

	return 0;
    d2bc:	2300      	movs	r3, #0
}
    d2be:	4618      	mov	r0, r3
    d2c0:	3744      	adds	r7, #68	; 0x44
    d2c2:	46bd      	mov	sp, r7
    d2c4:	e8bd 8ff0 	ldmia.w	sp!, {r4, r5, r6, r7, r8, r9, sl, fp, pc}

0000d2c8 <get_edrx_value>:

	return 0;
}

static int get_edrx_value(u8_t idx, float *edrx_value)
{
    d2c8:	b590      	push	{r4, r7, lr}
    d2ca:	b087      	sub	sp, #28
    d2cc:	af00      	add	r7, sp, #0
    d2ce:	4603      	mov	r3, r0
    d2d0:	6039      	str	r1, [r7, #0]
    d2d2:	71fb      	strb	r3, [r7, #7]
	int err;
	enum lte_lc_system_mode sys_mode;
	u16_t multiplier = 0;
    d2d4:	2300      	movs	r3, #0
    d2d6:	827b      	strh	r3, [r7, #18]
	};
	static const u16_t edrx_lookup_nbiot[16] = {
		2, 2, 2, 4, 2, 8, 2, 2, 2, 16, 32, 64, 128, 256, 512, 1024
	};

	if ((edrx_value == NULL) || (idx > ARRAY_SIZE(edrx_lookup_ltem) - 1)) {
    d2d8:	683b      	ldr	r3, [r7, #0]
    d2da:	2b00      	cmp	r3, #0
    d2dc:	d002      	beq.n	d2e4 <get_edrx_value+0x1c>
    d2de:	79fb      	ldrb	r3, [r7, #7]
    d2e0:	2b0f      	cmp	r3, #15
    d2e2:	d902      	bls.n	d2ea <get_edrx_value+0x22>
		return -EINVAL;
    d2e4:	f06f 0315 	mvn.w	r3, #21
    d2e8:	e04b      	b.n	d382 <get_edrx_value+0xba>
	}

	err = lte_lc_system_mode_get(&sys_mode);
    d2ea:	f107 030f 	add.w	r3, r7, #15
    d2ee:	4618      	mov	r0, r3
    d2f0:	f009 f9e6 	bl	166c0 <lte_lc_system_mode_get>
    d2f4:	6178      	str	r0, [r7, #20]
	if (err) {
    d2f6:	697b      	ldr	r3, [r7, #20]
    d2f8:	2b00      	cmp	r3, #0
    d2fa:	d005      	beq.n	d308 <get_edrx_value+0x40>
		LOG_ERR("Failed to get system mode, error: %d", err);
    d2fc:	f01c f844 	bl	29388 <_is_user_context>
    d300:	4603      	mov	r3, r0
    d302:	747b      	strb	r3, [r7, #17]
		return err;
    d304:	697b      	ldr	r3, [r7, #20]
    d306:	e03c      	b.n	d382 <get_edrx_value+0xba>
	}

	switch (sys_mode) {
    d308:	7bfb      	ldrb	r3, [r7, #15]
    d30a:	3b01      	subs	r3, #1
    d30c:	2b04      	cmp	r3, #4
    d30e:	d819      	bhi.n	d344 <get_edrx_value+0x7c>
    d310:	a201      	add	r2, pc, #4	; (adr r2, d318 <get_edrx_value+0x50>)
    d312:	f852 f023 	ldr.w	pc, [r2, r3, lsl #2]
    d316:	bf00      	nop
    d318:	0000d32d 	.word	0x0000d32d
    d31c:	0000d339 	.word	0x0000d339
    d320:	0000d345 	.word	0x0000d345
    d324:	0000d32d 	.word	0x0000d32d
    d328:	0000d339 	.word	0x0000d339
	case LTE_LC_SYSTEM_MODE_LTEM: /* Fall through */
	case LTE_LC_SYSTEM_MODE_LTEM_GPS:
		multiplier = edrx_lookup_ltem[idx];
    d32c:	79fb      	ldrb	r3, [r7, #7]
    d32e:	4a1a      	ldr	r2, [pc, #104]	; (d398 <get_edrx_value+0xd0>)
    d330:	f832 3013 	ldrh.w	r3, [r2, r3, lsl #1]
    d334:	827b      	strh	r3, [r7, #18]
		break;
    d336:	e00c      	b.n	d352 <get_edrx_value+0x8a>
	case LTE_LC_SYSTEM_MODE_NBIOT: /* Fall through */
	case LTE_LC_SYSTEM_MODE_NBIOT_GPS:
		multiplier = edrx_lookup_nbiot[idx];
    d338:	79fb      	ldrb	r3, [r7, #7]
    d33a:	4a18      	ldr	r2, [pc, #96]	; (d39c <get_edrx_value+0xd4>)
    d33c:	f832 3013 	ldrh.w	r3, [r2, r3, lsl #1]
    d340:	827b      	strh	r3, [r7, #18]
		break;
    d342:	e006      	b.n	d352 <get_edrx_value+0x8a>
	case LTE_LC_SYSTEM_MODE_GPS: /* Fall through */
	case LTE_LC_SYSTEM_MODE_NONE: /* Fall through */
	default:
		LOG_ERR("No LTE connection available in this system mode");
    d344:	f01c f820 	bl	29388 <_is_user_context>
    d348:	4603      	mov	r3, r0
    d34a:	743b      	strb	r3, [r7, #16]
		return -ENOTCONN;
    d34c:	f06f 0338 	mvn.w	r3, #56	; 0x38
    d350:	e017      	b.n	d382 <get_edrx_value+0xba>
	}

	*edrx_value = multiplier == 0 ? 5.12 : multiplier * 10.24;
    d352:	8a7b      	ldrh	r3, [r7, #18]
    d354:	2b00      	cmp	r3, #0
    d356:	d010      	beq.n	d37a <get_edrx_value+0xb2>
    d358:	8a7b      	ldrh	r3, [r7, #18]
    d35a:	4618      	mov	r0, r3
    d35c:	f7ff f8c2 	bl	c4e4 <__aeabi_i2d>
    d360:	a30b      	add	r3, pc, #44	; (adr r3, d390 <get_edrx_value+0xc8>)
    d362:	e9d3 2300 	ldrd	r2, r3, [r3]
    d366:	f7ff f927 	bl	c5b8 <__aeabi_dmul>
    d36a:	4603      	mov	r3, r0
    d36c:	460c      	mov	r4, r1
    d36e:	4618      	mov	r0, r3
    d370:	4621      	mov	r1, r4
    d372:	f7ff fb33 	bl	c9dc <__aeabi_d2f>
    d376:	4602      	mov	r2, r0
    d378:	e000      	b.n	d37c <get_edrx_value+0xb4>
    d37a:	4a09      	ldr	r2, [pc, #36]	; (d3a0 <get_edrx_value+0xd8>)
    d37c:	683b      	ldr	r3, [r7, #0]
    d37e:	601a      	str	r2, [r3, #0]

	return err;
    d380:	697b      	ldr	r3, [r7, #20]
}
    d382:	4618      	mov	r0, r3
    d384:	371c      	adds	r7, #28
    d386:	46bd      	mov	sp, r7
    d388:	bd90      	pop	{r4, r7, pc}
    d38a:	bf00      	nop
    d38c:	f3af 8000 	nop.w
    d390:	47ae147b 	.word	0x47ae147b
    d394:	40247ae1 	.word	0x40247ae1
    d398:	0002e874 	.word	0x0002e874
    d39c:	0002e894 	.word	0x0002e894
    d3a0:	40a3d70a 	.word	0x40a3d70a

0000d3a4 <nrfx_pdm_enable_check>:
{
    return nrf_pdm_task_address_get(NRF_PDM0, task);
}

NRFX_STATIC_INLINE bool nrfx_pdm_enable_check(void)
{
    d3a4:	b580      	push	{r7, lr}
    d3a6:	af00      	add	r7, sp, #0
    return nrf_pdm_enable_check(NRF_PDM0);
    d3a8:	4802      	ldr	r0, [pc, #8]	; (d3b4 <nrfx_pdm_enable_check+0x10>)
    d3aa:	f014 faed 	bl	21988 <nrf_pdm_enable_check>
    d3ae:	4603      	mov	r3, r0
}
    d3b0:	4618      	mov	r0, r3
    d3b2:	bd80      	pop	{r7, pc}
    d3b4:	40026000 	.word	0x40026000

0000d3b8 <at_comms_init>:
BUILD_ASSERT(sizeof(cert) < KB(4), "Certificate too large");


/* Initialize AT communications */
int at_comms_init(void)
{
    d3b8:	b580      	push	{r7, lr}
    d3ba:	b082      	sub	sp, #8
    d3bc:	af00      	add	r7, sp, #0
	int err;

	err = at_cmd_init();
    d3be:	f01b fa20 	bl	28802 <at_cmd_init>
    d3c2:	6078      	str	r0, [r7, #4]
	if (err) {
    d3c4:	687b      	ldr	r3, [r7, #4]
    d3c6:	2b00      	cmp	r3, #0
    d3c8:	d005      	beq.n	d3d6 <at_comms_init+0x1e>
		printk("Failed to initialize AT commands, err %d\n", err);
    d3ca:	6879      	ldr	r1, [r7, #4]
    d3cc:	480a      	ldr	r0, [pc, #40]	; (d3f8 <at_comms_init+0x40>)
    d3ce:	f014 fb5b 	bl	21a88 <printk>
		return err;
    d3d2:	687b      	ldr	r3, [r7, #4]
    d3d4:	e00c      	b.n	d3f0 <at_comms_init+0x38>
	}

	err = at_notif_init();
    d3d6:	f01b fae3 	bl	289a0 <at_notif_init>
    d3da:	6078      	str	r0, [r7, #4]
	if (err) {
    d3dc:	687b      	ldr	r3, [r7, #4]
    d3de:	2b00      	cmp	r3, #0
    d3e0:	d005      	beq.n	d3ee <at_comms_init+0x36>
		printk("Failed to initialize AT notifications, err %d\n", err);
    d3e2:	6879      	ldr	r1, [r7, #4]
    d3e4:	4805      	ldr	r0, [pc, #20]	; (d3fc <at_comms_init+0x44>)
    d3e6:	f014 fb4f 	bl	21a88 <printk>
		return err;
    d3ea:	687b      	ldr	r3, [r7, #4]
    d3ec:	e000      	b.n	d3f0 <at_comms_init+0x38>
	}

	return 0;
    d3ee:	2300      	movs	r3, #0
}
    d3f0:	4618      	mov	r0, r3
    d3f2:	3708      	adds	r7, #8
    d3f4:	46bd      	mov	sp, r7
    d3f6:	bd80      	pop	{r7, pc}
    d3f8:	0002c680 	.word	0x0002c680
    d3fc:	0002c6ac 	.word	0x0002c6ac

0000d400 <cert_provision>:

/* Provision certificate to modem */
int cert_provision(void)
{
    d400:	b580      	push	{r7, lr}
    d402:	b082      	sub	sp, #8
    d404:	af00      	add	r7, sp, #0
	int err;
	bool exists;
	uint8_t unused;

	err = modem_key_mgmt_exists(TLS_SEC_TAG,
    d406:	1cbb      	adds	r3, r7, #2
    d408:	1cfa      	adds	r2, r7, #3
    d40a:	2100      	movs	r1, #0
    d40c:	202a      	movs	r0, #42	; 0x2a
    d40e:	f009 fb51 	bl	16ab4 <modem_key_mgmt_exists>
    d412:	6078      	str	r0, [r7, #4]
				    MODEM_KEY_MGMT_CRED_TYPE_CA_CHAIN,
				    &exists, &unused);
	if (err) {
    d414:	687b      	ldr	r3, [r7, #4]
    d416:	2b00      	cmp	r3, #0
    d418:	d005      	beq.n	d426 <cert_provision+0x26>
		printk("Failed to check for certificates err %d\n", err);
    d41a:	6879      	ldr	r1, [r7, #4]
    d41c:	4816      	ldr	r0, [pc, #88]	; (d478 <cert_provision+0x78>)
    d41e:	f014 fb33 	bl	21a88 <printk>
		return err;
    d422:	687b      	ldr	r3, [r7, #4]
    d424:	e023      	b.n	d46e <cert_provision+0x6e>
	}

	if (exists) {
    d426:	78fb      	ldrb	r3, [r7, #3]
    d428:	2b00      	cmp	r3, #0
    d42a:	d00b      	beq.n	d444 <cert_provision+0x44>
		/* For the sake of simplicity we delete what is provisioned
		 * with our security tag and reprovision our certificate.
		 */
		err = modem_key_mgmt_delete(TLS_SEC_TAG,
    d42c:	2100      	movs	r1, #0
    d42e:	202a      	movs	r0, #42	; 0x2a
    d430:	f009 fb0c 	bl	16a4c <modem_key_mgmt_delete>
    d434:	6078      	str	r0, [r7, #4]
					    MODEM_KEY_MGMT_CRED_TYPE_CA_CHAIN);
		if (err) {
    d436:	687b      	ldr	r3, [r7, #4]
    d438:	2b00      	cmp	r3, #0
    d43a:	d003      	beq.n	d444 <cert_provision+0x44>
			printk("Failed to delete existing certificate, err %d\n",
    d43c:	6879      	ldr	r1, [r7, #4]
    d43e:	480f      	ldr	r0, [pc, #60]	; (d47c <cert_provision+0x7c>)
    d440:	f014 fb22 	bl	21a88 <printk>
			       err);
		}
	}

	printk("Provisioning certificate\n");
    d444:	480e      	ldr	r0, [pc, #56]	; (d480 <cert_provision+0x80>)
    d446:	f014 fb1f 	bl	21a88 <printk>

	/*  Provision certificate to the modem */
	err = modem_key_mgmt_write(TLS_SEC_TAG,
    d44a:	f640 7353 	movw	r3, #3923	; 0xf53
    d44e:	4a0d      	ldr	r2, [pc, #52]	; (d484 <cert_provision+0x84>)
    d450:	2100      	movs	r1, #0
    d452:	202a      	movs	r0, #42	; 0x2a
    d454:	f009 fa9a 	bl	1698c <modem_key_mgmt_write>
    d458:	6078      	str	r0, [r7, #4]
				   MODEM_KEY_MGMT_CRED_TYPE_CA_CHAIN,
				   cert, sizeof(cert) - 1);
	if (err) {
    d45a:	687b      	ldr	r3, [r7, #4]
    d45c:	2b00      	cmp	r3, #0
    d45e:	d005      	beq.n	d46c <cert_provision+0x6c>
		printk("Failed to provision certificate, err %d\n", err);
    d460:	6879      	ldr	r1, [r7, #4]
    d462:	4809      	ldr	r0, [pc, #36]	; (d488 <cert_provision+0x88>)
    d464:	f014 fb10 	bl	21a88 <printk>
		return err;
    d468:	687b      	ldr	r3, [r7, #4]
    d46a:	e000      	b.n	d46e <cert_provision+0x6e>
	}

	return 0;
    d46c:	2300      	movs	r3, #0
}
    d46e:	4618      	mov	r0, r3
    d470:	3708      	adds	r7, #8
    d472:	46bd      	mov	sp, r7
    d474:	bd80      	pop	{r7, pc}
    d476:	bf00      	nop
    d478:	0002c6dc 	.word	0x0002c6dc
    d47c:	0002c708 	.word	0x0002c708
    d480:	0002c738 	.word	0x0002c738
    d484:	0002d588 	.word	0x0002d588
    d488:	0002c754 	.word	0x0002c754

0000d48c <tls_setup>:

/* Setup TLS options on a given socket */
int tls_setup(int fd)
{
    d48c:	b580      	push	{r7, lr}
    d48e:	b088      	sub	sp, #32
    d490:	af02      	add	r7, sp, #8
    d492:	6078      	str	r0, [r7, #4]
	int err;
	int verify;

	/* Security tag that we have provisioned the certificate with */
	const sec_tag_t tls_sec_tag[] = {
    d494:	232a      	movs	r3, #42	; 0x2a
    d496:	60fb      	str	r3, [r7, #12]
		NONE = 0,
		OPTIONAL = 1,
		REQUIRED = 2,
	};

	verify = REQUIRED;
    d498:	2302      	movs	r3, #2
    d49a:	613b      	str	r3, [r7, #16]

	err = setsockopt(fd, SOL_TLS, TLS_PEER_VERIFY, &verify, sizeof(verify));
    d49c:	f107 0210 	add.w	r2, r7, #16
    d4a0:	2304      	movs	r3, #4
    d4a2:	9300      	str	r3, [sp, #0]
    d4a4:	4613      	mov	r3, r2
    d4a6:	2205      	movs	r2, #5
    d4a8:	f44f 718d 	mov.w	r1, #282	; 0x11a
    d4ac:	6878      	ldr	r0, [r7, #4]
    d4ae:	f014 f9fa 	bl	218a6 <setsockopt>
    d4b2:	6178      	str	r0, [r7, #20]
	if (err) {
    d4b4:	697b      	ldr	r3, [r7, #20]
    d4b6:	2b00      	cmp	r3, #0
    d4b8:	d009      	beq.n	d4ce <tls_setup+0x42>
		printk("Failed to setup peer verification, err %d\n", errno);
    d4ba:	f014 f9c1 	bl	21840 <z_errno>
    d4be:	4603      	mov	r3, r0
    d4c0:	681b      	ldr	r3, [r3, #0]
    d4c2:	4619      	mov	r1, r3
    d4c4:	4811      	ldr	r0, [pc, #68]	; (d50c <tls_setup+0x80>)
    d4c6:	f014 fadf 	bl	21a88 <printk>
		return err;
    d4ca:	697b      	ldr	r3, [r7, #20]
    d4cc:	e019      	b.n	d502 <tls_setup+0x76>
	}

	/* Associate the socket with the security tag
	 * we have provisioned the certificate with.
	 */
	err = setsockopt(fd, SOL_TLS, TLS_SEC_TAG_LIST, tls_sec_tag,
    d4ce:	f107 020c 	add.w	r2, r7, #12
    d4d2:	2304      	movs	r3, #4
    d4d4:	9300      	str	r3, [sp, #0]
    d4d6:	4613      	mov	r3, r2
    d4d8:	2201      	movs	r2, #1
    d4da:	f44f 718d 	mov.w	r1, #282	; 0x11a
    d4de:	6878      	ldr	r0, [r7, #4]
    d4e0:	f014 f9e1 	bl	218a6 <setsockopt>
    d4e4:	6178      	str	r0, [r7, #20]
			 sizeof(tls_sec_tag));
	if (err) {
    d4e6:	697b      	ldr	r3, [r7, #20]
    d4e8:	2b00      	cmp	r3, #0
    d4ea:	d009      	beq.n	d500 <tls_setup+0x74>
		printk("Failed to setup TLS sec tag, err %d\n", errno);
    d4ec:	f014 f9a8 	bl	21840 <z_errno>
    d4f0:	4603      	mov	r3, r0
    d4f2:	681b      	ldr	r3, [r3, #0]
    d4f4:	4619      	mov	r1, r3
    d4f6:	4806      	ldr	r0, [pc, #24]	; (d510 <tls_setup+0x84>)
    d4f8:	f014 fac6 	bl	21a88 <printk>
		return err;
    d4fc:	697b      	ldr	r3, [r7, #20]
    d4fe:	e000      	b.n	d502 <tls_setup+0x76>
	}

	return 0;
    d500:	2300      	movs	r3, #0
}
    d502:	4618      	mov	r0, r3
    d504:	3718      	adds	r7, #24
    d506:	46bd      	mov	sp, r7
    d508:	bd80      	pop	{r7, pc}
    d50a:	bf00      	nop
    d50c:	0002c780 	.word	0x0002c780
    d510:	0002c7ac 	.word	0x0002c7ac

0000d514 <response_cb>:
}

static void response_cb(struct http_response *rsp,
			enum http_final_call final_data,
			void *user_data)
{
    d514:	b580      	push	{r7, lr}
    d516:	b086      	sub	sp, #24
    d518:	af00      	add	r7, sp, #0
    d51a:	60f8      	str	r0, [r7, #12]
    d51c:	460b      	mov	r3, r1
    d51e:	607a      	str	r2, [r7, #4]
    d520:	72fb      	strb	r3, [r7, #11]
	if (final_data == HTTP_DATA_MORE) {
    d522:	7afb      	ldrb	r3, [r7, #11]
    d524:	2b00      	cmp	r3, #0
    d526:	d106      	bne.n	d536 <response_cb+0x22>
		printk("Partial data received (%zd bytes)", rsp->data_len);
    d528:	68fb      	ldr	r3, [r7, #12]
    d52a:	695b      	ldr	r3, [r3, #20]
    d52c:	4619      	mov	r1, r3
    d52e:	480c      	ldr	r0, [pc, #48]	; (d560 <response_cb+0x4c>)
    d530:	f014 faaa 	bl	21a88 <printk>
    d534:	e008      	b.n	d548 <response_cb+0x34>
	} else if (final_data == HTTP_DATA_FINAL) {
    d536:	7afb      	ldrb	r3, [r7, #11]
    d538:	2b01      	cmp	r3, #1
    d53a:	d105      	bne.n	d548 <response_cb+0x34>
		printk("All the data received (%zd bytes)", rsp->data_len);
    d53c:	68fb      	ldr	r3, [r7, #12]
    d53e:	695b      	ldr	r3, [r3, #20]
    d540:	4619      	mov	r1, r3
    d542:	4808      	ldr	r0, [pc, #32]	; (d564 <response_cb+0x50>)
    d544:	f014 faa0 	bl	21a88 <printk>
	}

	LOG_INF("Response to %s", (const char *)user_data);
    d548:	f014 f95e 	bl	21808 <_is_user_context>
    d54c:	4603      	mov	r3, r0
    d54e:	75fb      	strb	r3, [r7, #23]
	LOG_INF("Response status %s", rsp->http_status);
    d550:	f014 f95a 	bl	21808 <_is_user_context>
    d554:	4603      	mov	r3, r0
    d556:	75bb      	strb	r3, [r7, #22]
}
    d558:	bf00      	nop
    d55a:	3718      	adds	r7, #24
    d55c:	46bd      	mov	sp, r7
    d55e:	bd80      	pop	{r7, pc}
    d560:	0002c80c 	.word	0x0002c80c
    d564:	0002c830 	.word	0x0002c830

0000d568 <pdm_event_handler>:


}

static void pdm_event_handler(nrfx_pdm_evt_t const const* evt)
{
    d568:	b580      	push	{r7, lr}
    d56a:	b084      	sub	sp, #16
    d56c:	af00      	add	r7, sp, #0
    d56e:	6078      	str	r0, [r7, #4]
  int16_t *buffer_released = evt->buffer_released;
    d570:	687b      	ldr	r3, [r7, #4]
    d572:	685b      	ldr	r3, [r3, #4]
    d574:	60fb      	str	r3, [r7, #12]
  if(evt->buffer_requested)
    d576:	687b      	ldr	r3, [r7, #4]
    d578:	781b      	ldrb	r3, [r3, #0]
    d57a:	2b00      	cmp	r3, #0
    d57c:	d01a      	beq.n	d5b4 <pdm_event_handler+0x4c>
  {
    if(buffer_released)
    d57e:	68fb      	ldr	r3, [r7, #12]
    d580:	2b00      	cmp	r3, #0
    d582:	d012      	beq.n	d5aa <pdm_event_handler+0x42>
    {
      printk("Out: %2x %2x\r\n", (uint16_t)pdm_buffer[0],(uint16_t)pdm_buffer[1]);
    d584:	4b0d      	ldr	r3, [pc, #52]	; (d5bc <pdm_event_handler+0x54>)
    d586:	f9b3 3000 	ldrsh.w	r3, [r3]
    d58a:	b29b      	uxth	r3, r3
    d58c:	4619      	mov	r1, r3
    d58e:	4b0b      	ldr	r3, [pc, #44]	; (d5bc <pdm_event_handler+0x54>)
    d590:	f9b3 3002 	ldrsh.w	r3, [r3, #2]
    d594:	b29b      	uxth	r3, r3
    d596:	461a      	mov	r2, r3
    d598:	4809      	ldr	r0, [pc, #36]	; (d5c0 <pdm_event_handler+0x58>)
    d59a:	f014 fa75 	bl	21a88 <printk>
      
      nrfx_pdm_buffer_set(buffer_released,PDM_BUFFER_SIZE);
    d59e:	f44f 5180 	mov.w	r1, #4096	; 0x1000
    d5a2:	68f8      	ldr	r0, [r7, #12]
    d5a4:	f011 fd40 	bl	1f028 <nrfx_pdm_buffer_set>
    else
    {
      nrfx_pdm_buffer_set(&pdm_buffer, PDM_BUFFER_SIZE);
    }
   }
}
    d5a8:	e004      	b.n	d5b4 <pdm_event_handler+0x4c>
      nrfx_pdm_buffer_set(&pdm_buffer, PDM_BUFFER_SIZE);
    d5aa:	f44f 5180 	mov.w	r1, #4096	; 0x1000
    d5ae:	4803      	ldr	r0, [pc, #12]	; (d5bc <pdm_event_handler+0x54>)
    d5b0:	f011 fd3a 	bl	1f028 <nrfx_pdm_buffer_set>
}
    d5b4:	bf00      	nop
    d5b6:	3710      	adds	r7, #16
    d5b8:	46bd      	mov	sp, r7
    d5ba:	bd80      	pop	{r7, pc}
    d5bc:	20020574 	.word	0x20020574
    d5c0:	0002c854 	.word	0x0002c854

0000d5c4 <main>:




void main(void)
{
    d5c4:	b590      	push	{r4, r7, lr}
    d5c6:	b0e5      	sub	sp, #404	; 0x194
    d5c8:	af02      	add	r7, sp, #8
	int err;
	int fd;
	char *p;
	int bytes;
	size_t off;
        bool enabled = true;
    d5ca:	2301      	movs	r3, #1
    d5cc:	f887 3187 	strb.w	r3, [r7, #391]	; 0x187
        nrfx_err_t error;

        IRQ_DIRECT_CONNECT(PDM_IRQn, 0, pdm_isr_handler, 0);
    d5d0:	2200      	movs	r2, #0
    d5d2:	2100      	movs	r1, #0
    d5d4:	2026      	movs	r0, #38	; 0x26
    d5d6:	f015 fdc8 	bl	2316a <z_arm_irq_priority_set>


        uint32_t nrf_gpoite_literal_address = NRF_PDM;
    d5da:	4b9b      	ldr	r3, [pc, #620]	; (d848 <main+0x284>)
    d5dc:	f8c7 3180 	str.w	r3, [r7, #384]	; 0x180


        int32_t timeout = 3 * MSEC_PER_SEC;
    d5e0:	f640 33b8 	movw	r3, #3000	; 0xbb8
    d5e4:	f8c7 317c 	str.w	r3, [r7, #380]	; 0x17c
	struct addrinfo *res;
	struct addrinfo hints = {
    d5e8:	f507 738e 	add.w	r3, r7, #284	; 0x11c
    d5ec:	2250      	movs	r2, #80	; 0x50
    d5ee:	2100      	movs	r1, #0
    d5f0:	4618      	mov	r0, r3
    d5f2:	f016 fdb8 	bl	24166 <memset>
    d5f6:	2301      	movs	r3, #1
    d5f8:	f8c7 3124 	str.w	r3, [r7, #292]	; 0x124
    d5fc:	2301      	movs	r3, #1
    d5fe:	f8c7 3128 	str.w	r3, [r7, #296]	; 0x128
		.ai_family = AF_INET,
		.ai_socktype = SOCK_STREAM,
	};
        

        nrfx_pdm_config_t const p_config = NRFX_PDM_DEFAULT_CONFIG(10,11);
    d602:	4a92      	ldr	r2, [pc, #584]	; (d84c <main+0x288>)
    d604:	f507 7388 	add.w	r3, r7, #272	; 0x110
    d608:	ca07      	ldmia	r2, {r0, r1, r2}
    d60a:	e883 0007 	stmia.w	r3, {r0, r1, r2}
        error = nrfx_pdm_init(&p_config, pdm_event_handler);
    d60e:	f507 7388 	add.w	r3, r7, #272	; 0x110
    d612:	498f      	ldr	r1, [pc, #572]	; (d850 <main+0x28c>)
    d614:	4618      	mov	r0, r3
    d616:	f011 fc0f 	bl	1ee38 <nrfx_pdm_init>
    d61a:	f8c7 0178 	str.w	r0, [r7, #376]	; 0x178

        if(error != NRFX_SUCCESS){
    d61e:	f8d7 3178 	ldr.w	r3, [r7, #376]	; 0x178
    d622:	4a8c      	ldr	r2, [pc, #560]	; (d854 <main+0x290>)
    d624:	4293      	cmp	r3, r2
    d626:	d003      	beq.n	d630 <main+0x6c>
          printk("Failed to initialize pdm");
    d628:	488b      	ldr	r0, [pc, #556]	; (d858 <main+0x294>)
    d62a:	f014 fa2d 	bl	21a88 <printk>
          return;
    d62e:	e106      	b.n	d83e <main+0x27a>
        }

        error = nrfx_pdm_start();
    d630:	f011 fcc6 	bl	1efc0 <nrfx_pdm_start>
    d634:	f8c7 0178 	str.w	r0, [r7, #376]	; 0x178
        if(error != NRFX_SUCCESS){
    d638:	f8d7 3178 	ldr.w	r3, [r7, #376]	; 0x178
    d63c:	4a85      	ldr	r2, [pc, #532]	; (d854 <main+0x290>)
    d63e:	4293      	cmp	r3, r2
    d640:	d002      	beq.n	d648 <main+0x84>
          printk("Failed to start pdm");
    d642:	4886      	ldr	r0, [pc, #536]	; (d85c <main+0x298>)
    d644:	f014 fa20 	bl	21a88 <printk>
        }

        enabled = nrfx_pdm_enable_check();
    d648:	f7ff feac 	bl	d3a4 <nrfx_pdm_enable_check>
    d64c:	4603      	mov	r3, r0
    d64e:	f887 3187 	strb.w	r3, [r7, #391]	; 0x187


	printk("HTTPS client sample started\n\r");
    d652:	4883      	ldr	r0, [pc, #524]	; (d860 <main+0x29c>)
    d654:	f014 fa18 	bl	21a88 <printk>

	err = bsdlib_init();
    d658:	f019 fb53 	bl	26d02 <bsdlib_init>
    d65c:	f8c7 0174 	str.w	r0, [r7, #372]	; 0x174
	if (err) {
    d660:	f8d7 3174 	ldr.w	r3, [r7, #372]	; 0x174
    d664:	2b00      	cmp	r3, #0
    d666:	d003      	beq.n	d670 <main+0xac>
		printk("Failed to initialize bsdlib!");
    d668:	487e      	ldr	r0, [pc, #504]	; (d864 <main+0x2a0>)
    d66a:	f014 fa0d 	bl	21a88 <printk>
		return;
    d66e:	e0e6      	b.n	d83e <main+0x27a>
	}

	/* Initialize AT comms in order to provision the certificate */
	err = at_comms_init();
    d670:	f7ff fea2 	bl	d3b8 <at_comms_init>
    d674:	f8c7 0174 	str.w	r0, [r7, #372]	; 0x174
	if (err) {
    d678:	f8d7 3174 	ldr.w	r3, [r7, #372]	; 0x174
    d67c:	2b00      	cmp	r3, #0
    d67e:	f040 80db 	bne.w	d838 <main+0x274>
		return;
	}

	/* Provision certificates before connecting to the LTE network */
	err = cert_provision();
    d682:	f7ff febd 	bl	d400 <cert_provision>
    d686:	f8c7 0174 	str.w	r0, [r7, #372]	; 0x174
	if (err) {
    d68a:	f8d7 3174 	ldr.w	r3, [r7, #372]	; 0x174
    d68e:	2b00      	cmp	r3, #0
    d690:	f040 80d4 	bne.w	d83c <main+0x278>
		return;
	}

	printk("Waiting for network.. ");
    d694:	4874      	ldr	r0, [pc, #464]	; (d868 <main+0x2a4>)
    d696:	f014 f9f7 	bl	21a88 <printk>
	err = lte_lc_init_and_connect();
    d69a:	f01c f87a 	bl	29792 <lte_lc_init_and_connect>
    d69e:	f8c7 0174 	str.w	r0, [r7, #372]	; 0x174
	if (err) {
    d6a2:	f8d7 3174 	ldr.w	r3, [r7, #372]	; 0x174
    d6a6:	2b00      	cmp	r3, #0
    d6a8:	d005      	beq.n	d6b6 <main+0xf2>
		printk("Failed to connect to the LTE network, err %d\n", err);
    d6aa:	f8d7 1174 	ldr.w	r1, [r7, #372]	; 0x174
    d6ae:	486f      	ldr	r0, [pc, #444]	; (d86c <main+0x2a8>)
    d6b0:	f014 f9ea 	bl	21a88 <printk>
		return;
    d6b4:	e0c3      	b.n	d83e <main+0x27a>
	}
	printk("OK\n");
    d6b6:	486e      	ldr	r0, [pc, #440]	; (d870 <main+0x2ac>)
    d6b8:	f014 f9e6 	bl	21a88 <printk>

	err = getaddrinfo("babysense.io", NULL, &hints, &res);
    d6bc:	f507 73b6 	add.w	r3, r7, #364	; 0x16c
    d6c0:	f507 728e 	add.w	r2, r7, #284	; 0x11c
    d6c4:	2100      	movs	r1, #0
    d6c6:	486b      	ldr	r0, [pc, #428]	; (d874 <main+0x2b0>)
    d6c8:	f014 f901 	bl	218ce <getaddrinfo>
    d6cc:	f8c7 0174 	str.w	r0, [r7, #372]	; 0x174
	if (err) {
    d6d0:	f8d7 3174 	ldr.w	r3, [r7, #372]	; 0x174
    d6d4:	2b00      	cmp	r3, #0
    d6d6:	d008      	beq.n	d6ea <main+0x126>
		printk("getaddrinfo() failed, err %d\n", errno);
    d6d8:	f014 f8b2 	bl	21840 <z_errno>
    d6dc:	4603      	mov	r3, r0
    d6de:	681b      	ldr	r3, [r3, #0]
    d6e0:	4619      	mov	r1, r3
    d6e2:	4865      	ldr	r0, [pc, #404]	; (d878 <main+0x2b4>)
    d6e4:	f014 f9d0 	bl	21a88 <printk>
		return;
    d6e8:	e0a9      	b.n	d83e <main+0x27a>
	}

        char hostString[12];
        sprintf(hostString,"%d.%d.%d.%d",res->ai_addr->data[2],res->ai_addr->data[3],res->ai_addr->data[4],res->ai_addr->data[5]);
    d6ea:	f8d7 316c 	ldr.w	r3, [r7, #364]	; 0x16c
    d6ee:	699b      	ldr	r3, [r3, #24]
    d6f0:	791b      	ldrb	r3, [r3, #4]
    d6f2:	4619      	mov	r1, r3
    d6f4:	f8d7 316c 	ldr.w	r3, [r7, #364]	; 0x16c
    d6f8:	699b      	ldr	r3, [r3, #24]
    d6fa:	795b      	ldrb	r3, [r3, #5]
    d6fc:	461c      	mov	r4, r3
    d6fe:	f8d7 316c 	ldr.w	r3, [r7, #364]	; 0x16c
    d702:	699b      	ldr	r3, [r3, #24]
    d704:	799b      	ldrb	r3, [r3, #6]
    d706:	461a      	mov	r2, r3
    d708:	f8d7 316c 	ldr.w	r3, [r7, #364]	; 0x16c
    d70c:	699b      	ldr	r3, [r3, #24]
    d70e:	79db      	ldrb	r3, [r3, #7]
    d710:	f507 7082 	add.w	r0, r7, #260	; 0x104
    d714:	9301      	str	r3, [sp, #4]
    d716:	9200      	str	r2, [sp, #0]
    d718:	4623      	mov	r3, r4
    d71a:	460a      	mov	r2, r1
    d71c:	4957      	ldr	r1, [pc, #348]	; (d87c <main+0x2b8>)
    d71e:	f003 f9db 	bl	10ad8 <sprintf>

	((struct sockaddr_in *)res->ai_addr)->sin_port = htons(HTTPS_PORT);
    d722:	f8d7 316c 	ldr.w	r3, [r7, #364]	; 0x16c
    d726:	699b      	ldr	r3, [r3, #24]
    d728:	f64b 3201 	movw	r2, #47873	; 0xbb01
    d72c:	805a      	strh	r2, [r3, #2]

	fd = socket(AF_INET, SOCK_STREAM, IPPROTO_TLS_1_2);
    d72e:	f44f 7281 	mov.w	r2, #258	; 0x102
    d732:	2101      	movs	r1, #1
    d734:	2001      	movs	r0, #1
    d736:	f014 f88a 	bl	2184e <socket>
    d73a:	f8c7 0170 	str.w	r0, [r7, #368]	; 0x170
	if (fd == -1) {
    d73e:	f8d7 3170 	ldr.w	r3, [r7, #368]	; 0x170
    d742:	f1b3 3fff 	cmp.w	r3, #4294967295
    d746:	d103      	bne.n	d750 <main+0x18c>
		printk("Failed to open socket!\n");
    d748:	484d      	ldr	r0, [pc, #308]	; (d880 <main+0x2bc>)
    d74a:	f014 f99d 	bl	21a88 <printk>
		goto clean_up;
    d74e:	e069      	b.n	d824 <main+0x260>
	}

	/* Setup TLS socket options */
	err = tls_setup(fd);
    d750:	f8d7 0170 	ldr.w	r0, [r7, #368]	; 0x170
    d754:	f7ff fe9a 	bl	d48c <tls_setup>
    d758:	f8c7 0174 	str.w	r0, [r7, #372]	; 0x174
	if (err) {
    d75c:	f8d7 3174 	ldr.w	r3, [r7, #372]	; 0x174
    d760:	2b00      	cmp	r3, #0
    d762:	d15e      	bne.n	d822 <main+0x25e>
		goto clean_up;
	}

	printk("Connecting to %s\n", "babysense.io");
    d764:	4943      	ldr	r1, [pc, #268]	; (d874 <main+0x2b0>)
    d766:	4847      	ldr	r0, [pc, #284]	; (d884 <main+0x2c0>)
    d768:	f014 f98e 	bl	21a88 <printk>
	err = connect(fd, res->ai_addr, sizeof(struct sockaddr_in));
    d76c:	f8d7 316c 	ldr.w	r3, [r7, #364]	; 0x16c
    d770:	699b      	ldr	r3, [r3, #24]
    d772:	2208      	movs	r2, #8
    d774:	4619      	mov	r1, r3
    d776:	f8d7 0170 	ldr.w	r0, [r7, #368]	; 0x170
    d77a:	f014 f884 	bl	21886 <connect>
    d77e:	f8c7 0174 	str.w	r0, [r7, #372]	; 0x174
	if (err) {
    d782:	f8d7 3174 	ldr.w	r3, [r7, #372]	; 0x174
    d786:	2b00      	cmp	r3, #0
    d788:	d008      	beq.n	d79c <main+0x1d8>
		printk("connect() failed, err: %d\n", errno);
    d78a:	f014 f859 	bl	21840 <z_errno>
    d78e:	4603      	mov	r3, r0
    d790:	681b      	ldr	r3, [r3, #0]
    d792:	4619      	mov	r1, r3
    d794:	483c      	ldr	r0, [pc, #240]	; (d888 <main+0x2c4>)
    d796:	f014 f977 	bl	21a88 <printk>
		goto clean_up;
    d79a:	e043      	b.n	d824 <main+0x260>
	}

        if (fd >= 0) {
    d79c:	f8d7 3170 	ldr.w	r3, [r7, #368]	; 0x170
    d7a0:	2b00      	cmp	r3, #0
    d7a2:	db2e      	blt.n	d802 <main+0x23e>
		struct http_request req;

		memset(&req, 0, sizeof(req));
    d7a4:	463b      	mov	r3, r7
    d7a6:	f44f 7280 	mov.w	r2, #256	; 0x100
    d7aa:	2100      	movs	r1, #0
    d7ac:	4618      	mov	r0, r3
    d7ae:	f016 fcda 	bl	24166 <memset>

		req.method = HTTP_GET;
    d7b2:	463b      	mov	r3, r7
    d7b4:	2201      	movs	r2, #1
    d7b6:	f883 20c0 	strb.w	r2, [r3, #192]	; 0xc0
		req.url = "/weatherforecast";
    d7ba:	463b      	mov	r3, r7
    d7bc:	4a33      	ldr	r2, [pc, #204]	; (d88c <main+0x2c8>)
    d7be:	f8c3 20d4 	str.w	r2, [r3, #212]	; 0xd4
		req.host = hostString;
    d7c2:	463b      	mov	r3, r7
    d7c4:	f507 7282 	add.w	r2, r7, #260	; 0x104
    d7c8:	f8c3 20e4 	str.w	r2, [r3, #228]	; 0xe4
		req.protocol = "HTTP/1.1";
    d7cc:	463b      	mov	r3, r7
    d7ce:	4a30      	ldr	r2, [pc, #192]	; (d890 <main+0x2cc>)
    d7d0:	f8c3 20d8 	str.w	r2, [r3, #216]	; 0xd8
		req.response = response_cb;
    d7d4:	463b      	mov	r3, r7
    d7d6:	4a2f      	ldr	r2, [pc, #188]	; (d894 <main+0x2d0>)
    d7d8:	f8c3 20c4 	str.w	r2, [r3, #196]	; 0xc4
		req.recv_buf = recv_buf_ipv4;
    d7dc:	463b      	mov	r3, r7
    d7de:	4a2e      	ldr	r2, [pc, #184]	; (d898 <main+0x2d4>)
    d7e0:	f8c3 20cc 	str.w	r2, [r3, #204]	; 0xcc
		req.recv_buf_len = sizeof(recv_buf_ipv4);
    d7e4:	463b      	mov	r3, r7
    d7e6:	f44f 724b 	mov.w	r2, #812	; 0x32c
    d7ea:	f8c3 20d0 	str.w	r2, [r3, #208]	; 0xd0

		err = http_client_req(fd, &req, timeout, "IPv4 GET");
    d7ee:	4639      	mov	r1, r7
    d7f0:	4b2a      	ldr	r3, [pc, #168]	; (d89c <main+0x2d8>)
    d7f2:	f8d7 217c 	ldr.w	r2, [r7, #380]	; 0x17c
    d7f6:	f8d7 0170 	ldr.w	r0, [r7, #368]	; 0x170
    d7fa:	f005 ff65 	bl	136c8 <http_client_req>
    d7fe:	f8c7 0174 	str.w	r0, [r7, #372]	; 0x174


	}

	recv_buf_ipv4[MAX_RECV_BUF_LEN-1] = '\0';
    d802:	4b25      	ldr	r3, [pc, #148]	; (d898 <main+0x2d4>)
    d804:	2200      	movs	r2, #0
    d806:	f883 232b 	strb.w	r2, [r3, #811]	; 0x32b
	printk("%s\n\n", recv_buf_ipv4);
    d80a:	4923      	ldr	r1, [pc, #140]	; (d898 <main+0x2d4>)
    d80c:	4824      	ldr	r0, [pc, #144]	; (d8a0 <main+0x2dc>)
    d80e:	f014 f93b 	bl	21a88 <printk>


	printk("Finished, closing socket.\n");
    d812:	4824      	ldr	r0, [pc, #144]	; (d8a4 <main+0x2e0>)
    d814:	f014 f938 	bl	21a88 <printk>
        close(fd);
    d818:	f8d7 0170 	ldr.w	r0, [r7, #368]	; 0x170
    d81c:	f014 f827 	bl	2186e <close>
    d820:	e000      	b.n	d824 <main+0x260>
		goto clean_up;
    d822:	bf00      	nop

clean_up:
	freeaddrinfo(res);
    d824:	f8d7 316c 	ldr.w	r3, [r7, #364]	; 0x16c
    d828:	4618      	mov	r0, r3
    d82a:	f014 f862 	bl	218f2 <freeaddrinfo>
	(void)close(fd);
    d82e:	f8d7 0170 	ldr.w	r0, [r7, #368]	; 0x170
    d832:	f014 f81c 	bl	2186e <close>
    d836:	e002      	b.n	d83e <main+0x27a>
		return;
    d838:	bf00      	nop
    d83a:	e000      	b.n	d83e <main+0x27a>
		return;
    d83c:	bf00      	nop
}
    d83e:	f507 77c6 	add.w	r7, r7, #396	; 0x18c
    d842:	46bd      	mov	sp, r7
    d844:	bd90      	pop	{r4, r7, pc}
    d846:	bf00      	nop
    d848:	40026000 	.word	0x40026000
    d84c:	0002c9f4 	.word	0x0002c9f4
    d850:	0000d569 	.word	0x0000d569
    d854:	0bad0000 	.word	0x0bad0000
    d858:	0002c864 	.word	0x0002c864
    d85c:	0002c880 	.word	0x0002c880
    d860:	0002c894 	.word	0x0002c894
    d864:	0002c8b4 	.word	0x0002c8b4
    d868:	0002c8d4 	.word	0x0002c8d4
    d86c:	0002c8ec 	.word	0x0002c8ec
    d870:	0002c91c 	.word	0x0002c91c
    d874:	0002c920 	.word	0x0002c920
    d878:	0002c930 	.word	0x0002c930
    d87c:	0002c950 	.word	0x0002c950
    d880:	0002c95c 	.word	0x0002c95c
    d884:	0002c974 	.word	0x0002c974
    d888:	0002c988 	.word	0x0002c988
    d88c:	0002c9a4 	.word	0x0002c9a4
    d890:	0002c9b8 	.word	0x0002c9b8
    d894:	0000d515 	.word	0x0000d515
    d898:	20020248 	.word	0x20020248
    d89c:	0002c9c4 	.word	0x0002c9c4
    d8a0:	0002c9d0 	.word	0x0002c9d0
    d8a4:	0002c9d8 	.word	0x0002c9d8

0000d8a8 <_find_fd_entry>:
};

static K_MUTEX_DEFINE(fdtable_lock);

static int _find_fd_entry(void)
{
    d8a8:	b580      	push	{r7, lr}
    d8aa:	b082      	sub	sp, #8
    d8ac:	af00      	add	r7, sp, #0
	int fd;

	for (fd = 0; fd < ARRAY_SIZE(fdtable); fd++) {
    d8ae:	2300      	movs	r3, #0
    d8b0:	607b      	str	r3, [r7, #4]
    d8b2:	e00a      	b.n	d8ca <_find_fd_entry+0x22>
		if (fdtable[fd].obj == NULL) {
    d8b4:	4a0c      	ldr	r2, [pc, #48]	; (d8e8 <_find_fd_entry+0x40>)
    d8b6:	687b      	ldr	r3, [r7, #4]
    d8b8:	f852 3033 	ldr.w	r3, [r2, r3, lsl #3]
    d8bc:	2b00      	cmp	r3, #0
    d8be:	d101      	bne.n	d8c4 <_find_fd_entry+0x1c>
			return fd;
    d8c0:	687b      	ldr	r3, [r7, #4]
    d8c2:	e00c      	b.n	d8de <_find_fd_entry+0x36>
	for (fd = 0; fd < ARRAY_SIZE(fdtable); fd++) {
    d8c4:	687b      	ldr	r3, [r7, #4]
    d8c6:	3301      	adds	r3, #1
    d8c8:	607b      	str	r3, [r7, #4]
    d8ca:	687b      	ldr	r3, [r7, #4]
    d8cc:	2b03      	cmp	r3, #3
    d8ce:	ddf1      	ble.n	d8b4 <_find_fd_entry+0xc>
		}
	}

	errno = ENFILE;
    d8d0:	f014 f88b 	bl	219ea <z_errno>
    d8d4:	4602      	mov	r2, r0
    d8d6:	2317      	movs	r3, #23
    d8d8:	6013      	str	r3, [r2, #0]
	return -1;
    d8da:	f04f 33ff 	mov.w	r3, #4294967295
}
    d8de:	4618      	mov	r0, r3
    d8e0:	3708      	adds	r7, #8
    d8e2:	46bd      	mov	sp, r7
    d8e4:	bd80      	pop	{r7, pc}
    d8e6:	bf00      	nop
    d8e8:	20022574 	.word	0x20022574

0000d8ec <_check_fd>:

static int _check_fd(int fd)
{
    d8ec:	b580      	push	{r7, lr}
    d8ee:	b082      	sub	sp, #8
    d8f0:	af00      	add	r7, sp, #0
    d8f2:	6078      	str	r0, [r7, #4]
	if (fd < 0 || fd >= ARRAY_SIZE(fdtable)) {
    d8f4:	687b      	ldr	r3, [r7, #4]
    d8f6:	2b00      	cmp	r3, #0
    d8f8:	db02      	blt.n	d900 <_check_fd+0x14>
    d8fa:	687b      	ldr	r3, [r7, #4]
    d8fc:	2b03      	cmp	r3, #3
    d8fe:	dd07      	ble.n	d910 <_check_fd+0x24>
		errno = EBADF;
    d900:	f014 f873 	bl	219ea <z_errno>
    d904:	4602      	mov	r2, r0
    d906:	2309      	movs	r3, #9
    d908:	6013      	str	r3, [r2, #0]
		return -1;
    d90a:	f04f 33ff 	mov.w	r3, #4294967295
    d90e:	e015      	b.n	d93c <_check_fd+0x50>
	}

	fd = k_array_index_sanitize(fd, ARRAY_SIZE(fdtable));
    d910:	687b      	ldr	r3, [r7, #4]
    d912:	2104      	movs	r1, #4
    d914:	4618      	mov	r0, r3
    d916:	f014 f88b 	bl	21a30 <k_array_index_sanitize>
    d91a:	4603      	mov	r3, r0
    d91c:	607b      	str	r3, [r7, #4]

	if (fdtable[fd].obj == NULL) {
    d91e:	4a09      	ldr	r2, [pc, #36]	; (d944 <_check_fd+0x58>)
    d920:	687b      	ldr	r3, [r7, #4]
    d922:	f852 3033 	ldr.w	r3, [r2, r3, lsl #3]
    d926:	2b00      	cmp	r3, #0
    d928:	d107      	bne.n	d93a <_check_fd+0x4e>
		errno = EBADF;
    d92a:	f014 f85e 	bl	219ea <z_errno>
    d92e:	4602      	mov	r2, r0
    d930:	2309      	movs	r3, #9
    d932:	6013      	str	r3, [r2, #0]
		return -1;
    d934:	f04f 33ff 	mov.w	r3, #4294967295
    d938:	e000      	b.n	d93c <_check_fd+0x50>
	}

	return 0;
    d93a:	2300      	movs	r3, #0
}
    d93c:	4618      	mov	r0, r3
    d93e:	3708      	adds	r7, #8
    d940:	46bd      	mov	sp, r7
    d942:	bd80      	pop	{r7, pc}
    d944:	20022574 	.word	0x20022574

0000d948 <z_get_fd_obj>:

void *z_get_fd_obj(int fd, const struct fd_op_vtable *vtable, int err)
{
    d948:	b580      	push	{r7, lr}
    d94a:	b086      	sub	sp, #24
    d94c:	af00      	add	r7, sp, #0
    d94e:	60f8      	str	r0, [r7, #12]
    d950:	60b9      	str	r1, [r7, #8]
    d952:	607a      	str	r2, [r7, #4]
	struct fd_entry *fd_entry;

	if (_check_fd(fd) < 0) {
    d954:	68f8      	ldr	r0, [r7, #12]
    d956:	f7ff ffc9 	bl	d8ec <_check_fd>
    d95a:	4603      	mov	r3, r0
    d95c:	2b00      	cmp	r3, #0
    d95e:	da01      	bge.n	d964 <z_get_fd_obj+0x1c>
		return NULL;
    d960:	2300      	movs	r3, #0
    d962:	e015      	b.n	d990 <z_get_fd_obj+0x48>
	}

	fd_entry = &fdtable[fd];
    d964:	68fb      	ldr	r3, [r7, #12]
    d966:	00db      	lsls	r3, r3, #3
    d968:	4a0b      	ldr	r2, [pc, #44]	; (d998 <z_get_fd_obj+0x50>)
    d96a:	4413      	add	r3, r2
    d96c:	617b      	str	r3, [r7, #20]

	if (vtable != NULL && fd_entry->vtable != vtable) {
    d96e:	68bb      	ldr	r3, [r7, #8]
    d970:	2b00      	cmp	r3, #0
    d972:	d00b      	beq.n	d98c <z_get_fd_obj+0x44>
    d974:	697b      	ldr	r3, [r7, #20]
    d976:	685b      	ldr	r3, [r3, #4]
    d978:	68ba      	ldr	r2, [r7, #8]
    d97a:	429a      	cmp	r2, r3
    d97c:	d006      	beq.n	d98c <z_get_fd_obj+0x44>
		errno = err;
    d97e:	f014 f834 	bl	219ea <z_errno>
    d982:	4602      	mov	r2, r0
    d984:	687b      	ldr	r3, [r7, #4]
    d986:	6013      	str	r3, [r2, #0]
		return NULL;
    d988:	2300      	movs	r3, #0
    d98a:	e001      	b.n	d990 <z_get_fd_obj+0x48>
	}

	return fd_entry->obj;
    d98c:	697b      	ldr	r3, [r7, #20]
    d98e:	681b      	ldr	r3, [r3, #0]
}
    d990:	4618      	mov	r0, r3
    d992:	3718      	adds	r7, #24
    d994:	46bd      	mov	sp, r7
    d996:	bd80      	pop	{r7, pc}
    d998:	20022574 	.word	0x20022574

0000d99c <z_get_fd_obj_and_vtable>:

void *z_get_fd_obj_and_vtable(int fd, const struct fd_op_vtable **vtable)
{
    d99c:	b580      	push	{r7, lr}
    d99e:	b084      	sub	sp, #16
    d9a0:	af00      	add	r7, sp, #0
    d9a2:	6078      	str	r0, [r7, #4]
    d9a4:	6039      	str	r1, [r7, #0]
	struct fd_entry *fd_entry;

	if (_check_fd(fd) < 0) {
    d9a6:	6878      	ldr	r0, [r7, #4]
    d9a8:	f7ff ffa0 	bl	d8ec <_check_fd>
    d9ac:	4603      	mov	r3, r0
    d9ae:	2b00      	cmp	r3, #0
    d9b0:	da01      	bge.n	d9b6 <z_get_fd_obj_and_vtable+0x1a>
		return NULL;
    d9b2:	2300      	movs	r3, #0
    d9b4:	e00a      	b.n	d9cc <z_get_fd_obj_and_vtable+0x30>
	}

	fd_entry = &fdtable[fd];
    d9b6:	687b      	ldr	r3, [r7, #4]
    d9b8:	00db      	lsls	r3, r3, #3
    d9ba:	4a06      	ldr	r2, [pc, #24]	; (d9d4 <z_get_fd_obj_and_vtable+0x38>)
    d9bc:	4413      	add	r3, r2
    d9be:	60fb      	str	r3, [r7, #12]
	*vtable = fd_entry->vtable;
    d9c0:	68fb      	ldr	r3, [r7, #12]
    d9c2:	685a      	ldr	r2, [r3, #4]
    d9c4:	683b      	ldr	r3, [r7, #0]
    d9c6:	601a      	str	r2, [r3, #0]

	return fd_entry->obj;
    d9c8:	68fb      	ldr	r3, [r7, #12]
    d9ca:	681b      	ldr	r3, [r3, #0]
}
    d9cc:	4618      	mov	r0, r3
    d9ce:	3710      	adds	r7, #16
    d9d0:	46bd      	mov	sp, r7
    d9d2:	bd80      	pop	{r7, pc}
    d9d4:	20022574 	.word	0x20022574

0000d9d8 <z_reserve_fd>:

int z_reserve_fd(void)
{
    d9d8:	b590      	push	{r4, r7, lr}
    d9da:	b083      	sub	sp, #12
    d9dc:	af00      	add	r7, sp, #0
	int fd;

	(void)k_mutex_lock(&fdtable_lock, K_FOREVER);
    d9de:	f04f 33ff 	mov.w	r3, #4294967295
    d9e2:	f04f 34ff 	mov.w	r4, #4294967295
    d9e6:	461a      	mov	r2, r3
    d9e8:	4623      	mov	r3, r4
    d9ea:	480b      	ldr	r0, [pc, #44]	; (da18 <z_reserve_fd+0x40>)
    d9ec:	f014 f804 	bl	219f8 <k_mutex_lock>

	fd = _find_fd_entry();
    d9f0:	f7ff ff5a 	bl	d8a8 <_find_fd_entry>
    d9f4:	6078      	str	r0, [r7, #4]
	if (fd >= 0) {
    d9f6:	687b      	ldr	r3, [r7, #4]
    d9f8:	2b00      	cmp	r3, #0
    d9fa:	db04      	blt.n	da06 <z_reserve_fd+0x2e>
		/* Mark entry as used, z_finalize_fd() will fill it in. */
		fdtable[fd].obj = FD_OBJ_RESERVED;
    d9fc:	4a07      	ldr	r2, [pc, #28]	; (da1c <z_reserve_fd+0x44>)
    d9fe:	687b      	ldr	r3, [r7, #4]
    da00:	2101      	movs	r1, #1
    da02:	f842 1033 	str.w	r1, [r2, r3, lsl #3]
	}

	k_mutex_unlock(&fdtable_lock);
    da06:	4804      	ldr	r0, [pc, #16]	; (da18 <z_reserve_fd+0x40>)
    da08:	f014 f806 	bl	21a18 <k_mutex_unlock>

	return fd;
    da0c:	687b      	ldr	r3, [r7, #4]
}
    da0e:	4618      	mov	r0, r3
    da10:	370c      	adds	r7, #12
    da12:	46bd      	mov	sp, r7
    da14:	bd90      	pop	{r4, r7, pc}
    da16:	bf00      	nop
    da18:	20020190 	.word	0x20020190
    da1c:	20022574 	.word	0x20022574

0000da20 <z_finalize_fd>:

void z_finalize_fd(int fd, void *obj, const struct fd_op_vtable *vtable)
{
    da20:	b480      	push	{r7}
    da22:	b085      	sub	sp, #20
    da24:	af00      	add	r7, sp, #0
    da26:	60f8      	str	r0, [r7, #12]
    da28:	60b9      	str	r1, [r7, #8]
    da2a:	607a      	str	r2, [r7, #4]
	/* Assumes fd was already bounds-checked. */
	fdtable[fd].obj = obj;
    da2c:	4908      	ldr	r1, [pc, #32]	; (da50 <z_finalize_fd+0x30>)
    da2e:	68fb      	ldr	r3, [r7, #12]
    da30:	68ba      	ldr	r2, [r7, #8]
    da32:	f841 2033 	str.w	r2, [r1, r3, lsl #3]
	fdtable[fd].vtable = vtable;
    da36:	4a06      	ldr	r2, [pc, #24]	; (da50 <z_finalize_fd+0x30>)
    da38:	68fb      	ldr	r3, [r7, #12]
    da3a:	00db      	lsls	r3, r3, #3
    da3c:	4413      	add	r3, r2
    da3e:	687a      	ldr	r2, [r7, #4]
    da40:	605a      	str	r2, [r3, #4]
}
    da42:	bf00      	nop
    da44:	3714      	adds	r7, #20
    da46:	46bd      	mov	sp, r7
    da48:	f85d 7b04 	ldr.w	r7, [sp], #4
    da4c:	4770      	bx	lr
    da4e:	bf00      	nop
    da50:	20022574 	.word	0x20022574

0000da54 <z_free_fd>:

void z_free_fd(int fd)
{
    da54:	b480      	push	{r7}
    da56:	b083      	sub	sp, #12
    da58:	af00      	add	r7, sp, #0
    da5a:	6078      	str	r0, [r7, #4]
	/* Assumes fd was already bounds-checked. */
	fdtable[fd].obj = NULL;
    da5c:	4a05      	ldr	r2, [pc, #20]	; (da74 <z_free_fd+0x20>)
    da5e:	687b      	ldr	r3, [r7, #4]
    da60:	2100      	movs	r1, #0
    da62:	f842 1033 	str.w	r1, [r2, r3, lsl #3]
}
    da66:	bf00      	nop
    da68:	370c      	adds	r7, #12
    da6a:	46bd      	mov	sp, r7
    da6c:	f85d 7b04 	ldr.w	r7, [sp], #4
    da70:	4770      	bx	lr
    da72:	bf00      	nop
    da74:	20022574 	.word	0x20022574

0000da78 <__printk_hook_install>:
 * @param fn putc routine to install
 *
 * @return N/A
 */
void __printk_hook_install(int (*fn)(int))
{
    da78:	b480      	push	{r7}
    da7a:	b083      	sub	sp, #12
    da7c:	af00      	add	r7, sp, #0
    da7e:	6078      	str	r0, [r7, #4]
	_char_out = fn;
    da80:	4a04      	ldr	r2, [pc, #16]	; (da94 <__printk_hook_install+0x1c>)
    da82:	687b      	ldr	r3, [r7, #4]
    da84:	6013      	str	r3, [r2, #0]
}
    da86:	bf00      	nop
    da88:	370c      	adds	r7, #12
    da8a:	46bd      	mov	sp, r7
    da8c:	f85d 7b04 	ldr.w	r7, [sp], #4
    da90:	4770      	bx	lr
    da92:	bf00      	nop
    da94:	20020000 	.word	0x20020000

0000da98 <z_vprintk>:
 * @param ap Variable parameters
 *
 * @return N/A
 */
void z_vprintk(out_func_t out, void *ctx, const char *fmt, va_list ap)
{
    da98:	b590      	push	{r4, r7, lr}
    da9a:	b097      	sub	sp, #92	; 0x5c
    da9c:	af02      	add	r7, sp, #8
    da9e:	60f8      	str	r0, [r7, #12]
    daa0:	60b9      	str	r1, [r7, #8]
    daa2:	607a      	str	r2, [r7, #4]
    daa4:	603b      	str	r3, [r7, #0]
	int might_format = 0; /* 1 if encountered a '%' */
    daa6:	2300      	movs	r3, #0
    daa8:	64fb      	str	r3, [r7, #76]	; 0x4c
	enum pad_type padding = PAD_NONE;
    daaa:	2300      	movs	r3, #0
    daac:	f887 304b 	strb.w	r3, [r7, #75]	; 0x4b
	int min_width = -1;
    dab0:	f04f 33ff 	mov.w	r3, #4294967295
    dab4:	647b      	str	r3, [r7, #68]	; 0x44
	char length_mod = 0;
    dab6:	2300      	movs	r3, #0
    dab8:	f887 3043 	strb.w	r3, [r7, #67]	; 0x43

	/* fmt has already been adjusted if needed */

	while (*fmt) {
    dabc:	e25b      	b.n	df76 <z_vprintk+0x4de>
		if (!might_format) {
    dabe:	6cfb      	ldr	r3, [r7, #76]	; 0x4c
    dac0:	2b00      	cmp	r3, #0
    dac2:	d117      	bne.n	daf4 <z_vprintk+0x5c>
			if (*fmt != '%') {
    dac4:	687b      	ldr	r3, [r7, #4]
    dac6:	781b      	ldrb	r3, [r3, #0]
    dac8:	2b25      	cmp	r3, #37	; 0x25
    daca:	d007      	beq.n	dadc <z_vprintk+0x44>
				out((int)*fmt, ctx);
    dacc:	687b      	ldr	r3, [r7, #4]
    dace:	781b      	ldrb	r3, [r3, #0]
    dad0:	461a      	mov	r2, r3
    dad2:	68fb      	ldr	r3, [r7, #12]
    dad4:	68b9      	ldr	r1, [r7, #8]
    dad6:	4610      	mov	r0, r2
    dad8:	4798      	blx	r3
    dada:	e249      	b.n	df70 <z_vprintk+0x4d8>
			} else {
				might_format = 1;
    dadc:	2301      	movs	r3, #1
    dade:	64fb      	str	r3, [r7, #76]	; 0x4c
				min_width = -1;
    dae0:	f04f 33ff 	mov.w	r3, #4294967295
    dae4:	647b      	str	r3, [r7, #68]	; 0x44
				padding = PAD_NONE;
    dae6:	2300      	movs	r3, #0
    dae8:	f887 304b 	strb.w	r3, [r7, #75]	; 0x4b
				length_mod = 0;
    daec:	2300      	movs	r3, #0
    daee:	f887 3043 	strb.w	r3, [r7, #67]	; 0x43
    daf2:	e23d      	b.n	df70 <z_vprintk+0x4d8>
			}
		} else {
			switch (*fmt) {
    daf4:	687b      	ldr	r3, [r7, #4]
    daf6:	781b      	ldrb	r3, [r3, #0]
    daf8:	3b25      	subs	r3, #37	; 0x25
    dafa:	2b55      	cmp	r3, #85	; 0x55
    dafc:	f200 8227 	bhi.w	df4e <z_vprintk+0x4b6>
    db00:	a201      	add	r2, pc, #4	; (adr r2, db08 <z_vprintk+0x70>)
    db02:	f852 f023 	ldr.w	pc, [r2, r3, lsl #2]
    db06:	bf00      	nop
    db08:	0000df45 	.word	0x0000df45
    db0c:	0000df4f 	.word	0x0000df4f
    db10:	0000df4f 	.word	0x0000df4f
    db14:	0000df4f 	.word	0x0000df4f
    db18:	0000df4f 	.word	0x0000df4f
    db1c:	0000df4f 	.word	0x0000df4f
    db20:	0000df4f 	.word	0x0000df4f
    db24:	0000df4f 	.word	0x0000df4f
    db28:	0000dc61 	.word	0x0000dc61
    db2c:	0000df4f 	.word	0x0000df4f
    db30:	0000df4f 	.word	0x0000df4f
    db34:	0000dc69 	.word	0x0000dc69
    db38:	0000dc7f 	.word	0x0000dc7f
    db3c:	0000dc7f 	.word	0x0000dc7f
    db40:	0000dc7f 	.word	0x0000dc7f
    db44:	0000dc7f 	.word	0x0000dc7f
    db48:	0000dc7f 	.word	0x0000dc7f
    db4c:	0000dc7f 	.word	0x0000dc7f
    db50:	0000dc7f 	.word	0x0000dc7f
    db54:	0000dc7f 	.word	0x0000dc7f
    db58:	0000dc7f 	.word	0x0000dc7f
    db5c:	0000df4f 	.word	0x0000df4f
    db60:	0000df4f 	.word	0x0000df4f
    db64:	0000df4f 	.word	0x0000df4f
    db68:	0000df4f 	.word	0x0000df4f
    db6c:	0000df4f 	.word	0x0000df4f
    db70:	0000df4f 	.word	0x0000df4f
    db74:	0000df4f 	.word	0x0000df4f
    db78:	0000df4f 	.word	0x0000df4f
    db7c:	0000df4f 	.word	0x0000df4f
    db80:	0000df4f 	.word	0x0000df4f
    db84:	0000df4f 	.word	0x0000df4f
    db88:	0000df4f 	.word	0x0000df4f
    db8c:	0000df4f 	.word	0x0000df4f
    db90:	0000df4f 	.word	0x0000df4f
    db94:	0000df4f 	.word	0x0000df4f
    db98:	0000df4f 	.word	0x0000df4f
    db9c:	0000df4f 	.word	0x0000df4f
    dba0:	0000df4f 	.word	0x0000df4f
    dba4:	0000df4f 	.word	0x0000df4f
    dba8:	0000df4f 	.word	0x0000df4f
    dbac:	0000df4f 	.word	0x0000df4f
    dbb0:	0000df4f 	.word	0x0000df4f
    dbb4:	0000df4f 	.word	0x0000df4f
    dbb8:	0000df4f 	.word	0x0000df4f
    dbbc:	0000df4f 	.word	0x0000df4f
    dbc0:	0000df4f 	.word	0x0000df4f
    dbc4:	0000df4f 	.word	0x0000df4f
    dbc8:	0000df4f 	.word	0x0000df4f
    dbcc:	0000df4f 	.word	0x0000df4f
    dbd0:	0000df4f 	.word	0x0000df4f
    dbd4:	0000de61 	.word	0x0000de61
    dbd8:	0000df4f 	.word	0x0000df4f
    dbdc:	0000df4f 	.word	0x0000df4f
    dbe0:	0000df4f 	.word	0x0000df4f
    dbe4:	0000df4f 	.word	0x0000df4f
    dbe8:	0000df4f 	.word	0x0000df4f
    dbec:	0000df4f 	.word	0x0000df4f
    dbf0:	0000df4f 	.word	0x0000df4f
    dbf4:	0000df4f 	.word	0x0000df4f
    dbf8:	0000df4f 	.word	0x0000df4f
    dbfc:	0000df4f 	.word	0x0000df4f
    dc00:	0000df31 	.word	0x0000df31
    dc04:	0000dd13 	.word	0x0000dd13
    dc08:	0000df4f 	.word	0x0000df4f
    dc0c:	0000df4f 	.word	0x0000df4f
    dc10:	0000df4f 	.word	0x0000df4f
    dc14:	0000dcb7 	.word	0x0000dcb7
    dc18:	0000dd13 	.word	0x0000dd13
    dc1c:	0000df4f 	.word	0x0000df4f
    dc20:	0000df4f 	.word	0x0000df4f
    dc24:	0000dcb7 	.word	0x0000dcb7
    dc28:	0000df4f 	.word	0x0000df4f
    dc2c:	0000df4f 	.word	0x0000df4f
    dc30:	0000df4f 	.word	0x0000df4f
    dc34:	0000de47 	.word	0x0000de47
    dc38:	0000df4f 	.word	0x0000df4f
    dc3c:	0000df4f 	.word	0x0000df4f
    dc40:	0000dedd 	.word	0x0000dedd
    dc44:	0000df4f 	.word	0x0000df4f
    dc48:	0000ddc5 	.word	0x0000ddc5
    dc4c:	0000df4f 	.word	0x0000df4f
    dc50:	0000df4f 	.word	0x0000df4f
    dc54:	0000de61 	.word	0x0000de61
    dc58:	0000df4f 	.word	0x0000df4f
    dc5c:	0000dcb7 	.word	0x0000dcb7
			case '-':
				padding = PAD_SPACE_AFTER;
    dc60:	2303      	movs	r3, #3
    dc62:	f887 304b 	strb.w	r3, [r7, #75]	; 0x4b
				goto still_might_format;
    dc66:	e183      	b.n	df70 <z_vprintk+0x4d8>
			case '0':
				if (min_width < 0 && padding == PAD_NONE) {
    dc68:	6c7b      	ldr	r3, [r7, #68]	; 0x44
    dc6a:	2b00      	cmp	r3, #0
    dc6c:	da07      	bge.n	dc7e <z_vprintk+0x1e6>
    dc6e:	f897 304b 	ldrb.w	r3, [r7, #75]	; 0x4b
    dc72:	2b00      	cmp	r3, #0
    dc74:	d103      	bne.n	dc7e <z_vprintk+0x1e6>
					padding = PAD_ZERO_BEFORE;
    dc76:	2301      	movs	r3, #1
    dc78:	f887 304b 	strb.w	r3, [r7, #75]	; 0x4b
					goto still_might_format;
    dc7c:	e178      	b.n	df70 <z_vprintk+0x4d8>
			case '6':
			case '7':
			case '8':
				/* Fall through */
			case '9':
				if (min_width < 0) {
    dc7e:	6c7b      	ldr	r3, [r7, #68]	; 0x44
    dc80:	2b00      	cmp	r3, #0
    dc82:	da04      	bge.n	dc8e <z_vprintk+0x1f6>
					min_width = *fmt - '0';
    dc84:	687b      	ldr	r3, [r7, #4]
    dc86:	781b      	ldrb	r3, [r3, #0]
    dc88:	3b30      	subs	r3, #48	; 0x30
    dc8a:	647b      	str	r3, [r7, #68]	; 0x44
    dc8c:	e00a      	b.n	dca4 <z_vprintk+0x20c>
				} else {
					min_width = 10 * min_width + *fmt - '0';
    dc8e:	6c7a      	ldr	r2, [r7, #68]	; 0x44
    dc90:	4613      	mov	r3, r2
    dc92:	009b      	lsls	r3, r3, #2
    dc94:	4413      	add	r3, r2
    dc96:	005b      	lsls	r3, r3, #1
    dc98:	461a      	mov	r2, r3
    dc9a:	687b      	ldr	r3, [r7, #4]
    dc9c:	781b      	ldrb	r3, [r3, #0]
    dc9e:	4413      	add	r3, r2
    dca0:	3b30      	subs	r3, #48	; 0x30
    dca2:	647b      	str	r3, [r7, #68]	; 0x44
				}

				if (padding == PAD_NONE) {
    dca4:	f897 304b 	ldrb.w	r3, [r7, #75]	; 0x4b
    dca8:	2b00      	cmp	r3, #0
    dcaa:	f040 8160 	bne.w	df6e <z_vprintk+0x4d6>
					padding = PAD_SPACE_BEFORE;
    dcae:	2302      	movs	r3, #2
    dcb0:	f887 304b 	strb.w	r3, [r7, #75]	; 0x4b
				}
				goto still_might_format;
    dcb4:	e15b      	b.n	df6e <z_vprintk+0x4d6>
			case 'h':
			case 'l':
			case 'z':
				if (*fmt == 'h' && length_mod == 'h') {
    dcb6:	687b      	ldr	r3, [r7, #4]
    dcb8:	781b      	ldrb	r3, [r3, #0]
    dcba:	2b68      	cmp	r3, #104	; 0x68
    dcbc:	d107      	bne.n	dcce <z_vprintk+0x236>
    dcbe:	f897 3043 	ldrb.w	r3, [r7, #67]	; 0x43
    dcc2:	2b68      	cmp	r3, #104	; 0x68
    dcc4:	d103      	bne.n	dcce <z_vprintk+0x236>
					length_mod = 'H';
    dcc6:	2348      	movs	r3, #72	; 0x48
    dcc8:	f887 3043 	strb.w	r3, [r7, #67]	; 0x43
    dccc:	e020      	b.n	dd10 <z_vprintk+0x278>
				} else if (*fmt == 'l' && length_mod == 'l') {
    dcce:	687b      	ldr	r3, [r7, #4]
    dcd0:	781b      	ldrb	r3, [r3, #0]
    dcd2:	2b6c      	cmp	r3, #108	; 0x6c
    dcd4:	d107      	bne.n	dce6 <z_vprintk+0x24e>
    dcd6:	f897 3043 	ldrb.w	r3, [r7, #67]	; 0x43
    dcda:	2b6c      	cmp	r3, #108	; 0x6c
    dcdc:	d103      	bne.n	dce6 <z_vprintk+0x24e>
					length_mod = 'L';
    dcde:	234c      	movs	r3, #76	; 0x4c
    dce0:	f887 3043 	strb.w	r3, [r7, #67]	; 0x43
    dce4:	e014      	b.n	dd10 <z_vprintk+0x278>
				} else if (length_mod == 0) {
    dce6:	f897 3043 	ldrb.w	r3, [r7, #67]	; 0x43
    dcea:	2b00      	cmp	r3, #0
    dcec:	d104      	bne.n	dcf8 <z_vprintk+0x260>
					length_mod = *fmt;
    dcee:	687b      	ldr	r3, [r7, #4]
    dcf0:	781b      	ldrb	r3, [r3, #0]
    dcf2:	f887 3043 	strb.w	r3, [r7, #67]	; 0x43
				} else {
					out((int)'%', ctx);
					out((int)*fmt, ctx);
					break;
				}
				goto still_might_format;
    dcf6:	e13b      	b.n	df70 <z_vprintk+0x4d8>
					out((int)'%', ctx);
    dcf8:	68fb      	ldr	r3, [r7, #12]
    dcfa:	68b9      	ldr	r1, [r7, #8]
    dcfc:	2025      	movs	r0, #37	; 0x25
    dcfe:	4798      	blx	r3
					out((int)*fmt, ctx);
    dd00:	687b      	ldr	r3, [r7, #4]
    dd02:	781b      	ldrb	r3, [r3, #0]
    dd04:	461a      	mov	r2, r3
    dd06:	68fb      	ldr	r3, [r7, #12]
    dd08:	68b9      	ldr	r1, [r7, #8]
    dd0a:	4610      	mov	r0, r2
    dd0c:	4798      	blx	r3
					break;
    dd0e:	e12b      	b.n	df68 <z_vprintk+0x4d0>
				goto still_might_format;
    dd10:	e12e      	b.n	df70 <z_vprintk+0x4d8>
			case 'd':
			case 'i': {
				long d;

				if (length_mod == 'z') {
    dd12:	f897 3043 	ldrb.w	r3, [r7, #67]	; 0x43
    dd16:	2b7a      	cmp	r3, #122	; 0x7a
    dd18:	d105      	bne.n	dd26 <z_vprintk+0x28e>
					d = va_arg(ap, ssize_t);
    dd1a:	683b      	ldr	r3, [r7, #0]
    dd1c:	1d1a      	adds	r2, r3, #4
    dd1e:	603a      	str	r2, [r7, #0]
    dd20:	681b      	ldr	r3, [r3, #0]
    dd22:	63fb      	str	r3, [r7, #60]	; 0x3c
    dd24:	e036      	b.n	dd94 <z_vprintk+0x2fc>
				} else if (length_mod == 'l') {
    dd26:	f897 3043 	ldrb.w	r3, [r7, #67]	; 0x43
    dd2a:	2b6c      	cmp	r3, #108	; 0x6c
    dd2c:	d105      	bne.n	dd3a <z_vprintk+0x2a2>
					d = va_arg(ap, long);
    dd2e:	683b      	ldr	r3, [r7, #0]
    dd30:	1d1a      	adds	r2, r3, #4
    dd32:	603a      	str	r2, [r7, #0]
    dd34:	681b      	ldr	r3, [r3, #0]
    dd36:	63fb      	str	r3, [r7, #60]	; 0x3c
    dd38:	e02c      	b.n	dd94 <z_vprintk+0x2fc>
				} else if (length_mod == 'L') {
    dd3a:	f897 3043 	ldrb.w	r3, [r7, #67]	; 0x43
    dd3e:	2b4c      	cmp	r3, #76	; 0x4c
    dd40:	d123      	bne.n	dd8a <z_vprintk+0x2f2>
					long long lld = va_arg(ap, long long);
    dd42:	683b      	ldr	r3, [r7, #0]
    dd44:	3307      	adds	r3, #7
    dd46:	f023 0307 	bic.w	r3, r3, #7
    dd4a:	f103 0208 	add.w	r2, r3, #8
    dd4e:	603a      	str	r2, [r7, #0]
    dd50:	e9d3 3400 	ldrd	r3, r4, [r3]
    dd54:	e9c7 3408 	strd	r3, r4, [r7, #32]
					if (lld > __LONG_MAX__ ||
    dd58:	e9d7 3408 	ldrd	r3, r4, [r7, #32]
    dd5c:	f06f 4100 	mvn.w	r1, #2147483648	; 0x80000000
    dd60:	f04f 0200 	mov.w	r2, #0
    dd64:	4299      	cmp	r1, r3
    dd66:	eb72 0304 	sbcs.w	r3, r2, r4
    dd6a:	db06      	blt.n	dd7a <z_vprintk+0x2e2>
    dd6c:	e9d7 3408 	ldrd	r3, r4, [r7, #32]
    dd70:	f1b3 4f00 	cmp.w	r3, #2147483648	; 0x80000000
    dd74:	f174 33ff 	sbcs.w	r3, r4, #4294967295
    dd78:	da04      	bge.n	dd84 <z_vprintk+0x2ec>
					    lld < ~__LONG_MAX__) {
						print_err(out, ctx);
    dd7a:	68b9      	ldr	r1, [r7, #8]
    dd7c:	68f8      	ldr	r0, [r7, #12]
    dd7e:	f013 fe6e 	bl	21a5e <print_err>
						break;
    dd82:	e0f1      	b.n	df68 <z_vprintk+0x4d0>
					}
					d = lld;
    dd84:	6a3b      	ldr	r3, [r7, #32]
    dd86:	63fb      	str	r3, [r7, #60]	; 0x3c
    dd88:	e004      	b.n	dd94 <z_vprintk+0x2fc>
				} else {
					d = va_arg(ap, int);
    dd8a:	683b      	ldr	r3, [r7, #0]
    dd8c:	1d1a      	adds	r2, r3, #4
    dd8e:	603a      	str	r2, [r7, #0]
    dd90:	681b      	ldr	r3, [r3, #0]
    dd92:	63fb      	str	r3, [r7, #60]	; 0x3c
				}

				if (d < 0) {
    dd94:	6bfb      	ldr	r3, [r7, #60]	; 0x3c
    dd96:	2b00      	cmp	r3, #0
    dd98:	da09      	bge.n	ddae <z_vprintk+0x316>
					out((int)'-', ctx);
    dd9a:	68fb      	ldr	r3, [r7, #12]
    dd9c:	68b9      	ldr	r1, [r7, #8]
    dd9e:	202d      	movs	r0, #45	; 0x2d
    dda0:	4798      	blx	r3
					d = -d;
    dda2:	6bfb      	ldr	r3, [r7, #60]	; 0x3c
    dda4:	425b      	negs	r3, r3
    dda6:	63fb      	str	r3, [r7, #60]	; 0x3c
					min_width--;
    dda8:	6c7b      	ldr	r3, [r7, #68]	; 0x44
    ddaa:	3b01      	subs	r3, #1
    ddac:	647b      	str	r3, [r7, #68]	; 0x44
				}
				_printk_dec_ulong(out, ctx, d, padding,
    ddae:	6bfa      	ldr	r2, [r7, #60]	; 0x3c
    ddb0:	f897 104b 	ldrb.w	r1, [r7, #75]	; 0x4b
    ddb4:	6c7b      	ldr	r3, [r7, #68]	; 0x44
    ddb6:	9300      	str	r3, [sp, #0]
    ddb8:	460b      	mov	r3, r1
    ddba:	68b9      	ldr	r1, [r7, #8]
    ddbc:	68f8      	ldr	r0, [r7, #12]
    ddbe:	f000 f90f 	bl	dfe0 <_printk_dec_ulong>
						  min_width);
				break;
    ddc2:	e0d1      	b.n	df68 <z_vprintk+0x4d0>
			}
			case 'u': {
				unsigned long u;

				if (length_mod == 'z') {
    ddc4:	f897 3043 	ldrb.w	r3, [r7, #67]	; 0x43
    ddc8:	2b7a      	cmp	r3, #122	; 0x7a
    ddca:	d105      	bne.n	ddd8 <z_vprintk+0x340>
					u = va_arg(ap, size_t);
    ddcc:	683b      	ldr	r3, [r7, #0]
    ddce:	1d1a      	adds	r2, r3, #4
    ddd0:	603a      	str	r2, [r7, #0]
    ddd2:	681b      	ldr	r3, [r3, #0]
    ddd4:	63bb      	str	r3, [r7, #56]	; 0x38
    ddd6:	e02b      	b.n	de30 <z_vprintk+0x398>
				} else if (length_mod == 'l') {
    ddd8:	f897 3043 	ldrb.w	r3, [r7, #67]	; 0x43
    dddc:	2b6c      	cmp	r3, #108	; 0x6c
    ddde:	d105      	bne.n	ddec <z_vprintk+0x354>
					u = va_arg(ap, unsigned long);
    dde0:	683b      	ldr	r3, [r7, #0]
    dde2:	1d1a      	adds	r2, r3, #4
    dde4:	603a      	str	r2, [r7, #0]
    dde6:	681b      	ldr	r3, [r3, #0]
    dde8:	63bb      	str	r3, [r7, #56]	; 0x38
    ddea:	e021      	b.n	de30 <z_vprintk+0x398>
				} else if (length_mod == 'L') {
    ddec:	f897 3043 	ldrb.w	r3, [r7, #67]	; 0x43
    ddf0:	2b4c      	cmp	r3, #76	; 0x4c
    ddf2:	d118      	bne.n	de26 <z_vprintk+0x38e>
					unsigned long long llu =
    ddf4:	683b      	ldr	r3, [r7, #0]
    ddf6:	3307      	adds	r3, #7
    ddf8:	f023 0307 	bic.w	r3, r3, #7
    ddfc:	f103 0208 	add.w	r2, r3, #8
    de00:	603a      	str	r2, [r7, #0]
    de02:	e9d3 3400 	ldrd	r3, r4, [r3]
    de06:	e9c7 3406 	strd	r3, r4, [r7, #24]
						va_arg(ap, unsigned long long);
					if (llu > ~0UL) {
    de0a:	e9d7 3406 	ldrd	r3, r4, [r7, #24]
    de0e:	2c01      	cmp	r4, #1
    de10:	bf08      	it	eq
    de12:	2b00      	cmpeq	r3, #0
    de14:	d304      	bcc.n	de20 <z_vprintk+0x388>
						print_err(out, ctx);
    de16:	68b9      	ldr	r1, [r7, #8]
    de18:	68f8      	ldr	r0, [r7, #12]
    de1a:	f013 fe20 	bl	21a5e <print_err>
						break;
    de1e:	e0a3      	b.n	df68 <z_vprintk+0x4d0>
					}
					u = llu;
    de20:	69bb      	ldr	r3, [r7, #24]
    de22:	63bb      	str	r3, [r7, #56]	; 0x38
    de24:	e004      	b.n	de30 <z_vprintk+0x398>
				} else {
					u = va_arg(ap, unsigned int);
    de26:	683b      	ldr	r3, [r7, #0]
    de28:	1d1a      	adds	r2, r3, #4
    de2a:	603a      	str	r2, [r7, #0]
    de2c:	681b      	ldr	r3, [r3, #0]
    de2e:	63bb      	str	r3, [r7, #56]	; 0x38
				}

				_printk_dec_ulong(out, ctx, u, padding,
    de30:	f897 204b 	ldrb.w	r2, [r7, #75]	; 0x4b
    de34:	6c7b      	ldr	r3, [r7, #68]	; 0x44
    de36:	9300      	str	r3, [sp, #0]
    de38:	4613      	mov	r3, r2
    de3a:	6bba      	ldr	r2, [r7, #56]	; 0x38
    de3c:	68b9      	ldr	r1, [r7, #8]
    de3e:	68f8      	ldr	r0, [r7, #12]
    de40:	f000 f8ce 	bl	dfe0 <_printk_dec_ulong>
						  min_width);
				break;
    de44:	e090      	b.n	df68 <z_vprintk+0x4d0>
			}
			case 'p':
				out('0', ctx);
    de46:	68fb      	ldr	r3, [r7, #12]
    de48:	68b9      	ldr	r1, [r7, #8]
    de4a:	2030      	movs	r0, #48	; 0x30
    de4c:	4798      	blx	r3
				out('x', ctx);
    de4e:	68fb      	ldr	r3, [r7, #12]
    de50:	68b9      	ldr	r1, [r7, #8]
    de52:	2078      	movs	r0, #120	; 0x78
    de54:	4798      	blx	r3
				/* left-pad pointers with zeros */
				padding = PAD_ZERO_BEFORE;
    de56:	2301      	movs	r3, #1
    de58:	f887 304b 	strb.w	r3, [r7, #75]	; 0x4b
				if (IS_ENABLED(CONFIG_64BIT)) {
					min_width = 16;
				} else {
					min_width = 8;
    de5c:	2308      	movs	r3, #8
    de5e:	647b      	str	r3, [r7, #68]	; 0x44
				/* Fall through */
			case 'x':
			case 'X': {
				unsigned long long x;

				if (*fmt == 'p') {
    de60:	687b      	ldr	r3, [r7, #4]
    de62:	781b      	ldrb	r3, [r3, #0]
    de64:	2b70      	cmp	r3, #112	; 0x70
    de66:	d108      	bne.n	de7a <z_vprintk+0x3e2>
					x = (uintptr_t)va_arg(ap, void *);
    de68:	683b      	ldr	r3, [r7, #0]
    de6a:	1d1a      	adds	r2, r3, #4
    de6c:	603a      	str	r2, [r7, #0]
    de6e:	681b      	ldr	r3, [r3, #0]
    de70:	f04f 0400 	mov.w	r4, #0
    de74:	e9c7 340c 	strd	r3, r4, [r7, #48]	; 0x30
    de78:	e024      	b.n	dec4 <z_vprintk+0x42c>
				} else if (length_mod == 'l') {
    de7a:	f897 3043 	ldrb.w	r3, [r7, #67]	; 0x43
    de7e:	2b6c      	cmp	r3, #108	; 0x6c
    de80:	d108      	bne.n	de94 <z_vprintk+0x3fc>
					x = va_arg(ap, unsigned long);
    de82:	683b      	ldr	r3, [r7, #0]
    de84:	1d1a      	adds	r2, r3, #4
    de86:	603a      	str	r2, [r7, #0]
    de88:	681b      	ldr	r3, [r3, #0]
    de8a:	f04f 0400 	mov.w	r4, #0
    de8e:	e9c7 340c 	strd	r3, r4, [r7, #48]	; 0x30
    de92:	e017      	b.n	dec4 <z_vprintk+0x42c>
				} else if (length_mod == 'L') {
    de94:	f897 3043 	ldrb.w	r3, [r7, #67]	; 0x43
    de98:	2b4c      	cmp	r3, #76	; 0x4c
    de9a:	d10b      	bne.n	deb4 <z_vprintk+0x41c>
					x = va_arg(ap, unsigned long long);
    de9c:	683b      	ldr	r3, [r7, #0]
    de9e:	3307      	adds	r3, #7
    dea0:	f023 0307 	bic.w	r3, r3, #7
    dea4:	f103 0208 	add.w	r2, r3, #8
    dea8:	603a      	str	r2, [r7, #0]
    deaa:	e9d3 3400 	ldrd	r3, r4, [r3]
    deae:	e9c7 340c 	strd	r3, r4, [r7, #48]	; 0x30
    deb2:	e007      	b.n	dec4 <z_vprintk+0x42c>
				} else {
					x = va_arg(ap, unsigned int);
    deb4:	683b      	ldr	r3, [r7, #0]
    deb6:	1d1a      	adds	r2, r3, #4
    deb8:	603a      	str	r2, [r7, #0]
    deba:	681b      	ldr	r3, [r3, #0]
    debc:	f04f 0400 	mov.w	r4, #0
    dec0:	e9c7 340c 	strd	r3, r4, [r7, #48]	; 0x30
				}

				_printk_hex_ulong(out, ctx, x, padding,
    dec4:	6c7b      	ldr	r3, [r7, #68]	; 0x44
    dec6:	9301      	str	r3, [sp, #4]
    dec8:	f897 304b 	ldrb.w	r3, [r7, #75]	; 0x4b
    decc:	9300      	str	r3, [sp, #0]
    dece:	e9d7 230c 	ldrd	r2, r3, [r7, #48]	; 0x30
    ded2:	68b9      	ldr	r1, [r7, #8]
    ded4:	68f8      	ldr	r0, [r7, #12]
    ded6:	f013 fde9 	bl	21aac <_printk_hex_ulong>
						  min_width);
				break;
    deda:	e045      	b.n	df68 <z_vprintk+0x4d0>
			}
			case 's': {
				char *s = va_arg(ap, char *);
    dedc:	683b      	ldr	r3, [r7, #0]
    dede:	1d1a      	adds	r2, r3, #4
    dee0:	603a      	str	r2, [r7, #0]
    dee2:	681b      	ldr	r3, [r3, #0]
    dee4:	62fb      	str	r3, [r7, #44]	; 0x2c
				char *start = s;
    dee6:	6afb      	ldr	r3, [r7, #44]	; 0x2c
    dee8:	617b      	str	r3, [r7, #20]

				while (*s) {
    deea:	e008      	b.n	defe <z_vprintk+0x466>
					out((int)(*s++), ctx);
    deec:	6afb      	ldr	r3, [r7, #44]	; 0x2c
    deee:	1c5a      	adds	r2, r3, #1
    def0:	62fa      	str	r2, [r7, #44]	; 0x2c
    def2:	781b      	ldrb	r3, [r3, #0]
    def4:	461a      	mov	r2, r3
    def6:	68fb      	ldr	r3, [r7, #12]
    def8:	68b9      	ldr	r1, [r7, #8]
    defa:	4610      	mov	r0, r2
    defc:	4798      	blx	r3
				while (*s) {
    defe:	6afb      	ldr	r3, [r7, #44]	; 0x2c
    df00:	781b      	ldrb	r3, [r3, #0]
    df02:	2b00      	cmp	r3, #0
    df04:	d1f2      	bne.n	deec <z_vprintk+0x454>
				}

				if (padding == PAD_SPACE_AFTER) {
    df06:	f897 304b 	ldrb.w	r3, [r7, #75]	; 0x4b
    df0a:	2b03      	cmp	r3, #3
    df0c:	d12b      	bne.n	df66 <z_vprintk+0x4ce>
					int remaining = min_width - (s - start);
    df0e:	6afa      	ldr	r2, [r7, #44]	; 0x2c
    df10:	697b      	ldr	r3, [r7, #20]
    df12:	1ad3      	subs	r3, r2, r3
    df14:	6c7a      	ldr	r2, [r7, #68]	; 0x44
    df16:	1ad3      	subs	r3, r2, r3
    df18:	62bb      	str	r3, [r7, #40]	; 0x28
					while (remaining-- > 0) {
    df1a:	e003      	b.n	df24 <z_vprintk+0x48c>
						out(' ', ctx);
    df1c:	68fb      	ldr	r3, [r7, #12]
    df1e:	68b9      	ldr	r1, [r7, #8]
    df20:	2020      	movs	r0, #32
    df22:	4798      	blx	r3
					while (remaining-- > 0) {
    df24:	6abb      	ldr	r3, [r7, #40]	; 0x28
    df26:	1e5a      	subs	r2, r3, #1
    df28:	62ba      	str	r2, [r7, #40]	; 0x28
    df2a:	2b00      	cmp	r3, #0
    df2c:	dcf6      	bgt.n	df1c <z_vprintk+0x484>
					}
				}
				break;
    df2e:	e01a      	b.n	df66 <z_vprintk+0x4ce>
			}
			case 'c': {
				int c = va_arg(ap, int);
    df30:	683b      	ldr	r3, [r7, #0]
    df32:	1d1a      	adds	r2, r3, #4
    df34:	603a      	str	r2, [r7, #0]
    df36:	681b      	ldr	r3, [r3, #0]
    df38:	613b      	str	r3, [r7, #16]

				out(c, ctx);
    df3a:	68fb      	ldr	r3, [r7, #12]
    df3c:	68b9      	ldr	r1, [r7, #8]
    df3e:	6938      	ldr	r0, [r7, #16]
    df40:	4798      	blx	r3
				break;
    df42:	e011      	b.n	df68 <z_vprintk+0x4d0>
			}
			case '%': {
				out((int)'%', ctx);
    df44:	68fb      	ldr	r3, [r7, #12]
    df46:	68b9      	ldr	r1, [r7, #8]
    df48:	2025      	movs	r0, #37	; 0x25
    df4a:	4798      	blx	r3
				break;
    df4c:	e00c      	b.n	df68 <z_vprintk+0x4d0>
			}
			default:
				out((int)'%', ctx);
    df4e:	68fb      	ldr	r3, [r7, #12]
    df50:	68b9      	ldr	r1, [r7, #8]
    df52:	2025      	movs	r0, #37	; 0x25
    df54:	4798      	blx	r3
				out((int)*fmt, ctx);
    df56:	687b      	ldr	r3, [r7, #4]
    df58:	781b      	ldrb	r3, [r3, #0]
    df5a:	461a      	mov	r2, r3
    df5c:	68fb      	ldr	r3, [r7, #12]
    df5e:	68b9      	ldr	r1, [r7, #8]
    df60:	4610      	mov	r0, r2
    df62:	4798      	blx	r3
				break;
    df64:	e000      	b.n	df68 <z_vprintk+0x4d0>
				break;
    df66:	bf00      	nop
			}
			might_format = 0;
    df68:	2300      	movs	r3, #0
    df6a:	64fb      	str	r3, [r7, #76]	; 0x4c
    df6c:	e000      	b.n	df70 <z_vprintk+0x4d8>
				goto still_might_format;
    df6e:	bf00      	nop
		}
still_might_format:
		++fmt;
    df70:	687b      	ldr	r3, [r7, #4]
    df72:	3301      	adds	r3, #1
    df74:	607b      	str	r3, [r7, #4]
	while (*fmt) {
    df76:	687b      	ldr	r3, [r7, #4]
    df78:	781b      	ldrb	r3, [r3, #0]
    df7a:	2b00      	cmp	r3, #0
    df7c:	f47f ad9f 	bne.w	dabe <z_vprintk+0x26>
	}
}
    df80:	bf00      	nop
    df82:	3754      	adds	r7, #84	; 0x54
    df84:	46bd      	mov	sp, r7
    df86:	bd90      	pop	{r4, r7, pc}

0000df88 <char_out>:
struct out_context {
	int count;
};

static int char_out(int c, void *ctx_p)
{
    df88:	b580      	push	{r7, lr}
    df8a:	b084      	sub	sp, #16
    df8c:	af00      	add	r7, sp, #0
    df8e:	6078      	str	r0, [r7, #4]
    df90:	6039      	str	r1, [r7, #0]
	struct out_context *ctx = ctx_p;
    df92:	683b      	ldr	r3, [r7, #0]
    df94:	60fb      	str	r3, [r7, #12]

	ctx->count++;
    df96:	68fb      	ldr	r3, [r7, #12]
    df98:	681b      	ldr	r3, [r3, #0]
    df9a:	1c5a      	adds	r2, r3, #1
    df9c:	68fb      	ldr	r3, [r7, #12]
    df9e:	601a      	str	r2, [r3, #0]
	return _char_out(c);
    dfa0:	4b04      	ldr	r3, [pc, #16]	; (dfb4 <char_out+0x2c>)
    dfa2:	681b      	ldr	r3, [r3, #0]
    dfa4:	6878      	ldr	r0, [r7, #4]
    dfa6:	4798      	blx	r3
    dfa8:	4603      	mov	r3, r0
}
    dfaa:	4618      	mov	r0, r3
    dfac:	3710      	adds	r7, #16
    dfae:	46bd      	mov	sp, r7
    dfb0:	bd80      	pop	{r7, pc}
    dfb2:	bf00      	nop
    dfb4:	20020000 	.word	0x20020000

0000dfb8 <vprintk>:
		z_vprintk(char_out, &ctx, fmt, ap);
	}
}
#else
void vprintk(const char *fmt, va_list ap)
{
    dfb8:	b580      	push	{r7, lr}
    dfba:	b084      	sub	sp, #16
    dfbc:	af00      	add	r7, sp, #0
    dfbe:	6078      	str	r0, [r7, #4]
    dfc0:	6039      	str	r1, [r7, #0]
	struct out_context ctx = { 0 };
    dfc2:	2300      	movs	r3, #0
    dfc4:	60fb      	str	r3, [r7, #12]

	z_vprintk(char_out, &ctx, fmt, ap);
    dfc6:	f107 010c 	add.w	r1, r7, #12
    dfca:	683b      	ldr	r3, [r7, #0]
    dfcc:	687a      	ldr	r2, [r7, #4]
    dfce:	4803      	ldr	r0, [pc, #12]	; (dfdc <vprintk+0x24>)
    dfd0:	f7ff fd62 	bl	da98 <z_vprintk>
}
    dfd4:	bf00      	nop
    dfd6:	3710      	adds	r7, #16
    dfd8:	46bd      	mov	sp, r7
    dfda:	bd80      	pop	{r7, pc}
    dfdc:	0000df89 	.word	0x0000df89

0000dfe0 <_printk_dec_ulong>:
 * @return N/A
 */
static void _printk_dec_ulong(out_func_t out, void *ctx,
			      const unsigned long num, enum pad_type padding,
			      int min_width)
{
    dfe0:	b580      	push	{r7, lr}
    dfe2:	b08a      	sub	sp, #40	; 0x28
    dfe4:	af00      	add	r7, sp, #0
    dfe6:	60f8      	str	r0, [r7, #12]
    dfe8:	60b9      	str	r1, [r7, #8]
    dfea:	607a      	str	r2, [r7, #4]
    dfec:	70fb      	strb	r3, [r7, #3]
	unsigned long pos = 1000000000;
    dfee:	4b36      	ldr	r3, [pc, #216]	; (e0c8 <_printk_dec_ulong+0xe8>)
    dff0:	627b      	str	r3, [r7, #36]	; 0x24
	unsigned long remainder = num;
    dff2:	687b      	ldr	r3, [r7, #4]
    dff4:	623b      	str	r3, [r7, #32]
	int found_largest_digit = 0;
    dff6:	2300      	movs	r3, #0
    dff8:	61fb      	str	r3, [r7, #28]
	int remaining = sizeof(long) * 5 / 2;
    dffa:	230a      	movs	r3, #10
    dffc:	61bb      	str	r3, [r7, #24]
	int digits = 1;
    dffe:	2301      	movs	r3, #1
    e000:	617b      	str	r3, [r7, #20]
	if (sizeof(long) == 8) {
		pos *= 10000000000;
	}

	/* make sure we don't skip if value is zero */
	if (min_width <= 0) {
    e002:	6b3b      	ldr	r3, [r7, #48]	; 0x30
    e004:	2b00      	cmp	r3, #0
    e006:	dc3f      	bgt.n	e088 <_printk_dec_ulong+0xa8>
		min_width = 1;
    e008:	2301      	movs	r3, #1
    e00a:	633b      	str	r3, [r7, #48]	; 0x30
	}

	while (pos >= 10) {
    e00c:	e03c      	b.n	e088 <_printk_dec_ulong+0xa8>
		if (found_largest_digit != 0 || remainder >= pos) {
    e00e:	69fb      	ldr	r3, [r7, #28]
    e010:	2b00      	cmp	r3, #0
    e012:	d103      	bne.n	e01c <_printk_dec_ulong+0x3c>
    e014:	6a3a      	ldr	r2, [r7, #32]
    e016:	6a7b      	ldr	r3, [r7, #36]	; 0x24
    e018:	429a      	cmp	r2, r3
    e01a:	d30f      	bcc.n	e03c <_printk_dec_ulong+0x5c>
			found_largest_digit = 1;
    e01c:	2301      	movs	r3, #1
    e01e:	61fb      	str	r3, [r7, #28]
			out((int)(remainder / pos + 48), ctx);
    e020:	6a3a      	ldr	r2, [r7, #32]
    e022:	6a7b      	ldr	r3, [r7, #36]	; 0x24
    e024:	fbb2 f3f3 	udiv	r3, r2, r3
    e028:	3330      	adds	r3, #48	; 0x30
    e02a:	461a      	mov	r2, r3
    e02c:	68fb      	ldr	r3, [r7, #12]
    e02e:	68b9      	ldr	r1, [r7, #8]
    e030:	4610      	mov	r0, r2
    e032:	4798      	blx	r3
			digits++;
    e034:	697b      	ldr	r3, [r7, #20]
    e036:	3301      	adds	r3, #1
    e038:	617b      	str	r3, [r7, #20]
    e03a:	e013      	b.n	e064 <_printk_dec_ulong+0x84>
		} else if (remaining <= min_width
    e03c:	69ba      	ldr	r2, [r7, #24]
    e03e:	6b3b      	ldr	r3, [r7, #48]	; 0x30
    e040:	429a      	cmp	r2, r3
    e042:	dc0f      	bgt.n	e064 <_printk_dec_ulong+0x84>
				&& padding < PAD_SPACE_AFTER) {
    e044:	78fb      	ldrb	r3, [r7, #3]
    e046:	2b02      	cmp	r3, #2
    e048:	d80c      	bhi.n	e064 <_printk_dec_ulong+0x84>
			out((int)(padding == PAD_ZERO_BEFORE ? '0' : ' '), ctx);
    e04a:	78fb      	ldrb	r3, [r7, #3]
    e04c:	2b01      	cmp	r3, #1
    e04e:	d101      	bne.n	e054 <_printk_dec_ulong+0x74>
    e050:	2230      	movs	r2, #48	; 0x30
    e052:	e000      	b.n	e056 <_printk_dec_ulong+0x76>
    e054:	2220      	movs	r2, #32
    e056:	68fb      	ldr	r3, [r7, #12]
    e058:	68b9      	ldr	r1, [r7, #8]
    e05a:	4610      	mov	r0, r2
    e05c:	4798      	blx	r3
			digits++;
    e05e:	697b      	ldr	r3, [r7, #20]
    e060:	3301      	adds	r3, #1
    e062:	617b      	str	r3, [r7, #20]
		}
		remaining--;
    e064:	69bb      	ldr	r3, [r7, #24]
    e066:	3b01      	subs	r3, #1
    e068:	61bb      	str	r3, [r7, #24]
		remainder %= pos;
    e06a:	6a3b      	ldr	r3, [r7, #32]
    e06c:	6a7a      	ldr	r2, [r7, #36]	; 0x24
    e06e:	fbb3 f2f2 	udiv	r2, r3, r2
    e072:	6a79      	ldr	r1, [r7, #36]	; 0x24
    e074:	fb01 f202 	mul.w	r2, r1, r2
    e078:	1a9b      	subs	r3, r3, r2
    e07a:	623b      	str	r3, [r7, #32]
		pos /= 10;
    e07c:	6a7b      	ldr	r3, [r7, #36]	; 0x24
    e07e:	4a13      	ldr	r2, [pc, #76]	; (e0cc <_printk_dec_ulong+0xec>)
    e080:	fba2 2303 	umull	r2, r3, r2, r3
    e084:	08db      	lsrs	r3, r3, #3
    e086:	627b      	str	r3, [r7, #36]	; 0x24
	while (pos >= 10) {
    e088:	6a7b      	ldr	r3, [r7, #36]	; 0x24
    e08a:	2b09      	cmp	r3, #9
    e08c:	d8bf      	bhi.n	e00e <_printk_dec_ulong+0x2e>
	}
	out((int)(remainder + 48), ctx);
    e08e:	6a3b      	ldr	r3, [r7, #32]
    e090:	3330      	adds	r3, #48	; 0x30
    e092:	461a      	mov	r2, r3
    e094:	68fb      	ldr	r3, [r7, #12]
    e096:	68b9      	ldr	r1, [r7, #8]
    e098:	4610      	mov	r0, r2
    e09a:	4798      	blx	r3

	if (padding == PAD_SPACE_AFTER) {
    e09c:	78fb      	ldrb	r3, [r7, #3]
    e09e:	2b03      	cmp	r3, #3
    e0a0:	d10d      	bne.n	e0be <_printk_dec_ulong+0xde>
		remaining = min_width - digits;
    e0a2:	6b3a      	ldr	r2, [r7, #48]	; 0x30
    e0a4:	697b      	ldr	r3, [r7, #20]
    e0a6:	1ad3      	subs	r3, r2, r3
    e0a8:	61bb      	str	r3, [r7, #24]
		while (remaining-- > 0) {
    e0aa:	e003      	b.n	e0b4 <_printk_dec_ulong+0xd4>
			out(' ', ctx);
    e0ac:	68fb      	ldr	r3, [r7, #12]
    e0ae:	68b9      	ldr	r1, [r7, #8]
    e0b0:	2020      	movs	r0, #32
    e0b2:	4798      	blx	r3
		while (remaining-- > 0) {
    e0b4:	69bb      	ldr	r3, [r7, #24]
    e0b6:	1e5a      	subs	r2, r3, #1
    e0b8:	61ba      	str	r2, [r7, #24]
    e0ba:	2b00      	cmp	r3, #0
    e0bc:	dcf6      	bgt.n	e0ac <_printk_dec_ulong+0xcc>
		}
	}
}
    e0be:	bf00      	nop
    e0c0:	3728      	adds	r7, #40	; 0x28
    e0c2:	46bd      	mov	sp, r7
    e0c4:	bd80      	pop	{r7, pc}
    e0c6:	bf00      	nop
    e0c8:	3b9aca00 	.word	0x3b9aca00
    e0cc:	cccccccd 	.word	0xcccccccd

0000e0d0 <vsnprintk>:

	return ret;
}

int vsnprintk(char *str, size_t size, const char *fmt, va_list ap)
{
    e0d0:	b580      	push	{r7, lr}
    e0d2:	b088      	sub	sp, #32
    e0d4:	af00      	add	r7, sp, #0
    e0d6:	60f8      	str	r0, [r7, #12]
    e0d8:	60b9      	str	r1, [r7, #8]
    e0da:	607a      	str	r2, [r7, #4]
    e0dc:	603b      	str	r3, [r7, #0]
	struct str_context ctx = { str, size, 0 };
    e0de:	68fb      	ldr	r3, [r7, #12]
    e0e0:	617b      	str	r3, [r7, #20]
    e0e2:	68bb      	ldr	r3, [r7, #8]
    e0e4:	61bb      	str	r3, [r7, #24]
    e0e6:	2300      	movs	r3, #0
    e0e8:	61fb      	str	r3, [r7, #28]

	z_vprintk((out_func_t)str_out, &ctx, fmt, ap);
    e0ea:	f107 0114 	add.w	r1, r7, #20
    e0ee:	683b      	ldr	r3, [r7, #0]
    e0f0:	687a      	ldr	r2, [r7, #4]
    e0f2:	4809      	ldr	r0, [pc, #36]	; (e118 <vsnprintk+0x48>)
    e0f4:	f7ff fcd0 	bl	da98 <z_vprintk>

	if (ctx.count < ctx.max) {
    e0f8:	69fa      	ldr	r2, [r7, #28]
    e0fa:	69bb      	ldr	r3, [r7, #24]
    e0fc:	429a      	cmp	r2, r3
    e0fe:	da05      	bge.n	e10c <vsnprintk+0x3c>
		str[ctx.count] = '\0';
    e100:	69fb      	ldr	r3, [r7, #28]
    e102:	461a      	mov	r2, r3
    e104:	68fb      	ldr	r3, [r7, #12]
    e106:	4413      	add	r3, r2
    e108:	2200      	movs	r2, #0
    e10a:	701a      	strb	r2, [r3, #0]
	}

	return ctx.count;
    e10c:	69fb      	ldr	r3, [r7, #28]
}
    e10e:	4618      	mov	r0, r3
    e110:	3720      	adds	r7, #32
    e112:	46bd      	mov	sp, r7
    e114:	bd80      	pop	{r7, pc}
    e116:	bf00      	nop
    e118:	00021b9d 	.word	0x00021b9d

0000e11c <nrfx_coredep_delay_us>:
}

#else // NRFX_CHECK(NRFX_DELAY_DWT_BASED)

NRF_STATIC_INLINE void nrfx_coredep_delay_us(uint32_t time_us)
{
    e11c:	b580      	push	{r7, lr}
    e11e:	b084      	sub	sp, #16
    e120:	af00      	add	r7, sp, #0
    e122:	6078      	str	r0, [r7, #4]
    if (time_us == 0)
    e124:	687b      	ldr	r3, [r7, #4]
    e126:	2b00      	cmp	r3, #0
    e128:	d00a      	beq.n	e140 <nrfx_coredep_delay_us+0x24>
    };

    typedef void (* delay_func_t)(uint32_t);
    const delay_func_t delay_cycles =
        // Set LSB to 1 to execute the code in the Thumb mode.
        (delay_func_t)((((uint32_t)delay_machine_code) | 1));
    e12a:	4b07      	ldr	r3, [pc, #28]	; (e148 <nrfx_coredep_delay_us+0x2c>)
    e12c:	f043 0301 	orr.w	r3, r3, #1
    const delay_func_t delay_cycles =
    e130:	60fb      	str	r3, [r7, #12]
    uint32_t cycles = time_us * NRFX_DELAY_CPU_FREQ_MHZ;
    e132:	687b      	ldr	r3, [r7, #4]
    e134:	019b      	lsls	r3, r3, #6
    e136:	60bb      	str	r3, [r7, #8]
    delay_cycles(cycles);
    e138:	68fb      	ldr	r3, [r7, #12]
    e13a:	68b8      	ldr	r0, [r7, #8]
    e13c:	4798      	blx	r3
    e13e:	e000      	b.n	e142 <nrfx_coredep_delay_us+0x26>
        return;
    e140:	bf00      	nop
}
    e142:	3710      	adds	r7, #16
    e144:	46bd      	mov	sp, r7
    e146:	bd80      	pop	{r7, pc}
    e148:	0002d580 	.word	0x0002d580

0000e14c <nordicsemi_nrf91_init>:

#define LOG_LEVEL CONFIG_SOC_LOG_LEVEL
LOG_MODULE_REGISTER(soc);

static int nordicsemi_nrf91_init(struct device *arg)
{
    e14c:	b480      	push	{r7}
    e14e:	b087      	sub	sp, #28
    e150:	af00      	add	r7, sp, #0
    e152:	6078      	str	r0, [r7, #4]
		:
		: "memory");
#elif defined(CONFIG_ARMV7_M_ARMV8_M_MAINLINE)
	unsigned int tmp;

	__asm__ volatile(
    e154:	f04f 0320 	mov.w	r3, #32
    e158:	f3ef 8211 	mrs	r2, BASEPRI
    e15c:	f383 8811 	msr	BASEPRI, r3
    e160:	f3bf 8f6f 	isb	sy
    e164:	60fa      	str	r2, [r7, #12]
    e166:	60bb      	str	r3, [r7, #8]
		: "memory", "cc");
#else
#error Unknown ARM architecture
#endif /* CONFIG_ARMV6_M_ARMV8_M_BASELINE */

	return key;
    e168:	68fb      	ldr	r3, [r7, #12]
	u32_t key;

	ARG_UNUSED(arg);

	key = irq_lock();
    e16a:	617b      	str	r3, [r7, #20]

#ifdef CONFIG_NRF_ENABLE_ICACHE
	/* Enable the instruction cache */
	NRF_NVMC->ICACHECNF = NVMC_ICACHECNF_CACHEEN_Msk;
    e16c:	4b08      	ldr	r3, [pc, #32]	; (e190 <nordicsemi_nrf91_init+0x44>)
    e16e:	2201      	movs	r2, #1
    e170:	f8c3 2540 	str.w	r2, [r3, #1344]	; 0x540
    e174:	697b      	ldr	r3, [r7, #20]
    e176:	613b      	str	r3, [r7, #16]
	__asm__ volatile(
		"cpsie i;"
		"isb"
		: : : "memory");
#elif defined(CONFIG_ARMV7_M_ARMV8_M_MAINLINE)
	__asm__ volatile(
    e178:	693b      	ldr	r3, [r7, #16]
    e17a:	f383 8811 	msr	BASEPRI, r3
    e17e:	f3bf 8f6f 	isb	sy
	*/
	NMI_INIT();

	irq_unlock(key);

	return 0;
    e182:	2300      	movs	r3, #0
}
    e184:	4618      	mov	r0, r3
    e186:	371c      	adds	r7, #28
    e188:	46bd      	mov	sp, r7
    e18a:	f85d 7b04 	ldr.w	r7, [sp], #4
    e18e:	4770      	bx	lr
    e190:	40039000 	.word	0x40039000

0000e194 <z_impl_zsock_socket>:

	return fd;
}

int z_impl_zsock_socket(int family, int type, int proto)
{
    e194:	b580      	push	{r7, lr}
    e196:	b086      	sub	sp, #24
    e198:	af00      	add	r7, sp, #0
    e19a:	60f8      	str	r0, [r7, #12]
    e19c:	60b9      	str	r1, [r7, #8]
    e19e:	607a      	str	r2, [r7, #4]
	Z_STRUCT_SECTION_FOREACH(net_socket_register, sock_family) {
    e1a0:	4b1c      	ldr	r3, [pc, #112]	; (e214 <z_impl_zsock_socket+0x80>)
    e1a2:	617b      	str	r3, [r7, #20]
    e1a4:	e022      	b.n	e1ec <z_impl_zsock_socket+0x58>
		if (sock_family->family != family &&
    e1a6:	697b      	ldr	r3, [r7, #20]
    e1a8:	681b      	ldr	r3, [r3, #0]
    e1aa:	68fa      	ldr	r2, [r7, #12]
    e1ac:	429a      	cmp	r2, r3
    e1ae:	d003      	beq.n	e1b8 <z_impl_zsock_socket+0x24>
		    sock_family->family != AF_UNSPEC) {
    e1b0:	697b      	ldr	r3, [r7, #20]
    e1b2:	681b      	ldr	r3, [r3, #0]
		if (sock_family->family != family &&
    e1b4:	2b00      	cmp	r3, #0
    e1b6:	d113      	bne.n	e1e0 <z_impl_zsock_socket+0x4c>
			continue;
		}

		NET_ASSERT(sock_family->is_supported);

		if (!sock_family->is_supported(family, type, proto)) {
    e1b8:	697b      	ldr	r3, [r7, #20]
    e1ba:	685b      	ldr	r3, [r3, #4]
    e1bc:	687a      	ldr	r2, [r7, #4]
    e1be:	68b9      	ldr	r1, [r7, #8]
    e1c0:	68f8      	ldr	r0, [r7, #12]
    e1c2:	4798      	blx	r3
    e1c4:	4603      	mov	r3, r0
    e1c6:	f083 0301 	eor.w	r3, r3, #1
    e1ca:	b2db      	uxtb	r3, r3
    e1cc:	2b00      	cmp	r3, #0
    e1ce:	d109      	bne.n	e1e4 <z_impl_zsock_socket+0x50>
			continue;
		}

		return sock_family->handler(family, type, proto);
    e1d0:	697b      	ldr	r3, [r7, #20]
    e1d2:	689b      	ldr	r3, [r3, #8]
    e1d4:	687a      	ldr	r2, [r7, #4]
    e1d6:	68b9      	ldr	r1, [r7, #8]
    e1d8:	68f8      	ldr	r0, [r7, #12]
    e1da:	4798      	blx	r3
    e1dc:	4603      	mov	r3, r0
    e1de:	e015      	b.n	e20c <z_impl_zsock_socket+0x78>
			continue;
    e1e0:	bf00      	nop
    e1e2:	e000      	b.n	e1e6 <z_impl_zsock_socket+0x52>
			continue;
    e1e4:	bf00      	nop
	Z_STRUCT_SECTION_FOREACH(net_socket_register, sock_family) {
    e1e6:	697b      	ldr	r3, [r7, #20]
    e1e8:	330c      	adds	r3, #12
    e1ea:	617b      	str	r3, [r7, #20]
    e1ec:	697b      	ldr	r3, [r7, #20]
    e1ee:	4a0a      	ldr	r2, [pc, #40]	; (e218 <z_impl_zsock_socket+0x84>)
    e1f0:	4293      	cmp	r3, r2
    e1f2:	bf34      	ite	cc
    e1f4:	2301      	movcc	r3, #1
    e1f6:	2300      	movcs	r3, #0
    e1f8:	b2db      	uxtb	r3, r3
    e1fa:	2b00      	cmp	r3, #0
    e1fc:	d1d3      	bne.n	e1a6 <z_impl_zsock_socket+0x12>

	if (IS_ENABLED(CONFIG_NET_NATIVE)) {
		return zsock_socket_internal(family, type, proto);
	}

	errno = EAFNOSUPPORT;
    e1fe:	f014 fad1 	bl	227a4 <z_errno>
    e202:	4602      	mov	r2, r0
    e204:	232f      	movs	r3, #47	; 0x2f
    e206:	6013      	str	r3, [r2, #0]
	return -1;
    e208:	f04f 33ff 	mov.w	r3, #4294967295
}
    e20c:	4618      	mov	r0, r3
    e20e:	3718      	adds	r7, #24
    e210:	46bd      	mov	sp, r7
    e212:	bd80      	pop	{r7, pc}
    e214:	0002c674 	.word	0x0002c674
    e218:	0002c680 	.word	0x0002c680

0000e21c <socket_offload_dns_register>:
#include "sockets_internal.h"

const struct socket_dns_offload *dns_offload;

void socket_offload_dns_register(const struct socket_dns_offload *ops)
{
    e21c:	b480      	push	{r7}
    e21e:	b083      	sub	sp, #12
    e220:	af00      	add	r7, sp, #0
    e222:	6078      	str	r0, [r7, #4]
	__ASSERT_NO_MSG(ops);
	__ASSERT_NO_MSG(dns_offload == NULL);

	dns_offload = ops;
    e224:	4a04      	ldr	r2, [pc, #16]	; (e238 <socket_offload_dns_register+0x1c>)
    e226:	687b      	ldr	r3, [r7, #4]
    e228:	6013      	str	r3, [r2, #0]
}
    e22a:	bf00      	nop
    e22c:	370c      	adds	r7, #12
    e22e:	46bd      	mov	sp, r7
    e230:	f85d 7b04 	ldr.w	r7, [sp], #4
    e234:	4770      	bx	lr
    e236:	bf00      	nop
    e238:	20022594 	.word	0x20022594

0000e23c <socket_offload_getaddrinfo>:

int socket_offload_getaddrinfo(const char *node, const char *service,
			       const struct zsock_addrinfo *hints,
			       struct zsock_addrinfo **res)
{
    e23c:	b590      	push	{r4, r7, lr}
    e23e:	b085      	sub	sp, #20
    e240:	af00      	add	r7, sp, #0
    e242:	60f8      	str	r0, [r7, #12]
    e244:	60b9      	str	r1, [r7, #8]
    e246:	607a      	str	r2, [r7, #4]
    e248:	603b      	str	r3, [r7, #0]
	__ASSERT_NO_MSG(dns_offload);
	__ASSERT_NO_MSG(dns_offload->getaddrinfo);

	return dns_offload->getaddrinfo(node, service, hints, res);
    e24a:	4b06      	ldr	r3, [pc, #24]	; (e264 <socket_offload_getaddrinfo+0x28>)
    e24c:	681b      	ldr	r3, [r3, #0]
    e24e:	681c      	ldr	r4, [r3, #0]
    e250:	683b      	ldr	r3, [r7, #0]
    e252:	687a      	ldr	r2, [r7, #4]
    e254:	68b9      	ldr	r1, [r7, #8]
    e256:	68f8      	ldr	r0, [r7, #12]
    e258:	47a0      	blx	r4
    e25a:	4603      	mov	r3, r0
}
    e25c:	4618      	mov	r0, r3
    e25e:	3714      	adds	r7, #20
    e260:	46bd      	mov	sp, r7
    e262:	bd90      	pop	{r4, r7, pc}
    e264:	20022594 	.word	0x20022594

0000e268 <socket_offload_freeaddrinfo>:

void socket_offload_freeaddrinfo(struct zsock_addrinfo *res)
{
    e268:	b580      	push	{r7, lr}
    e26a:	b082      	sub	sp, #8
    e26c:	af00      	add	r7, sp, #0
    e26e:	6078      	str	r0, [r7, #4]
	__ASSERT_NO_MSG(dns_offload);
	__ASSERT_NO_MSG(dns_offload->freeaddrinfo);

	return dns_offload->freeaddrinfo(res);
    e270:	4b03      	ldr	r3, [pc, #12]	; (e280 <socket_offload_freeaddrinfo+0x18>)
    e272:	681b      	ldr	r3, [r3, #0]
    e274:	685b      	ldr	r3, [r3, #4]
    e276:	6878      	ldr	r0, [r7, #4]
    e278:	4798      	blx	r3
}
    e27a:	3708      	adds	r7, #8
    e27c:	46bd      	mov	sp, r7
    e27e:	bd80      	pop	{r7, pc}
    e280:	20022594 	.word	0x20022594

0000e284 <console_out>:
 *
 * @return The character passed as input.
 */

static int console_out(int c)
{
    e284:	b580      	push	{r7, lr}
    e286:	b082      	sub	sp, #8
    e288:	af00      	add	r7, sp, #0
    e28a:	6078      	str	r0, [r7, #4]
		return c;
	}

#endif  /* CONFIG_UART_CONSOLE_DEBUG_SERVER_HOOKS */

	if ('\n' == c) {
    e28c:	687b      	ldr	r3, [r7, #4]
    e28e:	2b0a      	cmp	r3, #10
    e290:	d105      	bne.n	e29e <console_out+0x1a>
		uart_poll_out(uart_console_dev, '\r');
    e292:	4b09      	ldr	r3, [pc, #36]	; (e2b8 <console_out+0x34>)
    e294:	681b      	ldr	r3, [r3, #0]
    e296:	210d      	movs	r1, #13
    e298:	4618      	mov	r0, r3
    e29a:	f014 fb8c 	bl	229b6 <uart_poll_out>
	}
	uart_poll_out(uart_console_dev, c);
    e29e:	4b06      	ldr	r3, [pc, #24]	; (e2b8 <console_out+0x34>)
    e2a0:	681b      	ldr	r3, [r3, #0]
    e2a2:	687a      	ldr	r2, [r7, #4]
    e2a4:	b2d2      	uxtb	r2, r2
    e2a6:	4611      	mov	r1, r2
    e2a8:	4618      	mov	r0, r3
    e2aa:	f014 fb84 	bl	229b6 <uart_poll_out>

	return c;
    e2ae:	687b      	ldr	r3, [r7, #4]
}
    e2b0:	4618      	mov	r0, r3
    e2b2:	3708      	adds	r7, #8
    e2b4:	46bd      	mov	sp, r7
    e2b6:	bd80      	pop	{r7, pc}
    e2b8:	20022598 	.word	0x20022598

0000e2bc <uart_console_hook_install>:
 *
 * @return N/A
 */

static void uart_console_hook_install(void)
{
    e2bc:	b580      	push	{r7, lr}
    e2be:	af00      	add	r7, sp, #0
	__stdout_hook_install(console_out);
    e2c0:	4803      	ldr	r0, [pc, #12]	; (e2d0 <uart_console_hook_install+0x14>)
    e2c2:	f002 fbd1 	bl	10a68 <__stdout_hook_install>
	__printk_hook_install(console_out);
    e2c6:	4802      	ldr	r0, [pc, #8]	; (e2d0 <uart_console_hook_install+0x14>)
    e2c8:	f7ff fbd6 	bl	da78 <__printk_hook_install>
}
    e2cc:	bf00      	nop
    e2ce:	bd80      	pop	{r7, pc}
    e2d0:	0000e285 	.word	0x0000e285

0000e2d4 <uart_console_init>:
 * @brief Initialize one UART as the console/debug port
 *
 * @return 0 if successful, otherwise failed.
 */
static int uart_console_init(struct device *arg)
{
    e2d4:	b580      	push	{r7, lr}
    e2d6:	b082      	sub	sp, #8
    e2d8:	af00      	add	r7, sp, #0
    e2da:	6078      	str	r0, [r7, #4]

	ARG_UNUSED(arg);

	uart_console_dev = device_get_binding(CONFIG_UART_CONSOLE_ON_DEV_NAME);
    e2dc:	4806      	ldr	r0, [pc, #24]	; (e2f8 <uart_console_init+0x24>)
    e2de:	f014 fb4b 	bl	22978 <device_get_binding>
    e2e2:	4602      	mov	r2, r0
    e2e4:	4b05      	ldr	r3, [pc, #20]	; (e2fc <uart_console_init+0x28>)
    e2e6:	601a      	str	r2, [r3, #0]
		}
	}
	k_busy_wait(1000000);
#endif

	uart_console_hook_install();
    e2e8:	f7ff ffe8 	bl	e2bc <uart_console_hook_install>

	return 0;
    e2ec:	2300      	movs	r3, #0
}
    e2ee:	4618      	mov	r0, r3
    e2f0:	3708      	adds	r7, #8
    e2f2:	46bd      	mov	sp, r7
    e2f4:	bd80      	pop	{r7, pc}
    e2f6:	bf00      	nop
    e2f8:	0002ca00 	.word	0x0002ca00
    e2fc:	20022598 	.word	0x20022598

0000e300 <clock_event_check_and_clean>:

/* Return true if given event has enabled interrupt and is triggered. Event
 * is cleared.
 */
static bool clock_event_check_and_clean(nrf_clock_event_t evt, u32_t intmask)
{
    e300:	b580      	push	{r7, lr}
    e302:	b084      	sub	sp, #16
    e304:	af00      	add	r7, sp, #0
    e306:	4603      	mov	r3, r0
    e308:	6039      	str	r1, [r7, #0]
    e30a:	80fb      	strh	r3, [r7, #6]
	bool ret = nrf_clock_event_check(NRF_CLOCK, evt) &&
    e30c:	88fb      	ldrh	r3, [r7, #6]
    e30e:	4619      	mov	r1, r3
    e310:	4810      	ldr	r0, [pc, #64]	; (e354 <clock_event_check_and_clean+0x54>)
    e312:	f014 fc9b 	bl	22c4c <nrf_clock_event_check>
    e316:	4603      	mov	r3, r0
    e318:	2b00      	cmp	r3, #0
    e31a:	d008      	beq.n	e32e <clock_event_check_and_clean+0x2e>
			nrf_clock_int_enable_check(NRF_CLOCK, intmask);
    e31c:	6839      	ldr	r1, [r7, #0]
    e31e:	480d      	ldr	r0, [pc, #52]	; (e354 <clock_event_check_and_clean+0x54>)
    e320:	f014 fc62 	bl	22be8 <nrf_clock_int_enable_check>
    e324:	4603      	mov	r3, r0
	bool ret = nrf_clock_event_check(NRF_CLOCK, evt) &&
    e326:	2b00      	cmp	r3, #0
    e328:	d001      	beq.n	e32e <clock_event_check_and_clean+0x2e>
    e32a:	2301      	movs	r3, #1
    e32c:	e000      	b.n	e330 <clock_event_check_and_clean+0x30>
    e32e:	2300      	movs	r3, #0
    e330:	73fb      	strb	r3, [r7, #15]
    e332:	7bfb      	ldrb	r3, [r7, #15]
    e334:	f003 0301 	and.w	r3, r3, #1
    e338:	73fb      	strb	r3, [r7, #15]

	if (ret) {
    e33a:	7bfb      	ldrb	r3, [r7, #15]
    e33c:	2b00      	cmp	r3, #0
    e33e:	d004      	beq.n	e34a <clock_event_check_and_clean+0x4a>
		nrf_clock_event_clear(NRF_CLOCK, evt);
    e340:	88fb      	ldrh	r3, [r7, #6]
    e342:	4619      	mov	r1, r3
    e344:	4803      	ldr	r0, [pc, #12]	; (e354 <clock_event_check_and_clean+0x54>)
    e346:	f014 fc70 	bl	22c2a <nrf_clock_event_clear>
	}

	return ret;
    e34a:	7bfb      	ldrb	r3, [r7, #15]
}
    e34c:	4618      	mov	r0, r3
    e34e:	3710      	adds	r7, #16
    e350:	46bd      	mov	sp, r7
    e352:	bd80      	pop	{r7, pc}
    e354:	40005000 	.word	0x40005000

0000e358 <clock_irqs_disable>:

static void clock_irqs_disable(void)
{
    e358:	b580      	push	{r7, lr}
    e35a:	af00      	add	r7, sp, #0
	nrf_clock_int_disable(NRF_CLOCK,
    e35c:	2103      	movs	r1, #3
    e35e:	4802      	ldr	r0, [pc, #8]	; (e368 <clock_irqs_disable+0x10>)
    e360:	f014 fc33 	bl	22bca <nrf_clock_int_disable>
			 COND_CODE_1(CONFIG_USB_NRFX,
				(NRF_POWER_INT_USBDETECTED_MASK |
				 NRF_POWER_INT_USBREMOVED_MASK |
				 NRF_POWER_INT_USBPWRRDY_MASK),
				(0))));
}
    e364:	bf00      	nop
    e366:	bd80      	pop	{r7, pc}
    e368:	40005000 	.word	0x40005000

0000e36c <clock_irqs_enable>:

static void clock_irqs_enable(void)
{
    e36c:	b580      	push	{r7, lr}
    e36e:	af00      	add	r7, sp, #0
	nrf_clock_int_enable(NRF_CLOCK,
    e370:	2103      	movs	r1, #3
    e372:	4802      	ldr	r0, [pc, #8]	; (e37c <clock_irqs_enable+0x10>)
    e374:	f014 fc1a 	bl	22bac <nrf_clock_int_enable>
			 COND_CODE_1(CONFIG_USB_NRFX,
				(NRF_POWER_INT_USBDETECTED_MASK |
				 NRF_POWER_INT_USBREMOVED_MASK |
				 NRF_POWER_INT_USBPWRRDY_MASK),
				(0))));
}
    e378:	bf00      	nop
    e37a:	bd80      	pop	{r7, pc}
    e37c:	40005000 	.word	0x40005000

0000e380 <clock_stop>:

	return CLOCK_CONTROL_STATUS_OFF;
}

static int clock_stop(struct device *dev, clock_control_subsys_t subsys)
{
    e380:	b580      	push	{r7, lr}
    e382:	b08a      	sub	sp, #40	; 0x28
    e384:	af00      	add	r7, sp, #0
    e386:	6078      	str	r0, [r7, #4]
    e388:	6039      	str	r1, [r7, #0]
	enum clock_control_nrf_type type = (enum clock_control_nrf_type)subsys;
    e38a:	683b      	ldr	r3, [r7, #0]
    e38c:	f887 3023 	strb.w	r3, [r7, #35]	; 0x23
	const struct nrf_clock_control_sub_config *config;
	struct nrf_clock_control_sub_data *data;
	int err = 0;
    e390:	2300      	movs	r3, #0
    e392:	627b      	str	r3, [r7, #36]	; 0x24
	int key;

	__ASSERT_NO_MSG(type < CLOCK_CONTROL_NRF_TYPE_COUNT);
	config = get_sub_config(dev, type);
    e394:	f897 3023 	ldrb.w	r3, [r7, #35]	; 0x23
    e398:	4619      	mov	r1, r3
    e39a:	6878      	ldr	r0, [r7, #4]
    e39c:	f014 fc91 	bl	22cc2 <get_sub_config>
    e3a0:	61f8      	str	r0, [r7, #28]
	data = get_sub_data(dev, type);
    e3a2:	f897 3023 	ldrb.w	r3, [r7, #35]	; 0x23
    e3a6:	4619      	mov	r1, r3
    e3a8:	6878      	ldr	r0, [r7, #4]
    e3aa:	f014 fc74 	bl	22c96 <get_sub_data>
    e3ae:	61b8      	str	r0, [r7, #24]
	__asm__ volatile(
    e3b0:	f04f 0320 	mov.w	r3, #32
    e3b4:	f3ef 8211 	mrs	r2, BASEPRI
    e3b8:	f383 8811 	msr	BASEPRI, r3
    e3bc:	f3bf 8f6f 	isb	sy
    e3c0:	613a      	str	r2, [r7, #16]
    e3c2:	60fb      	str	r3, [r7, #12]
	return key;
    e3c4:	693b      	ldr	r3, [r7, #16]

	key = irq_lock();
    e3c6:	617b      	str	r3, [r7, #20]
	if (data->ref == 0) {
    e3c8:	69bb      	ldr	r3, [r7, #24]
    e3ca:	7a1b      	ldrb	r3, [r3, #8]
    e3cc:	2b00      	cmp	r3, #0
    e3ce:	d103      	bne.n	e3d8 <clock_stop+0x58>
		err = -EALREADY;
    e3d0:	f06f 0344 	mvn.w	r3, #68	; 0x44
    e3d4:	627b      	str	r3, [r7, #36]	; 0x24
		goto out;
    e3d6:	e018      	b.n	e40a <clock_stop+0x8a>
	}
	data->ref--;
    e3d8:	69bb      	ldr	r3, [r7, #24]
    e3da:	7a1b      	ldrb	r3, [r3, #8]
    e3dc:	3b01      	subs	r3, #1
    e3de:	b2da      	uxtb	r2, r3
    e3e0:	69bb      	ldr	r3, [r7, #24]
    e3e2:	721a      	strb	r2, [r3, #8]
	if (data->ref == 0) {
    e3e4:	69bb      	ldr	r3, [r7, #24]
    e3e6:	7a1b      	ldrb	r3, [r3, #8]
    e3e8:	2b00      	cmp	r3, #0
    e3ea:	d10d      	bne.n	e408 <clock_stop+0x88>
		DBG(dev, subsys, "Stopping");
		sys_slist_init(&data->list);
    e3ec:	69bb      	ldr	r3, [r7, #24]
    e3ee:	4618      	mov	r0, r3
    e3f0:	f014 faf0 	bl	229d4 <sys_slist_init>
		if (IS_ENABLED(CONFIG_CLOCK_CONTROL_NRF_K32SRC_RC_CALIBRATION)
			&& (subsys == CLOCK_CONTROL_NRF_SUBSYS_LF)) {
			z_nrf_clock_calibration_lfclk_stopped();
		}

		nrf_clock_task_trigger(NRF_CLOCK, config->stop_tsk);
    e3f4:	69fb      	ldr	r3, [r7, #28]
    e3f6:	78db      	ldrb	r3, [r3, #3]
    e3f8:	4619      	mov	r1, r3
    e3fa:	480a      	ldr	r0, [pc, #40]	; (e424 <clock_stop+0xa4>)
    e3fc:	f014 fc04 	bl	22c08 <nrf_clock_task_trigger>

		data->started = false;
    e400:	69bb      	ldr	r3, [r7, #24]
    e402:	2200      	movs	r2, #0
    e404:	725a      	strb	r2, [r3, #9]
    e406:	e000      	b.n	e40a <clock_stop+0x8a>
	}

out:
    e408:	bf00      	nop
	irq_unlock(key);
    e40a:	697b      	ldr	r3, [r7, #20]
    e40c:	60bb      	str	r3, [r7, #8]
	__asm__ volatile(
    e40e:	68bb      	ldr	r3, [r7, #8]
    e410:	f383 8811 	msr	BASEPRI, r3
    e414:	f3bf 8f6f 	isb	sy

	return err;
    e418:	6a7b      	ldr	r3, [r7, #36]	; 0x24
}
    e41a:	4618      	mov	r0, r3
    e41c:	3728      	adds	r7, #40	; 0x28
    e41e:	46bd      	mov	sp, r7
    e420:	bd80      	pop	{r7, pc}
    e422:	bf00      	nop
    e424:	40005000 	.word	0x40005000

0000e428 <clock_async_start>:
}

static int clock_async_start(struct device *dev,
			     clock_control_subsys_t subsys,
			     struct clock_control_async_data *data)
{
    e428:	b580      	push	{r7, lr}
    e42a:	b08c      	sub	sp, #48	; 0x30
    e42c:	af00      	add	r7, sp, #0
    e42e:	60f8      	str	r0, [r7, #12]
    e430:	60b9      	str	r1, [r7, #8]
    e432:	607a      	str	r2, [r7, #4]
	enum clock_control_nrf_type type = (enum clock_control_nrf_type)subsys;
    e434:	68bb      	ldr	r3, [r7, #8]
    e436:	f887 302f 	strb.w	r3, [r7, #47]	; 0x2f
	struct nrf_clock_control_sub_data *clk_data;
	int key;
	u8_t ref;

	__ASSERT_NO_MSG(type < CLOCK_CONTROL_NRF_TYPE_COUNT);
	config = get_sub_config(dev, type);
    e43a:	f897 302f 	ldrb.w	r3, [r7, #47]	; 0x2f
    e43e:	4619      	mov	r1, r3
    e440:	68f8      	ldr	r0, [r7, #12]
    e442:	f014 fc3e 	bl	22cc2 <get_sub_config>
    e446:	62b8      	str	r0, [r7, #40]	; 0x28
	clk_data = get_sub_data(dev, type);
    e448:	f897 302f 	ldrb.w	r3, [r7, #47]	; 0x2f
    e44c:	4619      	mov	r1, r3
    e44e:	68f8      	ldr	r0, [r7, #12]
    e450:	f014 fc21 	bl	22c96 <get_sub_data>
    e454:	6278      	str	r0, [r7, #36]	; 0x24
			((data != NULL) && (data->cb != NULL)));

	/* if node is in the list it means that it is scheduled for
	 * the second time.
	 */
	if ((data != NULL)
    e456:	687b      	ldr	r3, [r7, #4]
    e458:	2b00      	cmp	r3, #0
    e45a:	d00b      	beq.n	e474 <clock_async_start+0x4c>
	    && is_in_list(&clk_data->list, &data->node)) {
    e45c:	6a7b      	ldr	r3, [r7, #36]	; 0x24
    e45e:	687a      	ldr	r2, [r7, #4]
    e460:	4611      	mov	r1, r2
    e462:	4618      	mov	r0, r3
    e464:	f014 fc5e 	bl	22d24 <is_in_list>
    e468:	4603      	mov	r3, r0
    e46a:	2b00      	cmp	r3, #0
    e46c:	d002      	beq.n	e474 <clock_async_start+0x4c>
		return -EBUSY;
    e46e:	f06f 030f 	mvn.w	r3, #15
    e472:	e045      	b.n	e500 <clock_async_start+0xd8>
	__asm__ volatile(
    e474:	f04f 0320 	mov.w	r3, #32
    e478:	f3ef 8211 	mrs	r2, BASEPRI
    e47c:	f383 8811 	msr	BASEPRI, r3
    e480:	f3bf 8f6f 	isb	sy
    e484:	617a      	str	r2, [r7, #20]
    e486:	613b      	str	r3, [r7, #16]
	return key;
    e488:	697b      	ldr	r3, [r7, #20]
	}

	key = irq_lock();
    e48a:	623b      	str	r3, [r7, #32]
	ref = ++clk_data->ref;
    e48c:	6a7b      	ldr	r3, [r7, #36]	; 0x24
    e48e:	7a1b      	ldrb	r3, [r3, #8]
    e490:	3301      	adds	r3, #1
    e492:	b2da      	uxtb	r2, r3
    e494:	6a7b      	ldr	r3, [r7, #36]	; 0x24
    e496:	721a      	strb	r2, [r3, #8]
    e498:	6a7b      	ldr	r3, [r7, #36]	; 0x24
    e49a:	7a1b      	ldrb	r3, [r3, #8]
    e49c:	77fb      	strb	r3, [r7, #31]
	__ASSERT_NO_MSG(clk_data->ref > 0);
	irq_unlock(key);
    e49e:	6a3b      	ldr	r3, [r7, #32]
    e4a0:	61bb      	str	r3, [r7, #24]
	__asm__ volatile(
    e4a2:	69bb      	ldr	r3, [r7, #24]
    e4a4:	f383 8811 	msr	BASEPRI, r3
    e4a8:	f3bf 8f6f 	isb	sy

	if (data) {
    e4ac:	687b      	ldr	r3, [r7, #4]
    e4ae:	2b00      	cmp	r3, #0
    e4b0:	d01c      	beq.n	e4ec <clock_async_start+0xc4>
		bool already_started;

		clock_irqs_disable();
    e4b2:	f7ff ff51 	bl	e358 <clock_irqs_disable>
		already_started = clk_data->started;
    e4b6:	6a7b      	ldr	r3, [r7, #36]	; 0x24
    e4b8:	7a5b      	ldrb	r3, [r3, #9]
    e4ba:	77bb      	strb	r3, [r7, #30]
		if (!already_started) {
    e4bc:	7fbb      	ldrb	r3, [r7, #30]
    e4be:	f083 0301 	eor.w	r3, r3, #1
    e4c2:	b2db      	uxtb	r3, r3
    e4c4:	2b00      	cmp	r3, #0
    e4c6:	d005      	beq.n	e4d4 <clock_async_start+0xac>
			list_append(&clk_data->list, &data->node);
    e4c8:	6a7b      	ldr	r3, [r7, #36]	; 0x24
    e4ca:	687a      	ldr	r2, [r7, #4]
    e4cc:	4611      	mov	r1, r2
    e4ce:	4618      	mov	r0, r3
    e4d0:	f014 fc43 	bl	22d5a <list_append>
		}
		clock_irqs_enable();
    e4d4:	f7ff ff4a 	bl	e36c <clock_irqs_enable>

		if (already_started) {
    e4d8:	7fbb      	ldrb	r3, [r7, #30]
    e4da:	2b00      	cmp	r3, #0
    e4dc:	d006      	beq.n	e4ec <clock_async_start+0xc4>
			data->cb(dev, subsys, data->user_data);
    e4de:	687b      	ldr	r3, [r7, #4]
    e4e0:	685b      	ldr	r3, [r3, #4]
    e4e2:	687a      	ldr	r2, [r7, #4]
    e4e4:	6892      	ldr	r2, [r2, #8]
    e4e6:	68b9      	ldr	r1, [r7, #8]
    e4e8:	68f8      	ldr	r0, [r7, #12]
    e4ea:	4798      	blx	r3
		}
	}

	if (ref == 1) {
    e4ec:	7ffb      	ldrb	r3, [r7, #31]
    e4ee:	2b01      	cmp	r3, #1
    e4f0:	d105      	bne.n	e4fe <clock_async_start+0xd6>
		if (IS_ENABLED(CONFIG_NRF52_ANOMALY_132_WORKAROUND) &&
			(subsys == CLOCK_CONTROL_NRF_SUBSYS_LF)) {
			anomaly_132_workaround();
		}

		nrf_clock_task_trigger(NRF_CLOCK, config->start_tsk);
    e4f2:	6abb      	ldr	r3, [r7, #40]	; 0x28
    e4f4:	789b      	ldrb	r3, [r3, #2]
    e4f6:	4619      	mov	r1, r3
    e4f8:	4803      	ldr	r0, [pc, #12]	; (e508 <clock_async_start+0xe0>)
    e4fa:	f014 fb85 	bl	22c08 <nrf_clock_task_trigger>
	}

	return 0;
    e4fe:	2300      	movs	r3, #0
}
    e500:	4618      	mov	r0, r3
    e502:	3730      	adds	r7, #48	; 0x30
    e504:	46bd      	mov	sp, r7
    e506:	bd80      	pop	{r7, pc}
    e508:	40005000 	.word	0x40005000

0000e50c <clk_init>:
 * symbol.
 */
void nrf_power_clock_isr(void *arg);

static int clk_init(struct device *dev)
{
    e50c:	b580      	push	{r7, lr}
    e50e:	b084      	sub	sp, #16
    e510:	af00      	add	r7, sp, #0
    e512:	6078      	str	r0, [r7, #4]
	IRQ_CONNECT(DT_INST_IRQN(0), DT_INST_IRQ(0, priority),
    e514:	2200      	movs	r2, #0
    e516:	2101      	movs	r1, #1
    e518:	2005      	movs	r0, #5
    e51a:	f014 fe26 	bl	2316a <z_arm_irq_priority_set>
		    nrf_power_clock_isr, 0, 0);

	irq_enable(DT_INST_IRQN(0));
    e51e:	2005      	movs	r0, #5
    e520:	f014 fe09 	bl	23136 <arch_irq_enable>

	nrf_clock_lf_src_set(NRF_CLOCK, CLOCK_CONTROL_NRF_K32SRC);
    e524:	2102      	movs	r1, #2
    e526:	480e      	ldr	r0, [pc, #56]	; (e560 <clk_init+0x54>)
    e528:	f014 fba5 	bl	22c76 <nrf_clock_lf_src_set>

	if (IS_ENABLED(CONFIG_CLOCK_CONTROL_NRF_K32SRC_RC_CALIBRATION)) {
		z_nrf_clock_calibration_init(dev);
	}

	clock_irqs_enable();
    e52c:	f7ff ff1e 	bl	e36c <clock_irqs_enable>

	for (enum clock_control_nrf_type i = 0;
    e530:	2300      	movs	r3, #0
    e532:	73fb      	strb	r3, [r7, #15]
    e534:	e00b      	b.n	e54e <clk_init+0x42>
		i < CLOCK_CONTROL_NRF_TYPE_COUNT; i++) {
		sys_slist_init(&(get_sub_data(dev, i)->list));
    e536:	7bfb      	ldrb	r3, [r7, #15]
    e538:	4619      	mov	r1, r3
    e53a:	6878      	ldr	r0, [r7, #4]
    e53c:	f014 fbab 	bl	22c96 <get_sub_data>
    e540:	4603      	mov	r3, r0
    e542:	4618      	mov	r0, r3
    e544:	f014 fa46 	bl	229d4 <sys_slist_init>
		i < CLOCK_CONTROL_NRF_TYPE_COUNT; i++) {
    e548:	7bfb      	ldrb	r3, [r7, #15]
    e54a:	3301      	adds	r3, #1
    e54c:	73fb      	strb	r3, [r7, #15]
	for (enum clock_control_nrf_type i = 0;
    e54e:	7bfb      	ldrb	r3, [r7, #15]
    e550:	2b01      	cmp	r3, #1
    e552:	d9f0      	bls.n	e536 <clk_init+0x2a>
	}

	return 0;
    e554:	2300      	movs	r3, #0
}
    e556:	4618      	mov	r0, r3
    e558:	3710      	adds	r7, #16
    e55a:	46bd      	mov	sp, r7
    e55c:	bd80      	pop	{r7, pc}
    e55e:	bf00      	nop
    e560:	40005000 	.word	0x40005000

0000e564 <nrf_power_clock_isr>:
	}
#endif
}

void nrf_power_clock_isr(void *arg)
{
    e564:	b580      	push	{r7, lr}
    e566:	b084      	sub	sp, #16
    e568:	af00      	add	r7, sp, #0
    e56a:	6078      	str	r0, [r7, #4]
	ARG_UNUSED(arg);
	struct device *dev = DEVICE_GET(clock_nrf);
    e56c:	4b15      	ldr	r3, [pc, #84]	; (e5c4 <nrf_power_clock_isr+0x60>)
    e56e:	60fb      	str	r3, [r7, #12]

	if (clock_event_check_and_clean(NRF_CLOCK_EVENT_HFCLKSTARTED,
    e570:	2101      	movs	r1, #1
    e572:	f44f 7080 	mov.w	r0, #256	; 0x100
    e576:	f7ff fec3 	bl	e300 <clock_event_check_and_clean>
    e57a:	4603      	mov	r3, r0
    e57c:	2b00      	cmp	r3, #0
    e57e:	d00f      	beq.n	e5a0 <nrf_power_clock_isr+0x3c>
					NRF_CLOCK_INT_HF_STARTED_MASK)) {
		struct nrf_clock_control_sub_data *data =
				get_sub_data(dev, CLOCK_CONTROL_NRF_TYPE_HFCLK);
    e580:	2100      	movs	r1, #0
    e582:	68f8      	ldr	r0, [r7, #12]
    e584:	f014 fb87 	bl	22c96 <get_sub_data>
    e588:	60b8      	str	r0, [r7, #8]

		/* Check needed due to anomaly 201:
		 * HFCLKSTARTED may be generated twice.
		 */
		if (!data->started) {
    e58a:	68bb      	ldr	r3, [r7, #8]
    e58c:	7a5b      	ldrb	r3, [r3, #9]
    e58e:	f083 0301 	eor.w	r3, r3, #1
    e592:	b2db      	uxtb	r3, r3
    e594:	2b00      	cmp	r3, #0
    e596:	d003      	beq.n	e5a0 <nrf_power_clock_isr+0x3c>
			clkstarted_handle(dev, CLOCK_CONTROL_NRF_TYPE_HFCLK);
    e598:	2100      	movs	r1, #0
    e59a:	68f8      	ldr	r0, [r7, #12]
    e59c:	f014 fc2e 	bl	22dfc <clkstarted_handle>
		}
	}

	if (clock_event_check_and_clean(NRF_CLOCK_EVENT_LFCLKSTARTED,
    e5a0:	2102      	movs	r1, #2
    e5a2:	f44f 7082 	mov.w	r0, #260	; 0x104
    e5a6:	f7ff feab 	bl	e300 <clock_event_check_and_clean>
    e5aa:	4603      	mov	r3, r0
    e5ac:	2b00      	cmp	r3, #0
    e5ae:	d003      	beq.n	e5b8 <nrf_power_clock_isr+0x54>
					NRF_CLOCK_INT_LF_STARTED_MASK)) {
		if (IS_ENABLED(
			CONFIG_CLOCK_CONTROL_NRF_K32SRC_RC_CALIBRATION)) {
			z_nrf_clock_calibration_lfclk_started();
		}
		clkstarted_handle(dev, CLOCK_CONTROL_NRF_TYPE_LFCLK);
    e5b0:	2101      	movs	r1, #1
    e5b2:	68f8      	ldr	r0, [r7, #12]
    e5b4:	f014 fc22 	bl	22dfc <clkstarted_handle>
	}

	usb_power_isr();
    e5b8:	f014 fc44 	bl	22e44 <usb_power_isr>

	if (IS_ENABLED(CONFIG_CLOCK_CONTROL_NRF_K32SRC_RC_CALIBRATION)) {
		z_nrf_clock_calibration_isr();
	}
}
    e5bc:	bf00      	nop
    e5be:	3710      	adds	r7, #16
    e5c0:	46bd      	mov	sp, r7
    e5c2:	bd80      	pop	{r7, pc}
    e5c4:	200200d8 	.word	0x200200d8

0000e5c8 <__NVIC_ClearPendingIRQ>:
  \details Clears the pending bit of a device specific interrupt in the NVIC pending register.
  \param [in]      IRQn  Device specific interrupt number.
  \note    IRQn must not be negative.
 */
__STATIC_INLINE void __NVIC_ClearPendingIRQ(IRQn_Type IRQn)
{
    e5c8:	b480      	push	{r7}
    e5ca:	b083      	sub	sp, #12
    e5cc:	af00      	add	r7, sp, #0
    e5ce:	4603      	mov	r3, r0
    e5d0:	71fb      	strb	r3, [r7, #7]
  if ((int32_t)(IRQn) >= 0)
    e5d2:	f997 3007 	ldrsb.w	r3, [r7, #7]
    e5d6:	2b00      	cmp	r3, #0
    e5d8:	db0c      	blt.n	e5f4 <__NVIC_ClearPendingIRQ+0x2c>
  {
    NVIC->ICPR[(((uint32_t)IRQn) >> 5UL)] = (uint32_t)(1UL << (((uint32_t)IRQn) & 0x1FUL));
    e5da:	79fb      	ldrb	r3, [r7, #7]
    e5dc:	f003 021f 	and.w	r2, r3, #31
    e5e0:	4907      	ldr	r1, [pc, #28]	; (e600 <__NVIC_ClearPendingIRQ+0x38>)
    e5e2:	f997 3007 	ldrsb.w	r3, [r7, #7]
    e5e6:	095b      	lsrs	r3, r3, #5
    e5e8:	2001      	movs	r0, #1
    e5ea:	fa00 f202 	lsl.w	r2, r0, r2
    e5ee:	3360      	adds	r3, #96	; 0x60
    e5f0:	f841 2023 	str.w	r2, [r1, r3, lsl #2]
  }
}
    e5f4:	bf00      	nop
    e5f6:	370c      	adds	r7, #12
    e5f8:	46bd      	mov	sp, r7
    e5fa:	f85d 7b04 	ldr.w	r7, [sp], #4
    e5fe:	4770      	bx	lr
    e600:	e000e100 	.word	0xe000e100

0000e604 <set_comparator>:
{
	return (a - b) & COUNTER_MAX;
}

static void set_comparator(u32_t cyc)
{
    e604:	b580      	push	{r7, lr}
    e606:	b082      	sub	sp, #8
    e608:	af00      	add	r7, sp, #0
    e60a:	6078      	str	r0, [r7, #4]
	nrf_rtc_cc_set(RTC, 0, cyc & COUNTER_MAX);
    e60c:	687b      	ldr	r3, [r7, #4]
    e60e:	f023 437f 	bic.w	r3, r3, #4278190080	; 0xff000000
    e612:	461a      	mov	r2, r3
    e614:	2100      	movs	r1, #0
    e616:	4803      	ldr	r0, [pc, #12]	; (e624 <set_comparator+0x20>)
    e618:	f014 fc5e 	bl	22ed8 <nrf_rtc_cc_set>
}
    e61c:	bf00      	nop
    e61e:	3708      	adds	r7, #8
    e620:	46bd      	mov	sp, r7
    e622:	bd80      	pop	{r7, pc}
    e624:	40015000 	.word	0x40015000

0000e628 <get_comparator>:

static u32_t get_comparator(void)
{
    e628:	b580      	push	{r7, lr}
    e62a:	af00      	add	r7, sp, #0
	return nrf_rtc_cc_get(RTC, 0);
    e62c:	2100      	movs	r1, #0
    e62e:	4803      	ldr	r0, [pc, #12]	; (e63c <get_comparator+0x14>)
    e630:	f014 fc65 	bl	22efe <nrf_rtc_cc_get>
    e634:	4603      	mov	r3, r0
}
    e636:	4618      	mov	r0, r3
    e638:	bd80      	pop	{r7, pc}
    e63a:	bf00      	nop
    e63c:	40015000 	.word	0x40015000

0000e640 <event_clear>:

static void event_clear(void)
{
    e640:	b580      	push	{r7, lr}
    e642:	af00      	add	r7, sp, #0
	nrf_rtc_event_clear(RTC, NRF_RTC_EVENT_COMPARE_0);
    e644:	f44f 71a0 	mov.w	r1, #320	; 0x140
    e648:	4802      	ldr	r0, [pc, #8]	; (e654 <event_clear+0x14>)
    e64a:	f014 fc87 	bl	22f5c <nrf_rtc_event_clear>
}
    e64e:	bf00      	nop
    e650:	bd80      	pop	{r7, pc}
    e652:	bf00      	nop
    e654:	40015000 	.word	0x40015000

0000e658 <event_enable>:

static void event_enable(void)
{
    e658:	b580      	push	{r7, lr}
    e65a:	af00      	add	r7, sp, #0
	nrf_rtc_event_enable(RTC, NRF_RTC_INT_COMPARE0_MASK);
    e65c:	f44f 3180 	mov.w	r1, #65536	; 0x10000
    e660:	4802      	ldr	r0, [pc, #8]	; (e66c <event_enable+0x14>)
    e662:	f014 fcba 	bl	22fda <nrf_rtc_event_enable>
}
    e666:	bf00      	nop
    e668:	bd80      	pop	{r7, pc}
    e66a:	bf00      	nop
    e66c:	40015000 	.word	0x40015000

0000e670 <int_disable>:

static void int_disable(void)
{
    e670:	b580      	push	{r7, lr}
    e672:	af00      	add	r7, sp, #0
	nrf_rtc_int_disable(RTC, NRF_RTC_INT_COMPARE0_MASK);
    e674:	f44f 3180 	mov.w	r1, #65536	; 0x10000
    e678:	4802      	ldr	r0, [pc, #8]	; (e684 <int_disable+0x14>)
    e67a:	f014 fc60 	bl	22f3e <nrf_rtc_int_disable>
}
    e67e:	bf00      	nop
    e680:	bd80      	pop	{r7, pc}
    e682:	bf00      	nop
    e684:	40015000 	.word	0x40015000

0000e688 <int_enable>:

static void int_enable(void)
{
    e688:	b580      	push	{r7, lr}
    e68a:	af00      	add	r7, sp, #0
	nrf_rtc_int_enable(RTC, NRF_RTC_INT_COMPARE0_MASK);
    e68c:	f44f 3180 	mov.w	r1, #65536	; 0x10000
    e690:	4802      	ldr	r0, [pc, #8]	; (e69c <int_enable+0x14>)
    e692:	f014 fc45 	bl	22f20 <nrf_rtc_int_enable>
}
    e696:	bf00      	nop
    e698:	bd80      	pop	{r7, pc}
    e69a:	bf00      	nop
    e69c:	40015000 	.word	0x40015000

0000e6a0 <counter>:

static u32_t counter(void)
{
    e6a0:	b580      	push	{r7, lr}
    e6a2:	af00      	add	r7, sp, #0
	return nrf_rtc_counter_get(RTC);
    e6a4:	4802      	ldr	r0, [pc, #8]	; (e6b0 <counter+0x10>)
    e6a6:	f014 fc6a 	bl	22f7e <nrf_rtc_counter_get>
    e6aa:	4603      	mov	r3, r0
}
    e6ac:	4618      	mov	r0, r3
    e6ae:	bd80      	pop	{r7, pc}
    e6b0:	40015000 	.word	0x40015000

0000e6b4 <rtc1_nrf_isr>:
 * probably better abstract that at some point (e.g. query and reset
 * it by pointer at runtime, maybe?) so we don't have this leaky
 * symbol.
 */
void rtc1_nrf_isr(void *arg)
{
    e6b4:	b590      	push	{r4, r7, lr}
    e6b6:	b085      	sub	sp, #20
    e6b8:	af00      	add	r7, sp, #0
    e6ba:	6078      	str	r0, [r7, #4]
	ARG_UNUSED(arg);
	event_clear();
    e6bc:	f7ff ffc0 	bl	e640 <event_clear>

	u32_t t = get_comparator();
    e6c0:	f7ff ffb2 	bl	e628 <get_comparator>
    e6c4:	60f8      	str	r0, [r7, #12]
	u32_t dticks = counter_sub(t, last_count) / CYC_PER_TICK;
    e6c6:	4b16      	ldr	r3, [pc, #88]	; (e720 <rtc1_nrf_isr+0x6c>)
    e6c8:	681b      	ldr	r3, [r3, #0]
    e6ca:	4619      	mov	r1, r3
    e6cc:	68f8      	ldr	r0, [r7, #12]
    e6ce:	f014 fc93 	bl	22ff8 <counter_sub>
    e6d2:	4604      	mov	r4, r0
    e6d4:	f014 fbce 	bl	22e74 <sys_clock_hw_cycles_per_sec>
    e6d8:	4603      	mov	r3, r0
    e6da:	2b00      	cmp	r3, #0
    e6dc:	da02      	bge.n	e6e4 <rtc1_nrf_isr+0x30>
    e6de:	f503 43ff 	add.w	r3, r3, #32640	; 0x7f80
    e6e2:	337f      	adds	r3, #127	; 0x7f
    e6e4:	13db      	asrs	r3, r3, #15
    e6e6:	fbb4 f3f3 	udiv	r3, r4, r3
    e6ea:	60bb      	str	r3, [r7, #8]

	last_count += dticks * CYC_PER_TICK;
    e6ec:	f014 fbc2 	bl	22e74 <sys_clock_hw_cycles_per_sec>
    e6f0:	4603      	mov	r3, r0
    e6f2:	2b00      	cmp	r3, #0
    e6f4:	da02      	bge.n	e6fc <rtc1_nrf_isr+0x48>
    e6f6:	f503 43ff 	add.w	r3, r3, #32640	; 0x7f80
    e6fa:	337f      	adds	r3, #127	; 0x7f
    e6fc:	13db      	asrs	r3, r3, #15
    e6fe:	461a      	mov	r2, r3
    e700:	68bb      	ldr	r3, [r7, #8]
    e702:	fb03 f202 	mul.w	r2, r3, r2
    e706:	4b06      	ldr	r3, [pc, #24]	; (e720 <rtc1_nrf_isr+0x6c>)
    e708:	681b      	ldr	r3, [r3, #0]
    e70a:	4413      	add	r3, r2
    e70c:	4a04      	ldr	r2, [pc, #16]	; (e720 <rtc1_nrf_isr+0x6c>)
    e70e:	6013      	str	r3, [r2, #0]
		 * so it won't get preempted by the interrupt.
		 */
		set_absolute_ticks(last_count + CYC_PER_TICK);
	}

	z_clock_announce(IS_ENABLED(CONFIG_TICKLESS_KERNEL) ? dticks : 1);
    e710:	68bb      	ldr	r3, [r7, #8]
    e712:	4618      	mov	r0, r3
    e714:	f012 ff8e 	bl	21634 <z_clock_announce>
}
    e718:	bf00      	nop
    e71a:	3714      	adds	r7, #20
    e71c:	46bd      	mov	sp, r7
    e71e:	bd90      	pop	{r4, r7, pc}
    e720:	200225b4 	.word	0x200225b4

0000e724 <z_clock_driver_init>:

int z_clock_driver_init(struct device *device)
{
    e724:	b580      	push	{r7, lr}
    e726:	b084      	sub	sp, #16
    e728:	af00      	add	r7, sp, #0
    e72a:	6078      	str	r0, [r7, #4]
	struct device *clock;

	ARG_UNUSED(device);

	clock = device_get_binding(DT_LABEL(DT_INST(0, nordic_nrf_clock)));
    e72c:	4816      	ldr	r0, [pc, #88]	; (e788 <z_clock_driver_init+0x64>)
    e72e:	f014 fbb5 	bl	22e9c <device_get_binding>
    e732:	60f8      	str	r0, [r7, #12]
	if (!clock) {
    e734:	68fb      	ldr	r3, [r7, #12]
    e736:	2b00      	cmp	r3, #0
    e738:	d102      	bne.n	e740 <z_clock_driver_init+0x1c>
		return -1;
    e73a:	f04f 33ff 	mov.w	r3, #4294967295
    e73e:	e01f      	b.n	e780 <z_clock_driver_init+0x5c>
	}

	clock_control_on(clock, CLOCK_CONTROL_NRF_SUBSYS_LF);
    e740:	2101      	movs	r1, #1
    e742:	68f8      	ldr	r0, [r7, #12]
    e744:	f014 fbb6 	bl	22eb4 <clock_control_on>

	/* TODO: replace with counter driver to access RTC */
	nrf_rtc_prescaler_set(RTC, 0);
    e748:	2100      	movs	r1, #0
    e74a:	4810      	ldr	r0, [pc, #64]	; (e78c <z_clock_driver_init+0x68>)
    e74c:	f014 fc24 	bl	22f98 <nrf_rtc_prescaler_set>
	event_clear();
    e750:	f7ff ff76 	bl	e640 <event_clear>
	NVIC_ClearPendingIRQ(RTC1_IRQn);
    e754:	2015      	movs	r0, #21
    e756:	f7ff ff37 	bl	e5c8 <__NVIC_ClearPendingIRQ>
	int_enable();
    e75a:	f7ff ff95 	bl	e688 <int_enable>

	IRQ_CONNECT(RTC1_IRQn, 1, rtc1_nrf_isr, 0, 0);
    e75e:	2200      	movs	r2, #0
    e760:	2101      	movs	r1, #1
    e762:	2015      	movs	r0, #21
    e764:	f014 fd01 	bl	2316a <z_arm_irq_priority_set>
	irq_enable(RTC1_IRQn);
    e768:	2015      	movs	r0, #21
    e76a:	f014 fce4 	bl	23136 <arch_irq_enable>

	nrf_rtc_task_trigger(RTC, NRF_RTC_TASK_CLEAR);
    e76e:	2108      	movs	r1, #8
    e770:	4806      	ldr	r0, [pc, #24]	; (e78c <z_clock_driver_init+0x68>)
    e772:	f014 fc20 	bl	22fb6 <nrf_rtc_task_trigger>
	nrf_rtc_task_trigger(RTC, NRF_RTC_TASK_START);
    e776:	2100      	movs	r1, #0
    e778:	4804      	ldr	r0, [pc, #16]	; (e78c <z_clock_driver_init+0x68>)
    e77a:	f014 fc1c 	bl	22fb6 <nrf_rtc_task_trigger>

	if (!IS_ENABLED(CONFIG_TICKLESS_KERNEL)) {
		set_comparator(counter() + CYC_PER_TICK);
	}

	return 0;
    e77e:	2300      	movs	r3, #0
}
    e780:	4618      	mov	r0, r3
    e782:	3710      	adds	r7, #16
    e784:	46bd      	mov	sp, r7
    e786:	bd80      	pop	{r7, pc}
    e788:	0002ca1c 	.word	0x0002ca1c
    e78c:	40015000 	.word	0x40015000

0000e790 <z_clock_set_timeout>:

void z_clock_set_timeout(s32_t ticks, bool idle)
{
    e790:	b5b0      	push	{r4, r5, r7, lr}
    e792:	b084      	sub	sp, #16
    e794:	af00      	add	r7, sp, #0
    e796:	6078      	str	r0, [r7, #4]
    e798:	460b      	mov	r3, r1
    e79a:	70fb      	strb	r3, [r7, #3]

	if (!IS_ENABLED(CONFIG_TICKLESS_KERNEL)) {
		return;
	}

	ticks = (ticks == K_TICKS_FOREVER) ? MAX_TICKS : ticks;
    e79c:	687b      	ldr	r3, [r7, #4]
    e79e:	f1b3 3fff 	cmp.w	r3, #4294967295
    e7a2:	d116      	bne.n	e7d2 <z_clock_set_timeout+0x42>
    e7a4:	f014 fb66 	bl	22e74 <sys_clock_hw_cycles_per_sec>
    e7a8:	4603      	mov	r3, r0
    e7aa:	2b00      	cmp	r3, #0
    e7ac:	da02      	bge.n	e7b4 <z_clock_set_timeout+0x24>
    e7ae:	f503 43ff 	add.w	r3, r3, #32640	; 0x7f80
    e7b2:	337f      	adds	r3, #127	; 0x7f
    e7b4:	13db      	asrs	r3, r3, #15
    e7b6:	f5c3 0400 	rsb	r4, r3, #8388608	; 0x800000
    e7ba:	f014 fb5b 	bl	22e74 <sys_clock_hw_cycles_per_sec>
    e7be:	4603      	mov	r3, r0
    e7c0:	2b00      	cmp	r3, #0
    e7c2:	da02      	bge.n	e7ca <z_clock_set_timeout+0x3a>
    e7c4:	f503 43ff 	add.w	r3, r3, #32640	; 0x7f80
    e7c8:	337f      	adds	r3, #127	; 0x7f
    e7ca:	13db      	asrs	r3, r3, #15
    e7cc:	fbb4 f3f3 	udiv	r3, r4, r3
    e7d0:	e000      	b.n	e7d4 <z_clock_set_timeout+0x44>
    e7d2:	687b      	ldr	r3, [r7, #4]
    e7d4:	607b      	str	r3, [r7, #4]
	ticks = MAX(MIN(ticks - 1, (s32_t)MAX_TICKS), 0);
    e7d6:	687b      	ldr	r3, [r7, #4]
    e7d8:	1e5c      	subs	r4, r3, #1
    e7da:	f014 fb4b 	bl	22e74 <sys_clock_hw_cycles_per_sec>
    e7de:	4603      	mov	r3, r0
    e7e0:	2b00      	cmp	r3, #0
    e7e2:	da02      	bge.n	e7ea <z_clock_set_timeout+0x5a>
    e7e4:	f503 43ff 	add.w	r3, r3, #32640	; 0x7f80
    e7e8:	337f      	adds	r3, #127	; 0x7f
    e7ea:	13db      	asrs	r3, r3, #15
    e7ec:	f5c3 0500 	rsb	r5, r3, #8388608	; 0x800000
    e7f0:	f014 fb40 	bl	22e74 <sys_clock_hw_cycles_per_sec>
    e7f4:	4603      	mov	r3, r0
    e7f6:	2b00      	cmp	r3, #0
    e7f8:	da02      	bge.n	e800 <z_clock_set_timeout+0x70>
    e7fa:	f503 43ff 	add.w	r3, r3, #32640	; 0x7f80
    e7fe:	337f      	adds	r3, #127	; 0x7f
    e800:	13db      	asrs	r3, r3, #15
    e802:	fbb5 f3f3 	udiv	r3, r5, r3
    e806:	429c      	cmp	r4, r3
    e808:	da07      	bge.n	e81a <z_clock_set_timeout+0x8a>
    e80a:	687b      	ldr	r3, [r7, #4]
    e80c:	3b01      	subs	r3, #1
    e80e:	2b00      	cmp	r3, #0
    e810:	bfcc      	ite	gt
    e812:	2301      	movgt	r3, #1
    e814:	2300      	movle	r3, #0
    e816:	b2db      	uxtb	r3, r3
    e818:	e01a      	b.n	e850 <z_clock_set_timeout+0xc0>
    e81a:	f014 fb2b 	bl	22e74 <sys_clock_hw_cycles_per_sec>
    e81e:	4603      	mov	r3, r0
    e820:	2b00      	cmp	r3, #0
    e822:	da02      	bge.n	e82a <z_clock_set_timeout+0x9a>
    e824:	f503 43ff 	add.w	r3, r3, #32640	; 0x7f80
    e828:	337f      	adds	r3, #127	; 0x7f
    e82a:	13db      	asrs	r3, r3, #15
    e82c:	f5c3 0400 	rsb	r4, r3, #8388608	; 0x800000
    e830:	f014 fb20 	bl	22e74 <sys_clock_hw_cycles_per_sec>
    e834:	4603      	mov	r3, r0
    e836:	2b00      	cmp	r3, #0
    e838:	da02      	bge.n	e840 <z_clock_set_timeout+0xb0>
    e83a:	f503 43ff 	add.w	r3, r3, #32640	; 0x7f80
    e83e:	337f      	adds	r3, #127	; 0x7f
    e840:	13db      	asrs	r3, r3, #15
    e842:	fbb4 f3f3 	udiv	r3, r4, r3
    e846:	2b00      	cmp	r3, #0
    e848:	bfcc      	ite	gt
    e84a:	2301      	movgt	r3, #1
    e84c:	2300      	movle	r3, #0
    e84e:	b2db      	uxtb	r3, r3
    e850:	2b00      	cmp	r3, #0
    e852:	d033      	beq.n	e8bc <z_clock_set_timeout+0x12c>
    e854:	687b      	ldr	r3, [r7, #4]
    e856:	1e5c      	subs	r4, r3, #1
    e858:	f014 fb0c 	bl	22e74 <sys_clock_hw_cycles_per_sec>
    e85c:	4603      	mov	r3, r0
    e85e:	2b00      	cmp	r3, #0
    e860:	da02      	bge.n	e868 <z_clock_set_timeout+0xd8>
    e862:	f503 43ff 	add.w	r3, r3, #32640	; 0x7f80
    e866:	337f      	adds	r3, #127	; 0x7f
    e868:	13db      	asrs	r3, r3, #15
    e86a:	f5c3 0500 	rsb	r5, r3, #8388608	; 0x800000
    e86e:	f014 fb01 	bl	22e74 <sys_clock_hw_cycles_per_sec>
    e872:	4603      	mov	r3, r0
    e874:	2b00      	cmp	r3, #0
    e876:	da02      	bge.n	e87e <z_clock_set_timeout+0xee>
    e878:	f503 43ff 	add.w	r3, r3, #32640	; 0x7f80
    e87c:	337f      	adds	r3, #127	; 0x7f
    e87e:	13db      	asrs	r3, r3, #15
    e880:	fbb5 f3f3 	udiv	r3, r5, r3
    e884:	429c      	cmp	r4, r3
    e886:	da02      	bge.n	e88e <z_clock_set_timeout+0xfe>
    e888:	687b      	ldr	r3, [r7, #4]
    e88a:	3b01      	subs	r3, #1
    e88c:	e017      	b.n	e8be <z_clock_set_timeout+0x12e>
    e88e:	f014 faf1 	bl	22e74 <sys_clock_hw_cycles_per_sec>
    e892:	4603      	mov	r3, r0
    e894:	2b00      	cmp	r3, #0
    e896:	da02      	bge.n	e89e <z_clock_set_timeout+0x10e>
    e898:	f503 43ff 	add.w	r3, r3, #32640	; 0x7f80
    e89c:	337f      	adds	r3, #127	; 0x7f
    e89e:	13db      	asrs	r3, r3, #15
    e8a0:	f5c3 0400 	rsb	r4, r3, #8388608	; 0x800000
    e8a4:	f014 fae6 	bl	22e74 <sys_clock_hw_cycles_per_sec>
    e8a8:	4603      	mov	r3, r0
    e8aa:	2b00      	cmp	r3, #0
    e8ac:	da02      	bge.n	e8b4 <z_clock_set_timeout+0x124>
    e8ae:	f503 43ff 	add.w	r3, r3, #32640	; 0x7f80
    e8b2:	337f      	adds	r3, #127	; 0x7f
    e8b4:	13db      	asrs	r3, r3, #15
    e8b6:	fbb4 f3f3 	udiv	r3, r4, r3
    e8ba:	e000      	b.n	e8be <z_clock_set_timeout+0x12e>
    e8bc:	2300      	movs	r3, #0
    e8be:	607b      	str	r3, [r7, #4]

	u32_t unannounced = counter_sub(counter(), last_count);
    e8c0:	f7ff feee 	bl	e6a0 <counter>
    e8c4:	4602      	mov	r2, r0
    e8c6:	4b4b      	ldr	r3, [pc, #300]	; (e9f4 <z_clock_set_timeout+0x264>)
    e8c8:	681b      	ldr	r3, [r3, #0]
    e8ca:	4619      	mov	r1, r3
    e8cc:	4610      	mov	r0, r2
    e8ce:	f014 fb93 	bl	22ff8 <counter_sub>
    e8d2:	60b8      	str	r0, [r7, #8]
	/* If we haven't announced for more than half the 24-bit wrap
	 * duration, then force an announce to avoid loss of a wrap
	 * event.  This can happen if new timeouts keep being set
	 * before the existing one triggers the interrupt.
	 */
	if (unannounced >= COUNTER_HALF_SPAN) {
    e8d4:	68bb      	ldr	r3, [r7, #8]
    e8d6:	f5b3 0f00 	cmp.w	r3, #8388608	; 0x800000
    e8da:	d301      	bcc.n	e8e0 <z_clock_set_timeout+0x150>
		ticks = 0;
    e8dc:	2300      	movs	r3, #0
    e8de:	607b      	str	r3, [r7, #4]
	}

	/* Get the cycles from last_count to the tick boundary after
	 * the requested ticks have passed starting now.
	 */
	cyc = ticks * CYC_PER_TICK + 1 + unannounced;
    e8e0:	f014 fac8 	bl	22e74 <sys_clock_hw_cycles_per_sec>
    e8e4:	4603      	mov	r3, r0
    e8e6:	2b00      	cmp	r3, #0
    e8e8:	da02      	bge.n	e8f0 <z_clock_set_timeout+0x160>
    e8ea:	f503 43ff 	add.w	r3, r3, #32640	; 0x7f80
    e8ee:	337f      	adds	r3, #127	; 0x7f
    e8f0:	13db      	asrs	r3, r3, #15
    e8f2:	461a      	mov	r2, r3
    e8f4:	687b      	ldr	r3, [r7, #4]
    e8f6:	fb03 f302 	mul.w	r3, r3, r2
    e8fa:	461a      	mov	r2, r3
    e8fc:	68bb      	ldr	r3, [r7, #8]
    e8fe:	4413      	add	r3, r2
    e900:	3301      	adds	r3, #1
    e902:	60fb      	str	r3, [r7, #12]
	cyc += (CYC_PER_TICK - 1);
    e904:	f014 fab6 	bl	22e74 <sys_clock_hw_cycles_per_sec>
    e908:	4603      	mov	r3, r0
    e90a:	2b00      	cmp	r3, #0
    e90c:	da02      	bge.n	e914 <z_clock_set_timeout+0x184>
    e90e:	f503 43ff 	add.w	r3, r3, #32640	; 0x7f80
    e912:	337f      	adds	r3, #127	; 0x7f
    e914:	13db      	asrs	r3, r3, #15
    e916:	3b01      	subs	r3, #1
    e918:	461a      	mov	r2, r3
    e91a:	68fb      	ldr	r3, [r7, #12]
    e91c:	4413      	add	r3, r2
    e91e:	60fb      	str	r3, [r7, #12]
	cyc = (cyc / CYC_PER_TICK) * CYC_PER_TICK;
    e920:	f014 faa8 	bl	22e74 <sys_clock_hw_cycles_per_sec>
    e924:	4603      	mov	r3, r0
    e926:	2b00      	cmp	r3, #0
    e928:	da02      	bge.n	e930 <z_clock_set_timeout+0x1a0>
    e92a:	f503 43ff 	add.w	r3, r3, #32640	; 0x7f80
    e92e:	337f      	adds	r3, #127	; 0x7f
    e930:	13db      	asrs	r3, r3, #15
    e932:	461a      	mov	r2, r3
    e934:	68fb      	ldr	r3, [r7, #12]
    e936:	fbb3 f4f2 	udiv	r4, r3, r2
    e93a:	f014 fa9b 	bl	22e74 <sys_clock_hw_cycles_per_sec>
    e93e:	4603      	mov	r3, r0
    e940:	2b00      	cmp	r3, #0
    e942:	da02      	bge.n	e94a <z_clock_set_timeout+0x1ba>
    e944:	f503 43ff 	add.w	r3, r3, #32640	; 0x7f80
    e948:	337f      	adds	r3, #127	; 0x7f
    e94a:	13db      	asrs	r3, r3, #15
    e94c:	fb03 f304 	mul.w	r3, r3, r4
    e950:	60fb      	str	r3, [r7, #12]

	/* Due to elapsed time the calculation above might produce a
	 * duration that laps the counter.  Don't let it.
	 */
	if (cyc > MAX_CYCLES) {
    e952:	f014 fa8f 	bl	22e74 <sys_clock_hw_cycles_per_sec>
    e956:	4603      	mov	r3, r0
    e958:	2b00      	cmp	r3, #0
    e95a:	da02      	bge.n	e962 <z_clock_set_timeout+0x1d2>
    e95c:	f503 43ff 	add.w	r3, r3, #32640	; 0x7f80
    e960:	337f      	adds	r3, #127	; 0x7f
    e962:	13db      	asrs	r3, r3, #15
    e964:	f5c3 0400 	rsb	r4, r3, #8388608	; 0x800000
    e968:	f014 fa84 	bl	22e74 <sys_clock_hw_cycles_per_sec>
    e96c:	4603      	mov	r3, r0
    e96e:	2b00      	cmp	r3, #0
    e970:	da02      	bge.n	e978 <z_clock_set_timeout+0x1e8>
    e972:	f503 43ff 	add.w	r3, r3, #32640	; 0x7f80
    e976:	337f      	adds	r3, #127	; 0x7f
    e978:	13db      	asrs	r3, r3, #15
    e97a:	fbb4 f4f3 	udiv	r4, r4, r3
    e97e:	f014 fa79 	bl	22e74 <sys_clock_hw_cycles_per_sec>
    e982:	4603      	mov	r3, r0
    e984:	2b00      	cmp	r3, #0
    e986:	da02      	bge.n	e98e <z_clock_set_timeout+0x1fe>
    e988:	f503 43ff 	add.w	r3, r3, #32640	; 0x7f80
    e98c:	337f      	adds	r3, #127	; 0x7f
    e98e:	13db      	asrs	r3, r3, #15
    e990:	fb03 f304 	mul.w	r3, r3, r4
    e994:	68fa      	ldr	r2, [r7, #12]
    e996:	429a      	cmp	r2, r3
    e998:	d921      	bls.n	e9de <z_clock_set_timeout+0x24e>
		cyc = MAX_CYCLES;
    e99a:	f014 fa6b 	bl	22e74 <sys_clock_hw_cycles_per_sec>
    e99e:	4603      	mov	r3, r0
    e9a0:	2b00      	cmp	r3, #0
    e9a2:	da02      	bge.n	e9aa <z_clock_set_timeout+0x21a>
    e9a4:	f503 43ff 	add.w	r3, r3, #32640	; 0x7f80
    e9a8:	337f      	adds	r3, #127	; 0x7f
    e9aa:	13db      	asrs	r3, r3, #15
    e9ac:	f5c3 0400 	rsb	r4, r3, #8388608	; 0x800000
    e9b0:	f014 fa60 	bl	22e74 <sys_clock_hw_cycles_per_sec>
    e9b4:	4603      	mov	r3, r0
    e9b6:	2b00      	cmp	r3, #0
    e9b8:	da02      	bge.n	e9c0 <z_clock_set_timeout+0x230>
    e9ba:	f503 43ff 	add.w	r3, r3, #32640	; 0x7f80
    e9be:	337f      	adds	r3, #127	; 0x7f
    e9c0:	13db      	asrs	r3, r3, #15
    e9c2:	fbb4 f4f3 	udiv	r4, r4, r3
    e9c6:	f014 fa55 	bl	22e74 <sys_clock_hw_cycles_per_sec>
    e9ca:	4603      	mov	r3, r0
    e9cc:	2b00      	cmp	r3, #0
    e9ce:	da02      	bge.n	e9d6 <z_clock_set_timeout+0x246>
    e9d0:	f503 43ff 	add.w	r3, r3, #32640	; 0x7f80
    e9d4:	337f      	adds	r3, #127	; 0x7f
    e9d6:	13db      	asrs	r3, r3, #15
    e9d8:	fb03 f304 	mul.w	r3, r3, r4
    e9dc:	60fb      	str	r3, [r7, #12]
	}

	cyc += last_count;
    e9de:	4b05      	ldr	r3, [pc, #20]	; (e9f4 <z_clock_set_timeout+0x264>)
    e9e0:	681b      	ldr	r3, [r3, #0]
    e9e2:	68fa      	ldr	r2, [r7, #12]
    e9e4:	4413      	add	r3, r2
    e9e6:	60fb      	str	r3, [r7, #12]
	set_protected_absolute_ticks(cyc);
    e9e8:	68f8      	ldr	r0, [r7, #12]
    e9ea:	f014 fb93 	bl	23114 <set_protected_absolute_ticks>
}
    e9ee:	3710      	adds	r7, #16
    e9f0:	46bd      	mov	sp, r7
    e9f2:	bdb0      	pop	{r4, r5, r7, pc}
    e9f4:	200225b4 	.word	0x200225b4

0000e9f8 <z_clock_elapsed>:

u32_t z_clock_elapsed(void)
{
    e9f8:	b590      	push	{r4, r7, lr}
    e9fa:	b08b      	sub	sp, #44	; 0x2c
    e9fc:	af00      	add	r7, sp, #0
    e9fe:	4b1b      	ldr	r3, [pc, #108]	; (ea6c <CONFIG_SYS_PM_MIN_RESIDENCY_DEEP_SLEEP_1+0xc>)
    ea00:	61bb      	str	r3, [r7, #24]
	__asm__ volatile(
    ea02:	f04f 0320 	mov.w	r3, #32
    ea06:	f3ef 8211 	mrs	r2, BASEPRI
    ea0a:	f383 8811 	msr	BASEPRI, r3
    ea0e:	f3bf 8f6f 	isb	sy
    ea12:	617a      	str	r2, [r7, #20]
    ea14:	613b      	str	r3, [r7, #16]
	return key;
    ea16:	697b      	ldr	r3, [r7, #20]

	/* Note that we need to use the underlying arch-specific lock
	 * implementation.  The "irq_lock()" API in SMP context is
	 * actually a wrapper for a global spinlock!
	 */
	k.key = arch_irq_lock();
    ea18:	60bb      	str	r3, [r7, #8]
#endif

#ifdef CONFIG_SPIN_VALIDATE
	z_spin_lock_set_owner(l);
#endif
	return k;
    ea1a:	68bb      	ldr	r3, [r7, #8]
    ea1c:	60fb      	str	r3, [r7, #12]
	if (!IS_ENABLED(CONFIG_TICKLESS_KERNEL)) {
		return 0;
	}

	k_spinlock_key_t key = k_spin_lock(&lock);
	u32_t ret = counter_sub(counter(), last_count) / CYC_PER_TICK;
    ea1e:	f7ff fe3f 	bl	e6a0 <counter>
    ea22:	4602      	mov	r2, r0
    ea24:	4b12      	ldr	r3, [pc, #72]	; (ea70 <CONFIG_SYS_PM_MIN_RESIDENCY_DEEP_SLEEP_1+0x10>)
    ea26:	681b      	ldr	r3, [r3, #0]
    ea28:	4619      	mov	r1, r3
    ea2a:	4610      	mov	r0, r2
    ea2c:	f014 fae4 	bl	22ff8 <counter_sub>
    ea30:	4604      	mov	r4, r0
    ea32:	f014 fa1f 	bl	22e74 <sys_clock_hw_cycles_per_sec>
    ea36:	4603      	mov	r3, r0
    ea38:	2b00      	cmp	r3, #0
    ea3a:	da02      	bge.n	ea42 <z_clock_elapsed+0x4a>
    ea3c:	f503 43ff 	add.w	r3, r3, #32640	; 0x7f80
    ea40:	337f      	adds	r3, #127	; 0x7f
    ea42:	13db      	asrs	r3, r3, #15
    ea44:	fbb4 f3f3 	udiv	r3, r4, r3
    ea48:	627b      	str	r3, [r7, #36]	; 0x24
    ea4a:	4b08      	ldr	r3, [pc, #32]	; (ea6c <CONFIG_SYS_PM_MIN_RESIDENCY_DEEP_SLEEP_1+0xc>)
    ea4c:	623b      	str	r3, [r7, #32]
    ea4e:	68fb      	ldr	r3, [r7, #12]
    ea50:	607b      	str	r3, [r7, #4]
	 * a memory barrier when used like this, and we don't have a
	 * Zephyr framework for that.
	 */
	atomic_clear(&l->locked);
#endif
	arch_irq_unlock(key.key);
    ea52:	687b      	ldr	r3, [r7, #4]
    ea54:	61fb      	str	r3, [r7, #28]
	__asm__ volatile(
    ea56:	69fb      	ldr	r3, [r7, #28]
    ea58:	f383 8811 	msr	BASEPRI, r3
    ea5c:	f3bf 8f6f 	isb	sy

	k_spin_unlock(&lock, key);
	return ret;
    ea60:	6a7b      	ldr	r3, [r7, #36]	; 0x24
}
    ea62:	4618      	mov	r0, r3
    ea64:	372c      	adds	r7, #44	; 0x2c
    ea66:	46bd      	mov	sp, r7
    ea68:	bd90      	pop	{r4, r7, pc}
    ea6a:	bf00      	nop
    ea6c:	200225b4 	.word	0x200225b4
    ea70:	200225b4 	.word	0x200225b4

0000ea74 <arch_swap>:
 *
 * On ARMv6-M, the intlock key is represented by the PRIMASK register,
 * as BASEPRI is not available.
 */
int arch_swap(unsigned int key)
{
    ea74:	b480      	push	{r7}
    ea76:	b085      	sub	sp, #20
    ea78:	af00      	add	r7, sp, #0
    ea7a:	6078      	str	r0, [r7, #4]
#ifdef CONFIG_EXECUTION_BENCHMARKING
	read_timer_start_of_swap();
#endif

	/* store off key and return value */
	_current->arch.basepri = key;
    ea7c:	4b0f      	ldr	r3, [pc, #60]	; (eabc <arch_swap+0x48>)
    ea7e:	689b      	ldr	r3, [r3, #8]
    ea80:	687a      	ldr	r2, [r7, #4]
    ea82:	66da      	str	r2, [r3, #108]	; 0x6c
	_current->arch.swap_return_value = _k_neg_eagain;
    ea84:	4b0e      	ldr	r3, [pc, #56]	; (eac0 <arch_swap+0x4c>)
    ea86:	681a      	ldr	r2, [r3, #0]
    ea88:	4b0c      	ldr	r3, [pc, #48]	; (eabc <arch_swap+0x48>)
    ea8a:	689b      	ldr	r3, [r3, #8]
    ea8c:	671a      	str	r2, [r3, #112]	; 0x70

#if defined(CONFIG_CPU_CORTEX_M)
	/* set pending bit to make sure we will take a PendSV exception */
	SCB->ICSR |= SCB_ICSR_PENDSVSET_Msk;
    ea8e:	4b0d      	ldr	r3, [pc, #52]	; (eac4 <arch_swap+0x50>)
    ea90:	685b      	ldr	r3, [r3, #4]
    ea92:	4a0c      	ldr	r2, [pc, #48]	; (eac4 <arch_swap+0x50>)
    ea94:	f043 5380 	orr.w	r3, r3, #268435456	; 0x10000000
    ea98:	6053      	str	r3, [r2, #4]
    ea9a:	2300      	movs	r3, #0
    ea9c:	60fb      	str	r3, [r7, #12]
    ea9e:	68fb      	ldr	r3, [r7, #12]
    eaa0:	f383 8811 	msr	BASEPRI, r3
    eaa4:	f3bf 8f6f 	isb	sy
#endif

	/* Context switch is performed here. Returning implies the
	 * thread has been context-switched-in again.
	 */
	return _current->arch.swap_return_value;
    eaa8:	4b04      	ldr	r3, [pc, #16]	; (eabc <arch_swap+0x48>)
    eaaa:	689b      	ldr	r3, [r3, #8]
    eaac:	6f1b      	ldr	r3, [r3, #112]	; 0x70
}
    eaae:	4618      	mov	r0, r3
    eab0:	3714      	adds	r7, #20
    eab2:	46bd      	mov	sp, r7
    eab4:	f85d 7b04 	ldr.w	r7, [sp], #4
    eab8:	4770      	bx	lr
    eaba:	bf00      	nop
    eabc:	2002519c 	.word	0x2002519c
    eac0:	0002ebc0 	.word	0x0002ebc0
    eac4:	e000ed00 	.word	0xe000ed00

0000eac8 <__NVIC_EnableIRQ>:
{
    eac8:	b480      	push	{r7}
    eaca:	b083      	sub	sp, #12
    eacc:	af00      	add	r7, sp, #0
    eace:	4603      	mov	r3, r0
    ead0:	71fb      	strb	r3, [r7, #7]
  if ((int32_t)(IRQn) >= 0)
    ead2:	f997 3007 	ldrsb.w	r3, [r7, #7]
    ead6:	2b00      	cmp	r3, #0
    ead8:	db0b      	blt.n	eaf2 <__NVIC_EnableIRQ+0x2a>
    NVIC->ISER[(((uint32_t)IRQn) >> 5UL)] = (uint32_t)(1UL << (((uint32_t)IRQn) & 0x1FUL));
    eada:	79fb      	ldrb	r3, [r7, #7]
    eadc:	f003 021f 	and.w	r2, r3, #31
    eae0:	4907      	ldr	r1, [pc, #28]	; (eb00 <__NVIC_EnableIRQ+0x38>)
    eae2:	f997 3007 	ldrsb.w	r3, [r7, #7]
    eae6:	095b      	lsrs	r3, r3, #5
    eae8:	2001      	movs	r0, #1
    eaea:	fa00 f202 	lsl.w	r2, r0, r2
    eaee:	f841 2023 	str.w	r2, [r1, r3, lsl #2]
}
    eaf2:	bf00      	nop
    eaf4:	370c      	adds	r7, #12
    eaf6:	46bd      	mov	sp, r7
    eaf8:	f85d 7b04 	ldr.w	r7, [sp], #4
    eafc:	4770      	bx	lr
    eafe:	bf00      	nop
    eb00:	e000e100 	.word	0xe000e100

0000eb04 <__NVIC_DisableIRQ>:
{
    eb04:	b480      	push	{r7}
    eb06:	b083      	sub	sp, #12
    eb08:	af00      	add	r7, sp, #0
    eb0a:	4603      	mov	r3, r0
    eb0c:	71fb      	strb	r3, [r7, #7]
  if ((int32_t)(IRQn) >= 0)
    eb0e:	f997 3007 	ldrsb.w	r3, [r7, #7]
    eb12:	2b00      	cmp	r3, #0
    eb14:	db10      	blt.n	eb38 <__NVIC_DisableIRQ+0x34>
    NVIC->ICER[(((uint32_t)IRQn) >> 5UL)] = (uint32_t)(1UL << (((uint32_t)IRQn) & 0x1FUL));
    eb16:	79fb      	ldrb	r3, [r7, #7]
    eb18:	f003 021f 	and.w	r2, r3, #31
    eb1c:	4909      	ldr	r1, [pc, #36]	; (eb44 <__NVIC_DisableIRQ+0x40>)
    eb1e:	f997 3007 	ldrsb.w	r3, [r7, #7]
    eb22:	095b      	lsrs	r3, r3, #5
    eb24:	2001      	movs	r0, #1
    eb26:	fa00 f202 	lsl.w	r2, r0, r2
    eb2a:	3320      	adds	r3, #32
    eb2c:	f841 2023 	str.w	r2, [r1, r3, lsl #2]
  \details Acts as a special kind of Data Memory Barrier.
           It completes when all explicit memory accesses before this instruction complete.
 */
__STATIC_FORCEINLINE void __DSB(void)
{
  __ASM volatile ("dsb 0xF":::"memory");
    eb30:	f3bf 8f4f 	dsb	sy
  __ASM volatile ("isb 0xF":::"memory");
    eb34:	f3bf 8f6f 	isb	sy
}
    eb38:	bf00      	nop
    eb3a:	370c      	adds	r7, #12
    eb3c:	46bd      	mov	sp, r7
    eb3e:	f85d 7b04 	ldr.w	r7, [sp], #4
    eb42:	4770      	bx	lr
    eb44:	e000e100 	.word	0xe000e100

0000eb48 <__NVIC_SetPriority>:
  \param [in]      IRQn  Interrupt number.
  \param [in]  priority  Priority to set.
  \note    The priority cannot be set for every processor exception.
 */
__STATIC_INLINE void __NVIC_SetPriority(IRQn_Type IRQn, uint32_t priority)
{
    eb48:	b480      	push	{r7}
    eb4a:	b083      	sub	sp, #12
    eb4c:	af00      	add	r7, sp, #0
    eb4e:	4603      	mov	r3, r0
    eb50:	6039      	str	r1, [r7, #0]
    eb52:	71fb      	strb	r3, [r7, #7]
  if ((int32_t)(IRQn) >= 0)
    eb54:	f997 3007 	ldrsb.w	r3, [r7, #7]
    eb58:	2b00      	cmp	r3, #0
    eb5a:	db0a      	blt.n	eb72 <__NVIC_SetPriority+0x2a>
  {
    NVIC->IPR[((uint32_t)IRQn)]               = (uint8_t)((priority << (8U - __NVIC_PRIO_BITS)) & (uint32_t)0xFFUL);
    eb5c:	683b      	ldr	r3, [r7, #0]
    eb5e:	b2da      	uxtb	r2, r3
    eb60:	490c      	ldr	r1, [pc, #48]	; (eb94 <__NVIC_SetPriority+0x4c>)
    eb62:	f997 3007 	ldrsb.w	r3, [r7, #7]
    eb66:	0152      	lsls	r2, r2, #5
    eb68:	b2d2      	uxtb	r2, r2
    eb6a:	440b      	add	r3, r1
    eb6c:	f883 2300 	strb.w	r2, [r3, #768]	; 0x300
  }
  else
  {
    SCB->SHPR[(((uint32_t)IRQn) & 0xFUL)-4UL] = (uint8_t)((priority << (8U - __NVIC_PRIO_BITS)) & (uint32_t)0xFFUL);
  }
}
    eb70:	e00a      	b.n	eb88 <__NVIC_SetPriority+0x40>
    SCB->SHPR[(((uint32_t)IRQn) & 0xFUL)-4UL] = (uint8_t)((priority << (8U - __NVIC_PRIO_BITS)) & (uint32_t)0xFFUL);
    eb72:	683b      	ldr	r3, [r7, #0]
    eb74:	b2da      	uxtb	r2, r3
    eb76:	4908      	ldr	r1, [pc, #32]	; (eb98 <__NVIC_SetPriority+0x50>)
    eb78:	79fb      	ldrb	r3, [r7, #7]
    eb7a:	f003 030f 	and.w	r3, r3, #15
    eb7e:	3b04      	subs	r3, #4
    eb80:	0152      	lsls	r2, r2, #5
    eb82:	b2d2      	uxtb	r2, r2
    eb84:	440b      	add	r3, r1
    eb86:	761a      	strb	r2, [r3, #24]
}
    eb88:	bf00      	nop
    eb8a:	370c      	adds	r7, #12
    eb8c:	46bd      	mov	sp, r7
    eb8e:	f85d 7b04 	ldr.w	r7, [sp], #4
    eb92:	4770      	bx	lr
    eb94:	e000e100 	.word	0xe000e100
    eb98:	e000ed00 	.word	0xe000ed00

0000eb9c <_arch_isr_direct_pm>:
	z_arm_fatal_error(K_ERR_SPURIOUS_IRQ, NULL);
}

#ifdef CONFIG_SYS_POWER_MANAGEMENT
void _arch_isr_direct_pm(void)
{
    eb9c:	b580      	push	{r7, lr}
    eb9e:	b082      	sub	sp, #8
    eba0:	af00      	add	r7, sp, #0
#elif defined(CONFIG_ARMV7_M_ARMV8_M_MAINLINE)
	/* Lock all interrupts. irq_lock() will on this CPU only disable those
	 * lower than BASEPRI, which is not what we want. See comments in
	 * arch/arm/core/aarch32/isr_wrapper.S
	 */
	__asm__ volatile("cpsid i" : : : "memory");
    eba2:	b672      	cpsid	i
#else
#error Unknown ARM architecture
#endif /* CONFIG_ARMV6_M_ARMV8_M_BASELINE */

	if (_kernel.idle) {
    eba4:	4b08      	ldr	r3, [pc, #32]	; (ebc8 <_arch_isr_direct_pm+0x2c>)
    eba6:	6a1b      	ldr	r3, [r3, #32]
    eba8:	2b00      	cmp	r3, #0
    ebaa:	d008      	beq.n	ebbe <_arch_isr_direct_pm+0x22>
		s32_t idle_val = _kernel.idle;
    ebac:	4b06      	ldr	r3, [pc, #24]	; (ebc8 <_arch_isr_direct_pm+0x2c>)
    ebae:	6a1b      	ldr	r3, [r3, #32]
    ebb0:	607b      	str	r3, [r7, #4]

		_kernel.idle = 0;
    ebb2:	4b05      	ldr	r3, [pc, #20]	; (ebc8 <_arch_isr_direct_pm+0x2c>)
    ebb4:	2200      	movs	r2, #0
    ebb6:	621a      	str	r2, [r3, #32]
