:10000000E80B0020411100003B400000711100008E
:1000100071110000711100007111000071110000D8
:10002000000000000000000000000000850F00003C
:1000300071110000000000003D0F0000353F00007E
:100040000111000001110000011100000111000068
:100050000111000001110000011100000111000058
:100060000111000001110000011100000111000048
:100070000111000001110000011100000111000038
:100080000111000001110000011100000111000028
:100090000111000001110000011100000111000018
:1000A0000111000001110000011100000111000008
:1000B00001110000011100000111000001110000F8
:1000C00001110000011100000111000001110000E8
:1000D00001110000011100000111000001110000D8
:1000E00001110000011100000111000001110000C8
:1000F00001110000011100000111000001110000B8
:1001000001110000011100000111000001110000A7
:100110000111000001110000011100000111000097
:100120000111000001110000011100000111000087
:100130000111000001110000011100000111000077
:10014000011100000000000000000000000000009D
:10015000000000000000000000000000000000009F
:10016000000000000000000000000000000000008F
:10017000000000000000000000000000000000007F
:10018000000000000000000000000000000000006F
:10019000000000000000000000000000000000005F
:1001A000000000000000000000000000000000004F
:1001B000000000000000000000000000000000003F
:1001C000000000000000000000000000000000002F
:1001D000000000000000000000000000000000001F
:1001E000000000000000000000000000000000000F
:1001F00000000000000000000000000000000000FF
:10020000DEE61E284CBBCE8F025B00003C000000E7
:10021000008000000100000000000000000000005D
:10022000FFFF02910000000000000000000000003D
:0C023000000000000000000000000000C2
:10023C0053B94AB9002908BF00281CBF4FF0FF3141
:10024C004FF0FF3000F070B9ADF1080C6DE904CE41
:10025C0000F006F8DDF804E0DDE9022304B0704795
:10026C002DE9F04F099E04468946002B40F083800F
:10027C008A42154645D9B2FA82F24AB1C2F1200738
:10028C0001FA02F39540944020FA07F747EA030974
:10029C004FEA154E230C1FFA85F8B9FBFEFC0EFB3A
:1002AC001C990CFB08F143EA094399420AD9EB1853
:1002BC002CBF01200020994202D9002800F01D819A
:1002CC000CF1FF3C591AA3B2B1FBFEF00EFB10115E
:1002DC0000FB08F843EA0144A04505D92C1902D2C9
:1002EC00A04500F20E810138A4EB080440EA0C4052
:1002FC0000271EB1D4400023C6E900433946BDE8AF
:10030C00F08F002A51D0B2FA82F2002A40F0AF806E
:10031C00491B4FEA154E1FFA85F80127230CB1FB38
:10032C00FEFC0EFB1C1108FB0CF043EA0143984247
:10033C000AD9EB182CBF01210021984202D90029BF
:10034C0000F0D7800CF1FF3C191AA3B2B1FBFEF000
:10035C000EFB101108FB00F843EA0144A04505D937
:10036C002C1902D2A04500F2C1800138A4EB08047C
:10037C0040EA0C40BDE78B4208D9002E74D0002710
:10038C00C6E9000138463946BDE8F08FB3FA83F769
:10039C0067B98B42C0F0A480824240F2A1803846FB
:1003AC00002EABD0C6E90049A8E7FFDEC7F1200557
:1003BC00BB4002FA07FC01FA07F4EA4020FA05F800
:1003CC00E94000FA07FE1A4348EA04044FEA1248CF
:1003DC00200C1FFA82F9B1FBF8FA08FB1A110AFB80
:1003EC0009FB40EA01418B450AD951182CBF012366
:1003FC0000238B4502D9002B00F088800AF1FF3ACC
:10040C00A1EB0B01A4B2B1FBF8F008FB101100FB3F
:10041C0009F944EA0141894504D9511801D28945A9
:10042C007BD8013840EA0A40A1EB0901A0FB0C89FA
:10043C00494544464B4602D306D1C64504D2013841
:10044C00B8EB0C0469EB0203002E5DD0BEEB04028A
:10045C0061EB030101FA05F522FA07F3F9400027D5
:10046C001D43C6E9005149E73746304646E7C2F11D
:10047C002000954001FA02F721FA00F34FEA154EDD
:10048C0024FA00F11FFA85F894403943B3FBFEF0CF
:10049C000F0C0EFB103300FB08FC47EA03439C4592
:1004AC0007D9EB182CBF012700279C4500D98FB327
:1004BC000138A3EB0C0389B2B3FBFEF70EFB173329
:1004CC0007FB08FC41EA03418C4504D9691801D2A9
:1004DC008C4525D8013FA1EB0C0147EA00471DE7ED
:1004EC00841A61EB03030120994659E702382C4426
:1004FC003CE7ACF1020C2B4426E7ACF1020C2B448C
:10050C00E0E602382C44EFE63746F7E6AAF1020A99
:10051C00114475E702382B44CBE70238114481E7CC
:10052C00023F2944D7E700BF704700BF2DE9E04FD9
:10053C002746A046A146A246A346A4462DED108B05
:10054C004FF0000545EC185B45EC195A45EC1A5A6E
:10055C0045EC1B5A45EC1C5A45EC1D5A45EC1E5AF1
:10056C0045EC1F5AF1EE105A4FF66076C0F6FF7646
:10057C003540E1EE105A84F3008825462646A44700
:10058C00BDEC108BBDE8E08F0B6801330B60014BA9
:10059C001B681847000000202DE9F04F85B00E9C19
:1005AC009B46012CB8BF0124012B0CBF3023202308
:1005BC0016468246884601250A270022DFF86C90F1
:1005CC000293B6FBF9F301930AB9B1451CD8019B10
:1005DC00414603F13000D04701220135019B013F18
:1005EC0009FB13660A23012FB9FBF3F9E9D1414644
:1005FC0006F13000D047BBF1030F02D1641B002C75
:10060C000EDC05B0BDE8F08FBC42E7DBBBF1020F9E
:10061C00E4D84146029803920135D047039ADDE7AE
:10062C0041462020D047013CE9E700BF00CA9A3B75
:10063C00014B1860704700BF00000020002307B575
:10064C000246019303480B4601A903F080F903B05D
:10065C005DF804FB950500004FF02002EFF31183C9
:10066C0082F31188BFF36F8F0121044AC2F8401541
:10067C0083F31188BFF36F8F0020704700900350F5
:10068C0020B1034B800143F001031847704700BFB2
:10069C00F047000010B5074801F006FB064C074B6D
:1006AC001860204601F0A0F82046FFF7C1FF00209B
:1006BC0010BD00BF804A0000CD0600005001002094
:1006CC000A2838B50446074D04D1286883680D21E3
:1006DC005B68984728688368E1B25B689847204656
:1006EC0038BD00BF50010020F8B50C24114D064652
:1006FC00EB6804FB0034012363724FF02003EFF32B
:10070C00118183F31188BFF36F8F23682BB160685D
:10071C001A688342226008BF626081F31188BFF3BC
:10072C006F8F03B9F8BDD3E9017231462846B8473B
:10073C00E3E700BF9400002008B5114B1A686AB1BA
:10074C004FF05022D2F80423D10707D500221A60AB
:10075C000C4BDB68587A08B9FFF7C6FF0A4B1A68CE
:10076C0062B14FF05022D2F80423920706D5002232
:10077C0001201A60BDE80840FFF7B6BF08BD00BFF6
:10078C00005100509400002004510050821C084B72
:10079C0022F07F42C3F84025D3F80425904200D1C3
:1007AC007047D3F80405821C22F07F42F2E700BFA9
:1007BC00005001500022064B1A60064AD3F8000480
:1007CC001368C01A20F07F400344136002F03CB958
:1007DC00405101506C01002038B5144801F064FA06
:1007EC0000B3836800241B68012198474FF4001262
:1007FC000F4D104BC5F808451C600F4B0121C3F879
:10080C0080214FF480332246C5F80433152000F0C4
:10081C00D3FB152000F0C0FB01232046074A1360D0
:10082C002B6038BD4FF0FF30FBE700BF474C00009A
:10083C00005001504051015000E100E008500150BF
:10084C00F8B52C4B2C4CD3F804252C4BB0F1FF3FB6
:10085C0008BF20461968521A22F07F43120236D480
:10086C00013820EAE070A042A8BF204601331844AA
:10087C00A04294BF0C180C194FF4803000271D4B6C
:10088C001F4EC3F80803D3F80415D3F8402521F004
:10089C007F45521A22F07F42012A3760C3F8405537
:1008AC00C3F844031D4603D10F2003F0EFFD37605E
:1008BC004FF40012134BC3F88021D5F80405231A0A
:1008CC0023F07F43012B04D1FFF760FF0BE00020E6
:1008DC00CCE724F07F43C5F84035D5F80405241A3D
:1008EC00023C2302F0D44FF48032024BC3F80423B1
:1008FC00F8BD00BF00500150FFFF7F006C010020CD
:10090C004051015000E100E04FF02002EFF3118361
:10091C0082F31188BFF36F8F064AD2F80405064A9A
:10092C001268801A20F07F4083F31188BFF36F8F19
:10093C00704700BF005001506C010020F7B5002833
:10094C001C460D4614BF4FF400534FF40043204E89
:10095C00954232D302FB03F0013A00904B431D4801
:10096C0003F065F91C4B14F0100F1C491C4808BF10
:10097C00194603F05CF914F0040F14BF72212D21F9
:10098C00184803F054F914F0020F14BF77212D21ED
:10099C00144803F04CF914F0010F0CBF2D217821F1
:1009AC00104803F044F96C210E4803F040F90E484E
:1009BC0003B0BDE8F04003F03AB928B105F5E07793
:1009CC0046F827400135C3E705F5C077F8E700BFC7
:1009DC0000300050A64A00009A4A0000914A0000DC
:1009EC00B04B0000C04A0000034E000008B543B2F3
:1009FC00002B0CDB012200F01F018A405B0910491F
:100A0C00203341F82320BFF34F8FBFF36F8F830048
:100A1C0003F1A04303F540533128D3F8002806D046
:100A2C00002A07DA02F00302023A012A02D8054A28
:100A3C00C3F80028002103F0C9FA002008BD00BF4C
:100A4C0000E100E00001008030B54FF440444CF26E
:100A5C00040585B04FF440412C4803F0E8F82168B8
:100A6C002B4803F0E4F829682A4803F0E0F8102238
:100A7C000021684603F06AFB2368684600930294E1
:100A8C0000F03CFE012000F069FE002000F052FE58
:100A9C00002000F077FE0121002000F091FE00F014
:100AAC0085FE2C681C4803F0C2F80820FFF79EFF57
:100ABC0024F00104BFF34F8FBFF36F8F6408640001
:100ACC002046214622462346B7EE000AF7EE000ADE
:100ADC00B7EE001AF7EE001AB7EE002AF7EE002A6E
:100AEC00B7EE003AF7EE003AB7EE004AF7EE004ADE
:100AFC00B7EE005AF7EE005AB7EE006AF7EE006A4E
:100B0C00B7EE007AF7EE007AFFF710FDC74B000046
:100B1C00DE4B0000F34B0000114C00002DE9F843B4
:100B2C003B4803F084F8002140F2171308460122D9
:100B3C00FFF704FF40F20713202201210020FFF7EA
:100B4C00FDFE344803F073F8334B344AC3F3C4311D
:100B5C00C3F30E03C3F50043C3F34313C2F80015EC
:100B6C00C2F80435D2F80015D2F804252C485201ED
:100B7C0003F05DF8274803F05AF803F0D7F9014663
:100B8C0010B1284803F053F80024274803F04FF81D
:100B9C0040F21713082200210120FFF7CFFE1F4D52
:100BAC0040F20713202208210120FFF7C7FE194845
:100BBC0003F03DF8C5F880441C4803F038F81C4F8E
:100BCC00C5F8C044DFF87C801A4DDFF87C906E7954
:100BDC002A68002E14BF3B4643462146484603F084
:100BEC0026F866B91448013403F021F81B2C05F1E2
:100BFC000805ECD10748BDE8F84303F018B828798C
:100C0C00FFF7F4FE08B10D48EDE70D48EBE700BF28
:100C1C00CE4A0000034E0000E07F00000030005080
:100C2C00F24A0000384B0000684B00008A4B000071
:100C3C00C34A00000C480000B34B0000BA4B000044
:100C4C00C24B00009E4A0000A64B000010B50028C5
:100C5C004BD0002A49D0264B99423CD9541803F664
:100C6C001D239C423AD803F047FA0020BDE81040FF
:100C7C00714672467346B7EE000AF7EE000AB7EEFD
:100C8C00001AF7EE001AB7EE002AF7EE002AB7EEBC
:100C9C00003AF7EE003AB7EE004AF7EE004AB7EE2C
:100CAC00005AF7EE005AB7EE006AF7EE006AB7EE9C
:100CBC00007AF7EE007A8EF3008C10B4F1EE10CAC5
:100CCC004FF66074C0F6FF740CEA040CE1EE10CA27
:100CDC0010BCF4467447074B994203D9064B541881
:100CEC009C42C0D94FF0FF30C0E76FF01500BDE754
:100CFC000302FF002F01FF003801FF002DE9F04F28
:100D0C00834685B08946002951D00027DFF8B0A072
:100D1C00DFF8B08001AE5AF8044B98E807005C4449
:100D2C0086E807000C223146204603F0BEF9054642
:100D3C0008B9002C3ED10137052FECD16FF00D0511
:100D4C00284605B0B7EE000AF7EE000AB7EE001A17
:100D5C00F7EE001AB7EE002AF7EE002AB7EE003ACB
:100D6C00F7EE003AB7EE004AF7EE004AB7EE005A3B
:100D7C00F7EE005AB7EE006AF7EE006AB7EE007AAB
:100D8C00BDE8F04F714672467346F7EE007A8EF36B
:100D9C00008C10B4F1EE10CA4FF66074C0F6FF74FC
:100DAC000CEA040CE1EE10CA10BCF44674476FF068
:100DBC001505C5E73C222146484603F09DF9BFE7DF
:100DCC00E4480000A0470000014802F0C7B800BF8B
:100DDC00F848000008B530B143683BB1006801F039
:100DEC0065F9002008BD6FF4E040FBE70048F9E727
:100DFC00EA8FFFFF38B5044618B90B4B0B485B68FC
:100E0C009847656855B115F00205206807D1014671
:100E1C00074801F0A9F825600023636038BD14224F
:100E2C00002103F093F9F7E768000020404D000023
:100E3C007001002010B5044618B9144B14485B68B7
:100E4C0098476368CBB92368BBB94FF0FF324FF0BA
:100E5C00FF3321460F4801F055F808B923681BB938
:100E6C000A4B0D485B68984714220021206803F058
:100E7C006DF9636843F002036360206803F031FA94
:100E8C00636843F00103636010BD00BF680000207D
:100E9C00404D000070010020664D000008B568B19F
:100EAC00436873B100684FF0FF334FF0FF3201F02D
:100EBC0085F8054B002818BF184608BD6FF4E040B4
:100ECC00FBE70248F9E700BFE98FFFFFEA8FFFFF5E
:100EDC0008B5064940231422054803F0E7F9BDE89C
:100EEC0008400449044802F071B800BF8C0100208E
:100EFC00700100201049000000490000094A0A490D
:100F0C0093680968D866196708494B6843F08053A1
:100F1C004B60002383F31188BFF36F8F9368186FB6
:100F2C00704700BF880700208449000000ED00E0F6
:100F3C000F498A684FF030001044EFF3098C80E8B9
:100F4C00F01F202080F31188BFF36F8F094F4FF0F3
:100F5C0000664A6A8A603E60D06E0023D36680F3D6
:100F6C00118802F1300090E8F01F8CF3098870476B
:100F7C008807002004ED00E01EF0040F0CBFEFF317
:100F8C000880EFF30980816911F8021C0229FFD057
:100F9C0001B503F048F801BD43B2002B08DB012278
:100FAC0000F01F0002FA00F0024A5B0942F823002D
:100FBC00704700BF00E100E043B2002B01F10101DA
:100FCC00A8BF03F160434FEA4111B8BF054BC9B24A
:100FDC00ABBF03F5614300F00F0083F80013195405
:100FEC00704700BF14ED00E0C0E918120A44203A23
:100FFC0022F007021360009B07495360019B21F00C
:10100C0001019360029B9161D3604FF08073D361B7
:10101C0000230265C3667047553C0000F8B51D46B9
:10102C0006460C4617460023E1EE103A00F0F4F9A0
:10103C00084B3C4424F007049E60284684F309883E
:10104C00002163B681F31188BFF36F8F0022002358
:10105C0002F0FAFD88070020014910220A6070474F
:10106C0010ED00E072B6404080F31188BFF36F8F33
:10107C00BFF34F8F30BF62B6BFF36F8F704700BFA7
:10108C0030BFFFF7FDBF00BF174A08B5174B22F062
:10109C007F029A60BFF34F8FBFF36F8FD3F8882016
:1010AC0022F47002C3F88820D3F8882042F4A002FE
:1010BC00C3F888200E4A536823F040435360BFF3B3
:1010CC004F8FBFF36F8F0023E1EE103AEFF31483D1
:1010DC0023F0040383F3148800F024FE00F02CFEAC
:1010EC0000F068F900F066FE0000000000ED00E082
:1010FC0030EF00E001B572B60B4A106A00281EBF33
:10110C000021116203F0D0F862B6EFF30580A0F174
:10111C0010004FEAC0000549014409C99847BDE8D1
:10112C00014003490847000088070020984500004B
:10113C008113000002F03EFE202080F31188084845
:10114C004FF40061401880F30988EFF314800221FA
:10115C00084380F31488BFF36F8FFFF795FF0000EF
:10116C00280D0020EFF30880EFF30981724601B5DA
:10117C0000F06CF801BD00BF0C4B9A6A9A6A9A6A2F
:10118C00920708D55A6B9A6A120604D518B19A6A56
:10119C0022F080029A620020044B9A6A9A6A9A6A38
:1011AC009A6A42F0FF029A620870704700ED00E004
:1011BC000D4B9A6A9A6A9A6A920508D59A6B9A6A42
:1011CC00120404D518B19A6A22F400429A620020E3
:1011DC00054B9A6A9A6AD20558BF9A6A9A6A42F47F
:1011EC007F429A620870704700ED00E0074B0020C8
:1011FC009A6A9A6A9A6A9A6A9A6A9A6A9A6A9A6AC3
:10120C006FEA02426FEA12429A62704700ED00E008
:10121C000D4B9A695A695A69D0070FD45A699107CC
:10122C000CD45A69520709D45A69100706D45A6962
:10123C00D10603D45A69920658BF5A695A6942F0CA
:10124C00FF025A61704700BFD0ED00E0F0B5414B92
:10125C008BB05B680025C3F3080385F31188BFF3DB
:10126C006F8F02F07F44B4F17F4F1ED112F0010456
:10127C001AD0560602F0080467D482F00402C2F3B6
:10128C00800564B1EFF389860022033B8DF80720BB
:10129C00042B4BD8DFE803F00B4C50414800EFF324
:1012AC008886F1E70E46EFE725462E46ECE7294BFC
:1012BC00DA6A92073AD4DC6A14F0804408D02833F6
:1012CC001B78EBB101200DF10701FFF755FF044628
:1012DC009DF8073093B92022314602A802F00CFF8A
:1012EC00099B6DB3C3F3080222B96FEA53236FEA6B
:1012FC004323099302A9204602F093FE0BB0F0BDE4
:10130C00154B1B782BB101200DF10701FFF750FF96
:10131C00DDE7124B1F88BFB217B1FFF767FFD6E7A7
:10132C000F4B5C69002CD3D0FFF772FF0024CFE782
:10133C000DF107010020C8E70DF107010020E5E7DA
:10134C0023F4FF7323F00103D3E7002CAAD1064644
:10135C00012599E700ED00E029ED00E02AED00E021
:10136C00D0ED00E0024A536943F01003536170471B
:10137C0000ED00E0044B9968586A884203D0034999
:10138C004FF080520A6070478807002004ED00E09F
:10139C00BFF34F8F0549064BCA6802F4E062134352
:1013AC00CB60BFF34F8F00BFFDE700BF00ED00E047
:1013BC000400FA05002320210348C2180133412BF5
:1013CC0082F80013F9D1704700E100E038B505460A
:1013DC004FF02003EFF3118483F31188BFF36F8F69
:1013EC0001F052F80A4B9B68AB420BD1094B5A687F
:1013FC00C2F3080212B92046FFF780FD5A6842F08A
:10140C0080525A602046BDE8384002F07CBF00BFD5
:10141C008807002000ED00E010B50E4B88B0029359
:10142C000D4B0E4C03930E4B0E4A049302AB0193DF
:10143C0001A82346012100F003F9002307930A4B6E
:10144C000121E41A05A80593069400F003F908B0ED
:10145C0010BD00BF000000200000000000000120B3
:10146C0006000100000000204801002010B50B68A8
:10147C000C7A23F01F0204F01F031A43CB68640993
:10148C0023F01F03044943EA440343F0010388603B
:10149C00CA600B6110BD00BF90ED00E02DE9F04F6C
:1014AC008046894614460027484D85B04F4507DADB
:1014BC0058F827305E68C6B31F2E05D86FF0150498
:1014CC00204605B0BDE8F08FF206F7D1D3F800A0A6
:1014DC001AF01F0FF2D1504602F0D2FD834606EBF4
:1014EC000A00013802F0CCFD8345E7D11BF1160F41
:1014FC00E4D0631E5B45E1DBC5F808B0E86858F83A
:10150C002710C5F808B02E6920F01F00D1E9003271
:10151C001A44984246F01F0602F1FF3A18D156457C
:10152C0005D15FFA8BF002F089FD0137BEE7C5F8F3
:10153C0008B0EB6822F01F0203F01F031A43EA60A5
:10154C00E0B202F07BFD10F1160FB7D0441CECE7B3
:10155C00C5F808B02A69013B23F01F0302F01F02F3
:10156C0013435645E0B22B61EBD002F067FD10F14E
:10157C00160FA3D0C5F808B0EA689DF80830013EF4
:10158C0062F304038DF808302B699DF808205B0882
:10159C0063F347128DF8082058F827200130D2E960
:1015AC0000321344009323F01F031E44A6EB0A06DB
:1015BC00C4B226F01F060F2C03963FF67FAF2046D1
:1015CC006946FFF753FF0134AFE700BF90ED00E031
:1015DC000522034B5A60BFF34F8FBFF36F8F7047D9
:1015EC0090ED00E0BFF35F8F0022014B5A60704713
:1015FC0090ED00E070B50E4D2E68102E15D800241D
:10160C00FFF7F0FF0B4B0C4A1A63A64205D10B4BAC
:10161C001E70FFF7DDFF002070BD6968204601EBEE
:10162C000411FFF723FF0134EFE74FF0FF30F3E72E
:10163C002449000090ED00E0AAFF4400E4070020DC
:10164C0010B5034C2278FFF729FF207010BD00BFA6
:10165C00E40700202DE9F74F254C8A4680460027E9
:10166C00A1464FF0140B234D57451ADAD8F8043025
:10167C000193002B36D0D8F800100846009102F0E8
:10168C00FFFCDDE9001306465818013802F0F8FC9F
:10169C008642194A08D014235F436FF0150349F8AA
:1016AC00073003B0BDE8F08F16F1160F2660F8D0A6
:1016BC001378B342F5DD0BFB0793AE60AE60E868C0
:1016CC00197B60F3040119732969187B490861F3CC
:1016DC0047101873EB6823F01F0363602B6923F02A
:1016EC001F0323610137143408F10C08BCE700BF59
:1016FC008C06002090ED00E0E407002082680C4B83
:10170C009A60036883F38888436883F38988027B33
:10171C0002F00101EFF3948323F00303920748BF17
:10172C0043F0020309B143F0010383F3948870473B
:10173C0000ED02E0084AD36848B123F400531B04BF
:10174C001B0C43F0BF6343F40033D36070479BB270
:10175C0043F40053F5E700BF00ED00E0084AD368FE
:10176C0040B19BB243F4804343F0BF6343F4003376
:10177C00D360704723F480431B041B0CF4E700BFB9
:10178C0000ED00E0084AD36840B19BB243F0080377
:10179C0043F0BF6343F40033D360704723F0080376
:1017AC001B041B0CF4E700BF00ED00E0034AD2F869
:1017BC008C3043F44063C2F88C30704700ED00E08D
:1017CC00084B1A6818B142F001021A60704722F0F7
:1017DC0001021A601A6811B142F00202F5E722F018
:1017EC000202F2E7D0ED00E0014B1860704700BF39
:1017FC0024000020F0B54B79012B27D0032B22D1EC
:10180C0010268B79032B1ED1CC7924B1012C1AD143
:10181C0043681B79BBB10A7912B1022A13D10E228B
:10182C0047F612270B684568BB422D6862D029D851
:10183C00B3F5965F61D014D8B3F5167F5FD007D897
:10184C00B3F5967F5ED06FF0220052E00026D8E709
:10185C00B3F5966F59D0B3F5166FF4D14FF41D2331
:10186C003CE0B3F5615F53D004D8B3F5165FEAD111
:10187C00324B33E0B3F5964F4CD0B3F5E14FE2D198
:10188C002F4B2BE0B3F5E13F46D012D84DF6C027D5
:10189C00BB4244D005D8B3F5164FD4D14FF41D0339
:1018AC001CE0B3F5614F3DD0B3F5963FCBD1254B42
:1018BC0014E0B3F5E12F38D008D8B3F5613F37D039
:1018CC00214FBB42BFD14FF0806307E0B3F5612FCE
:1018DC0031D01E4FBB42B6D14FF08053C5F82435E2
:1018EC003443C368224303C9C5F86C2583E803005D
:1018FC000020F0BD4FF40003F0E7154BEEE74FF47A
:10190C001C33EBE74FF4A033E8E74FF49E23E5E7F5
:10191C00104BE3E7104BE1E74FF0EB73DEE74FF4CE
:10192C006503DBE74FF46B03D8E74FF0E863D5E7CB
:10193C004FF06C73D2E74FF07063CFE70050270085
:10194C0000C0750000903A0190D0030040420F0097
:10195C0000B0130000F03A0000A04E000122F8B5D0
:10196C0003270D46436809681C68214B8A40C668EA
:10197C009A6001F1800243F822706A68571C1EBFFE
:10198C004FF0000C02F1800743F827C0C4F80C1587
:10199C00A968C4F814254A1C15D0EA68571C12D043
:1019AC0001274FF0030C97409F6002F1800743F82A
:1019BC0027C04FF0000C01F1800743F827C0C4F892
:1019CC000825C4F810153146FFF714FF70B9082329
:1019DC00C4F800356B68013308D001230C36C4F809
:1019EC001001C4F83465C4F838352360F8BD00BF65
:1019FC000025845030B585B005466C46044B0FCBA2
:101A0C0084E80F0021462846FFF7A8FF05B030BD3B
:101A1C00AC47000030B585B005466C46044B0FCB87
:101A2C0084E80F0021462846FFF798FF05B030BD2B
:101A3C00BC4700002DE9F0430025214C214E54F801
:101A4C00048CDFF8889085B0A84503D8002005B039
:101A5C00BDE8F083636A96E807001F6801AB83E872
:101A6C0007000C221946384602F01FFB90B98FB1C3
:101A7C00636A21691B681A6991420BD19A69A16941
:101A8C00914207D8E169914204D962695B6932EAF3
:101A9C0003030AD0276A67B10B4802F0C8F840402C
:101AAC0080F311884FF0040002DFE36801351C4419
:101ABC00CAE7484602F0BBF8636A1F60F5E700BF4F
:101ACC003C020000CC470000A94D0000D24D0000A4
:101ADC00064B1868043B1B68092B05D101380128FB
:101AEC008CBF002001207047002070473401FF009C
:101AFC00054B1868043B1B68092B03D1431E584245
:101B0C0058417047002070473401FF004E4A08B519
:101B1C00136843F002031360FFF7DAFF30B14FF0A4
:101B2C0050230022C3F81421C3F81821FFF7E0FF5B
:101B3C0030B10123454A1360A2F63822C2F8783539
:101B4C00434B1B68092B07D1424B1B68022B02BF6E
:101B5C000122414BC3F87825FFF7CAFF10B10E22C2
:101B6C003E4B1A60FFF7B4FF20B100223C4B1A60C9
:101B7C0001225A600022D30003F57F03D3F800132F
:101B8C00013108D0D3F800130132D3F80433B2F585
:101B9C00807F0B60EFD1334BDA69D1073BD5324BE9
:101BAC001946D3F80024012AFBD1C3F80425D1F837
:101BBC000034012BFBD12B4BDA69D20708D5DA693B
:101BCC00294922F00102DA61D1F80024012AFBD163
:101BDC001A6A01320AD11A6A22F0FF0242F020027C
:101BEC001A62214AD2F80034012BFBD100221E4B81
:101BFC00C3F80425D3F80024012AFBD1BFF34F8F7F
:101C0C001A491B4BCA6802F4E0621343CB60BFF362
:101C1C004F8F00BFFDE71B6A0133C0D0134BD3F8C5
:101C2C008C2042F44062C3F88C20D3F8882042F414
:101C3C007002C3F88820BFF34F8FBFF36F8F0D4B2B
:101C4C000D4A1A6008BD00BFD0ED00E0384A0050C4
:101C5C003001FF003401FF0000400050E4AE03509F
:101C6C000C4700500080FF000090035000ED00E096
:101C7C000400FA05480000200090D003F8B50027B6
:101C8C00084B53F82040013053F82060A64200D88E
:101C9C00F8BDD4E900352846984708B105B1AF60C6
:101CAC000834F3E7704900000F4B70B505461E462B
:101CBC000E4C9C4204D10D4CB44208D1002410E0CF
:101CCC00A26812B12268AA420BD01034F1E7A368C3
:101CDC000BB91034F0E72168284602F0DAF9002835
:101CEC00F7D1204670BD00BFE40000209400002016
:101CFC0008B50B4D4FF02002EFF3118382F31188DE
:101D0C00BFF36F8F02F0DAFB012104460228D8BF23
:101D1C00084602F0E3FB2C62FFF7A4F9EAE700BFE8
:101D2C00880700200248034A0021121A02F00EBA5A
:101D3C0048010020E807002008B50648064A074974
:101D4C00121A02F0D9F9BDE80840054A05490648BF
:101D5C0002F0D2B90000002048010020504E0000D3
:101D6C0000000000504E000000000020012208B5C9
:101D7C000B4B02201A70FFF781FF0A4A0A490B48E5
:101D8C0001F055FF0320FFF779FF00F045FD01F04E
:101D9C00C7FD074A137B23F00103137308BD00BF73
:101DAC00E5070020994A0000104E0000204E00006C
:101DBC00140700202DE98048DFF8F890A5B089F3CE
:101DCC0008880024E023344D4FF0010B85F82230B5
:101DDC00EC772C766C76AC76EC766B6A2F4E43F403
:101DEC00E0236B626B6ADFF8D0A043F400236B62D4
:101DFC00AC63FFF7B7FAFFF72FF94FF0FF33AB6285
:101E0C00EB6240F20113264DADF8283007ABAB6006
:101E1C002046CDE91F44FFF731FF0120FFF72EFFCD
:101E2C00DFF8988000F054FC1E4B6E624FF4806219
:101E3C004146059330465346CDE9034BCDE9014469
:101E4C00009400F0C3FC737B304623F004037373DF
:101E5C0002F075FA0F23144FCDE902434FF4A07230
:101E6C00124B13493846CDE904B4CDE9004400F0D7
:101E7C00ADFC7B7BEF6023F004037B7305F118034F
:101E8C00C5E906332C75C5F8049053464FF48062AF
:101E9C0041463046FFF7C2F800ED00E01407002081
:101EAC0088070020474E0000A0060020FD1C000003
:101EBC00E80B002028150020791D0000E807002001
:101ECC0070B50E4B0E4CA34201D3002070BDD3E96C
:101EDC00030141EA000212F003020BD19D685A6122
:101EEC00AA4201D11C33EEE75E6901320E605961E2
:101EFC000144F5E76FF01500E8E700BFE4000020AF
:101F0C00E4000020D3B50C4616461F464FF02003C4
:101F1C00EFF3118183F31188BFF36F8F43695BB1CA
:101F2C0023601B684361836901338361002081F363
:101F3C001188BFF36F8F11E056EA070203D12360BB
:101F4C006FF00B00F3E70246CDE90067044800F0A0
:101F5C0067FB18B9034B9B685B69236002B0D0BD6B
:101F6C00E60700208807002070B504460D464FF0A8
:101F7C002003EFF3118683F31188BFF36F8F02F008
:101F8C0052FA58B100212A680167426102F0D7F970
:101F9C003146BDE87040084802F0AAB92B68626966
:101FAC001A602B686361A369013BA36186F31188F6
:101FBC00BFF36F8F70BD00BFE60700202DE9F34122
:101FCC00044616461F464FF02003EFF3118883F3A7
:101FDC001188BFF36F8FC368324A6BB18068916808
:101FEC00884219D056EA070318D188F31188BFF339
:101FFC006F8F6FF00F000CE0916891F90E100133A8
:10200C00E36093682161A36088F31188BFF36F8F3D
:10201C00002002B0BDE8F0812169F0E790F90E30A4
:10202C0091F90E109942A8BF194621EAE171994223
:10203C002CDA00F009FB0546CDE900672246414643
:10204C00194800F0EDFA0028E3D04FF02003EFF32D
:10205C00118683F31188BFF36F8F236821699C422B
:10206C0007D033B193F90E309942A8BF194621EA33
:10207C00E171A06890F90E30994209D16DB13146E9
:10208C00094802F035F96FF00A00C2E70025D3E7E2
:10209C0000F0DAFA0028F2D1F0E786F31188BFF3EA
:1020AC006F8FF0E788070020E607002038B58368BB
:1020BC000446002B36D01E4A9268934235D1DA7B07
:1020CC00013ADA73C368012B05D0013BC36000F001
:1020DC00C3F8002038BD4FF02003EFF3118583F3D4
:1020EC001188BFF36F8F0169806890F90E309942A7
:1020FC0001D000F0A9FA204602F095F9A06058B181
:10210C0090F90E2022610022026702F018F929468C
:10211C00084802F0EDF8DAE7E06085F31188BFF3C8
:10212C006F8FD4E76FF01500D4E74FF0FF30D1E795
:10213C0088070020E607002010B5084C23685BB127
:10214C00FEF7E2FB2368064A184410610021BDE843
:10215C001040184602F0C2B910BD00BFC0070020E5
:10216C0088070020F8B50D464FF02003EFF31184DB
:10217C0083F31188BFF36F8F4FF4004140F2E736C1
:10218C0000270022E1FB0067094B30461A613946F3
:10219C004FF47A720023FEF74BF8064B1860064B8F
:1021AC001D60FFF7C9FF84F31188BFF36F8FF8BD73
:1021BC0088070020C0070020BC0700204FF0200338
:1021CC00EFF3118183F31188BFF36F8F044B9A687F
:1021DC00D37B013BD37381F31188BFF36F8F7047AF
:1021EC0088070020094B03F12802824205D19B6825
:1021FC008B4202D14B7BDB0606D1D1E90032136056
:10220C005A600023C1E90033704700BF88070020E3
:10221C0070B5104C064604F1280002F08AF8054609
:10222C00A368597B880644BF41F00801597305B96E
:10223C00E5684EB95A7BD20606D1AA6922B9DA8969
:10224C007F2A01D9636270BDAB4201D0FFF774FFE6
:10225C006562F8E78807002010B54FF02003EFF314
:10226C00118483F31188BFF36F8F084B00209A6899
:10227C00D37B0133D373FFF7CBFF84F31188BFF308
:10228C006F8FBDE8104002F04AB800BF88070020ED
:10229C0070B4437BDB0627D183692BBB134A02F155
:1022AC002801D2E90A348B4218D0BBB190F90E50F8
:1022BC0093F90E60AE420CDD5A68C0E90032106032
:1022CC005860437B63F07F03437370BC0020FFF7BF
:1022DC009FBF9C4202D01B68002BE9D1C0E90014BF
:1022EC00D36A1860D062ECE770BC70478807002096
:1022FC0010B54FF02003EFF3118483F31188BFF373
:10230C006F8F437B590704D484F31188BFF36F8F0D
:10231C0010BD23F004034373FFF7BAFF2146BDE859
:10232C001040014801F0E4BFE6070020F8B5044670
:10233C004FF02003EFF3118583F31188BFF36F8FF8
:10234C0090F90D30002B03DA01461848FFF74AFFCD
:10235C00174A02F12801D2E90A308B421FD0F3B19F
:10236C0094F90E6093F90E70B74213DD5968C4E905
:10237C0000310C605C60637B906863F07F03637377
:10238C00031B58425841FFF743FF85F31188BFF3F5
:10239C006F8FF8BD984202D01B68002BE2D1C4E9C4
:1023AC000010D36A1C60D462E5E700BFB0070020C0
:1023BC0088070020154A164938B50C689368A34263
:1023CC00144603D1BDE83840FFF7B6BE00250D60BA
:1023DC0010490968B9B1D9897F2914D80E4993F9E4
:1023EC000E5009688D420EDB0C498B420BD099695B
:1023FC0049B91169814203DC1846FFF797FFE1E701
:10240C00091A116138BD00232361FBE788070020FE
:10241C00B8070020C0070020BC070020A006002041
:10242C0070B50446183002F033F84FF02003EFF388
:10243C00118683F31188BFF36F8F94F90D30002B45
:10244C0007DA21460E48FFF7CDFE637B03F07F03CE
:10245C0063730C4D637BA86843F010036373031B19
:10246C0058425841FFF7D4FE86F31188BFF36F8FA3
:10247C00AB68A34203D1BDE8704001F050BF70BD02
:10248C00B007002088070020836D2DE9F041044639
:10249C0003B1984704F1180001F0FAFF4FF0200344
:1024AC00EFF3118683F31188BFF36F8F637BD8062C
:1024BC0023D1A2690ABB190607D521461E48FFF78E
:1024CC0091FE637B03F07F0363731C4B9868021BC4
:1024DC0050425041FFF79CFE0027637B04F1280813
:1024EC0043F008036373A56A454500D095B986F39C
:1024FC001188BFF36F8FBDE8F0819B07ECD52146A7
:10250C00A068FFF76FFE637B23F002036373002365
:10251C00A360E1E705F1180001F0BAFFA8682946AD
:10252C00FFF760FE6B7BAF6023F002036B732F67CA
:10253C002846FFF7ADFED6E7B0070020880700203D
:10254C0010B590F90D300446002B07DA0146084807
:10255C00FFF748FE637B03F07F036373054B9868BA
:10256C00031B58425841BDE81040FFF751BE00BF55
:10257C00B007002088070020F8B5064601F0C8FF18
:10258C0034184FF02003EFF3118783F31188BFF356
:10259C006F8F0D4D0D4BA868186001F00CFFA868EB
:1025AC000B493246F317183000F0D4F9AA683846B4
:1025BC00537B43F010035373FEF7A0FC01F0A8FF0C
:1025CC00201A20EAE070F8BD88070020B807002028
:1025DC006B4300002DE9F041064614461D464FF0B2
:1025EC002003EFF3118783F31188BFF36F8F01F092
:1025FC00F2FE87F31188BFF36F8F6B1C08BFB4F129
:10260C00FF3F08D022462B4606F118000349BDE8CF
:10261C00F04100F09FB9BDE8F08100BF6B430000B2
:10262C0010B50C46064B11469868064B1860DDE950
:10263C000223FFF7CFFF2046BDE81040FEF75EBC3B
:10264C0088070020B80700202DE9F04104464FF020
:10265C002003EFF3118883F31188BFF36F8F437B53
:10266C004EB2DB062ED1836963BB184D014605F1D2
:10267C0028073846FFF7B6FDAB6AA673BB422A465D
:10268C0019D0C3B1E96A93F90E00B0420EDD5A6855
:10269C00C4E9003214605C600120FFF7B9FD012031
:1026AC0088F31188BFF36F8FBDE8F081994202D097
:1026BC001B68002BE7D1D36A27606360D36A1C6068
:1026CC00D462E9E7A6730020EAE700BF8807002080
:1026DC000021044B084603F12802C3E90A22FFF744
:1026EC0041BD00BF88070020F8B5234C234BA268DE
:1026FC009A4229D04FF02003EFF3118683F311880F
:10270C00BFF36F8F04F12805A1682846FFF76AFD17
:10271C00A26AA368AA4228D03AB3E06A93F90E10D1
:10272C0092F90E708F421BDD5168C3E900210B60DA
:10273C0053605A7B012062F07F025A73FFF768FDE9
:10274C0086F31188BFF36F8F4FF02003EFF31180E6
:10275C0083F31188BFF36F8FBDE8F840FEF7CEBB53
:10276C00824202D01268002ADAD1E26A1D605A60F5
:10277C00E26A1360E362DCE788070020A006002011
:10278C00013108BFB0F1FF3F10B506D10B4B986873
:10279C00FFF746FE4FF0FF3010BD044648B9FFF777
:1027AC00A3FF4FF47A7084FB0034D80B40EA44400A
:1027BC00F2E7FFF7E1FE0446F3E700BF88070020CD
:1027CC00014B9868704700BF88070020F0B500F1F6
:1027DC002805C0E90A55042545730025044687B031
:1027EC00DDE90F678673CDE903670E9E07730296CA
:1027FC000D9EC57301960C9EC0E906550096FEF71A
:10280C00F3FB044BC4E915559B6803B19B6EA3669F
:10281C0007B0F0BD880700202DE9F04FDFF8BC9021
:10282C002C4DC84689B04D4505F130040FD3FFF748
:10283C00C5FC4FF4004940F2E73A4FF0000B254C31
:10284C00444521D309B0BDE8F04FFFF705BD54F85E
:10285C00043C059354F8103C049354F8143C039333
:10286C0054F8183C029354F81C3C019354F8203C47
:10287C00009354E90A2354E90C01FFF7A7FF54F81D
:10288C00303C5D652546CEE7616A4B1C17D0564639
:10289C005F4621EAE171C9FB01674FF47A720023AC
:1028AC0030463946FDF7C4FC002306900793DDE95A
:1028BC0006231343256804D12846FFF719FD30344D
:1028CC00BEE7DDE90623044905F1180000F042F8E3
:1028DC00F5E700BFE40000206B430000E40000209B
:1028EC00034B1B680BB9FEF70FB80020704700BFF5
:1028FC00C4070020036840B1074A5268904204D0D4
:10290C001BB19A6881680A449A60426813605A60E5
:10291C000023C0E9003370474C0000200B4B10B56E
:10292C001C689C4208BF0024FFF7DAFF54B1A3686F
:10293C00181A20EAE070064B1B6913B19842A8BF25
:10294C00184610BD6FF00040F5E700BF4C000020AA
:10295C00880700202DE9F74F0191591C08BFB2F1EF
:10296C00FF3F824661D0541C43F100056FF0010318
:10297C004FF0FF3BB3EB04086BEB0509B8F1000F0C
:10298C0079F100030FDBFFF7ABFF6FF001032C4A6B
:10299C00D2E9001C5B1A6BEB0C021E1B62EB0507E9
:1029AC00341A67EBE075019BCAF80C304FF020032A
:1029BC00EFF3118683F31188BFF36F8FFFF790FF4E
:1029CC00012C75F10003B8BF01241E4B04441A6896
:1029DC00CAF808409A4201D05C6852B95A68CAF8E1
:1029EC000030CAF804205A68C2F800A0C3F804A04A
:1029FC000DE09068DAF80810884219DD411A9160F0
:102A0C005168CAE90021C1F800A0C2F804A01A68F4
:102A1C009A4206D0924504D1FFF780FF0021FDF7C2
:102A2C000FFF86F31188BFF36F8F03B0BDE8F08FF3
:102A3C00091A9442CAF80810D0D01268CDE700BF2A
:102A4C00480100204C0000202DE9F04B0446FFF714
:102A5C00B1FC4FF02003EFF3118583F31188BFF322
:102A6C006F8F214F214EB846DFF884903460D9F82F
:102A7C00004032684C45D7E900BC05D024B1A368AE
:102A8C00934214DD9B1AA36000241BEB02004CEB59
:102A9C00E271C8E900013460FFF740FF2146FDF701
:102AAC00CFFE85F31188BFF36F8FBDE8F08B1BEB66
:102ABC0003004CEBE371D31A33600023C7E9000128
:102ACC00A3602046FFF716FF85F31188BFF36F8FC5
:102ADC00E36898474FF02003EFF3118583F31188D7
:102AEC00BFF36F8FC3E700BF48010020C40700206D
:102AFC004C0000202DE918484FF02003EFF311840F
:102B0C0083F31188BFF36F8FFDF7FEFE074BD3E9FC
:102B1C00002312EB000B43F1000C5846614684F382
:102B2C001188BFF36F8FBDE8188800BF48010020E3
:102B3C0038B5064C064DAC4201D3002038BDD4E963
:102B4C000112204601F0E8FC1434F4E7E400002004
:102B5C00E400002001F0B9BA0A46002101F0F6BAEF
:102B6C0010B5114800F048F800B110BD0F4800F046
:102B7C0043F80028F9D10E4C204600F03DF800280F
:102B8C00F3D10C4B0C481C6000F036F801460028C1
:102B9C00EBD100F02DF8044608B1204610BD00F032
:102BAC0051F82046FAE700BF6000002054000020D6
:102BBC005C000020640000205800002008B5084884
:102BCC0000F024F8074800F021F8074800F01EF840
:102BDC00064800F01BF8BDE8084000F00BB800BF39
:102BEC0060000020540000205C00002058000020F1
:102BFC0000207047704700BF08B5034B02681B6884
:102C0C0010689847002008BD7000002008B5034BE1
:102C1C0002685B6810689847002008BD70000020AF
:102C2C000268024B10689B68184700BF70000020B8
:102C3C0008B5034B0268DB6810689847002008BD94
:102C4C007000002070B5094C094D2069AB6898479D
:102C5C0018B1084B08485B6898470021074AEB6895
:102C6C0011602069BDE87040184700BF800000204B
:102C7C00700000206800002088490000C807002070
:102C8C00F8B51A4C1A4D0746AB6820699847E8B955
:102C9C00184E33687FB93BB90120174A1749C2F85F
:102CAC0000050A68002AFCD101333360EB68206907
:102CBC0098470020F8BD002BF8D0012B08D0013B21
:102CCC0033602069EB6898470020F3E70C48F8BDA7
:102CDC000A4A1368002BFCD1074A6FF07E40C2F8F9
:102CEC00003500F021F83368E9E700BF80000020D0
:102CFC0070000020C8070020000084501019845078
:102D0C00E98FFFFF0020704700207047430503D573
:102D1C004FF0FF32024B1A60024B1860704700BF35
:102D2C0008118450081A8450014B1860704700BF7A
:102D3C00041A845008B100F003B84FF475007047C2
:102D4C000246074803681342FCD021B1054B0648E4
:102D5C001B680B600360054B00201A60704700BFB6
:102D6C00001A84500411845008118450081A84509D
:102D7C0000F0A0B830B129B1002301440370013038
:102D8C008142FBD1704700BF2DE9F041ADF51A7DB2
:102D9C000F4605920021144612A84FF408721E46E5
:102DAC0001F0D4F9002308A819462822069301F053
:102DBC00CDF9002F3CD0002E3AD0002C38D0042175
:102DCC0006A8FFF7C9FE08A82821FFF7C5FE08A82A
:102DDC0000F032F878B14FF0FF3512A84FF40871BB
:102DEC00FFF7C8FF06A80421FFF7C4FF28460DF51E
:102DFC001A7DBDE8F08112AB0DF11C080390CDE9F2
:102E0C000163024605AB08A9CDF8008006A800F0C6
:102E1C00E9FC0028DFD13368A342DCD3D8F80010DA
:102E2C000546083138462246FFF794FE3460D4E755
:102E3C004FF0FF35DAE700BF1C2330B583B002A991
:102E4C0041F8043D044600F0B1F90546D8B9019BA0
:102E5C001C2B1BD1D4E9003201210033E16118BFD6
:102E6C0001230AB143F00203A26832B9E268AAB99D
:102E7C00C4E908323BB90D4D09E0E26843F00403A4
:102E8C0062B9C4E90832284603B030BD084D20466B
:102E9C001C21FFF761FE284603B030BD00222846F6
:102EAC0043F00803C4E9083203B030BD0E0CF00047
:102EBC00370CF00010B50C4C236813B10B4B1B688E
:102ECC006BB900F031F938B10138062896BF084BC0
:102EDC00084853F8200010BD0122044B1A6001234E
:102EEC000020236010BD00BFCC070020D0070020BD
:102EFC00A8490000FE8FFFFF10B5094C23681BB1D9
:102F0C0001230020236010BD00F07CF80028F7D0CE
:102F1C000138062896BF034B034853F8200010BD18
:102F2C00CC070020A8490000FE8FFFFFBFF34F8F96
:102F3C000549064BCA6802F4E0621343CB60BFF349
:102F4C004F8F00BFFDE700BF00ED00E00400FA0565
:102F5C00014B5B68184700BF68000020024BD0E9AA
:102F6C000012C3E90012704768000020704700BFD0
:102F7C0010B5044620B1BFF35F8F0020206010BD58
:102F8C000348FFF7E5FFBFF35F8F0020206010BD03
:102F9C00E849000010B5044610B10023236010BDB1
:102FAC000248FFF7D5FF0023236010BDC449000081
:102FBC0050B10122D0E8EF3FC0E8E12F0029F9D150
:102FCC00012BF7D0BFF35F8F0020704770B40B4B11
:102FDC000668C268D0E90154C3E90242C3E900653E
:102FEC00D1E903020E68064BD1E90154C3E900652F
:102FFC00C3E902401A6170BC704700BF700000202A
:10300C008000002010B5FFF77DFE70B9FFF7A8FD1A
:10301C0080B9FFF735FE80B9114B1B681B0EF02BE6
:10302C000DD00624FFF770FE00E00324FFF7C6FD69
:10303C00204610BD0424204610BD0024F2E7094AA6
:10304C00094B12689A4201D00724EBE70120FFF7E5
:10305C0017FE0028F1D1054B04461860E8E700BFC5
:10306C0028198450241A84500000E0200C1A845033
:10307C0030B5ADF5157D4FF4087200210CA801F0A8
:10308C0065F8002302A819462822019301F05EF886
:10309C0002A8FFF7D1FE18B105200DF5157D30BD46
:1030AC001C4D4FF0FF312868FFF7BAFD0446F0B90C
:1030BC000020FFF7E5FDB0B90CAA02A901A800F0A9
:1030CC00D5FB04460120FFF7DBFDF0B92868FFF7BC
:1030DC00AFFD10B11048FFF73BFF2046002CDBD1B1
:1030EC000DF5157D30BD0D48FFF732FFE4E70C48B8
:1030FC00FFF72EFF012CDBD12868FFF799FD002884
:10310C00CAD00548FFF724FFC6E70648FFF720FFA3
:10311C00DCE700BF64000020204A0000384A0000B1
:10312C00084A0000584A000008B5FFF7EBFD18B13B
:10313C00FFF744FD032008BDFFF712FD68B9FFF748
:10314C009FFD60B9154B1B681B0EF02B12D0FFF7BF
:10315C00DBFDFFF733FD062008BD042008BDFFF79B
:10316C00D3FDFFF72BFDFFF783FF00280CBF0020DA
:10317C00052008BD0A4A0B4B12689A4205D0FFF78E
:10318C00C3FDFFF71BFD072008BD0120FFF778FDED
:10319C000028E4D1044B1860E5E700BF28198450DF
:1031AC00241A84500000E0200C1A845018B111B17C
:1031BC000B681C2B01D0012070474FF47F033A4A57
:1031CC00D3F8101C91425AD0D3F8102C013256D09F
:1031DC00D3F8102C4FF47F030260D3F8141C334A3D
:1031EC0091425ED0D3F8142C01325AD0D3F8142C5F
:1031FC004FF47F034260D3F8182C12F5947F4DD016
:10320C00D3F8182C013249D0D3F8182C4FF47F0383
:10321C008260D3F81C1C264A91423CD0D3F81C2C5B
:10322C00013238D0D3F81C2C4FF47F03C260D3F892
:10323C00002C70322DD0D3F8002C013229D0D3F8C9
:10324C00002C4FF47F030261D3F8042CAF321ED054
:10325C00D3F8042C01321AD0D3F8042C4FF47F038A
:10326C004261D3F8081C134A91420BD0D3F8082CB6
:10327C00013207D0D3F8083C83610020704740F638
:10328C00FC02A7E740F237338361002070475122DC
:10329C00E4E79022D5E742F60412C5E740F6D8627F
:1032AC00B4E742F2D002A3E7FCF8FFFFD020FFFF07
:1032BC000429FFFF37F3FFFFA8B32DE9F0414C1EA3
:1032CC00B4F5047F2CD25BB352B34FF0000CC900A1
:1032DC00E646654664464F1E03F1FF380CE0AB42F0
:1032EC0016D08E4501D10CF1010CA84516D0013435
:1032FC00BC4205F1010518D8610950F8211004F001
:10330C001F06F1401F2E18BF01F00101002CE6D161
:10331C000025A8458E464FF0010CE8D16245E6D257
:10332C000348BDE8F081024870470020BDE8F081F9
:10333C00370CF1002DE9F04F8FB00D46DDE9194146
:10334C008346002957D12969039100211C60189BE1
:10335C001960002A00F02281814A824B11686A6A46
:10336C001B689A4257D10A2955D19BF80330069312
:10337C000399042308467C4A0293A2FB000292089C
:10338C00CB0002EB420204F10800A1EB4202013B2C
:10339C00DFF8D091DFF800A2049000920593189BFF
:1033AC00039C1C60002C00F0CC800026049F00F0D5
:1033BC00A9FA00230793069BBBF1000F3AD0002D0E
:1033CC0034D053BB5B000693BBF1000F36D0002DFD
:1033DC0034D0E3B106A9284600F084FA002800F0A6
:1033EC007D81624B984212D0009000F08BFA0098CD
:1033FC000FB0BDE8F08F4FF47F01D1F80C0C013009
:10340C000CBF4FF40471D1F80C1C03919DE72B6A8F
:10341C0073B95648E8E75648E6E706A9284600F08F
:10342C0061FA68B1534B9842DED0069B082BC9D188
:10343C005148D9E7082BFBD05B0006934F48D3E7E4
:10344C002946069800F030FA0028EBD1069B082B91
:10345C0000F00E81042B00F03181A3F10203B3FACA
:10346C0083F35B09019301231946454A136042F823
:10347C00843C434B19606B6AC9F80030D9F80020C2
:10348C006B6A9A42F5D14FF000084FF0FF30CAF842
:10349C000080FFF73BFC3B4A3B4B40461A60FFF772
:1034AC0043FC0A22019839492D4B08601A602A699D
:1034BC00A8F15538A8FB02126B6A120903EB4303FF
:1034CC00DB0303FB02F3324A9B0913600123CAF8A6
:1034DC0000300699DBF800200B0243EA016322F06E
:1034EC007F421343CBF8003007A800F0CDF9002839
:1034FC0098D1284BA8FB04281A681433089253F867
:10350C00102CB6EB980F099253F80C2C0A9253F826
:10351C00082C0B9253F8042C0C921B680D9301D1C0
:10352C00009B9BB93846182208A9FFF713FB183CDF
:10353C0018370136002C7FF43AAF049B002B40F077
:10354C009A800023189A1360069B6FE71A46384638
:10355C0008A9E41AFFF7FEFA009B1F44E9E700BF35
:10356C003811845030118450ABAAAAAA310CF10046
:10357C00300CF100020CF100320CF100350CF100B2
:10358C00C4118450FEFFFF0F001184500C118450A5
:10359C00D8118450141184502C118450BBF1000F9D
:1035AC003FF44CAF002D3FF449AF01230EA941F875
:1035BC00203DCBF80020284600F094F900287FF439
:1035CC0013AF2946069800F06FF900287FF40CAF72
:1035DC00069F082F00F0EB80042F00F0EA80A7F183
:1035EC000207B7FA87F77F0901221646734B744915
:1035FC001A6018460A60943B06606A6A1A60196879
:10360C006A6A9142F8D14FF000086E4B4FF0FF30D0
:10361C00C3F80080FFF77AFB6B4B6C4A40461A608C
:10362C00FFF782FB0A226A496A4B0F601A601A99EB
:10363C002B6901296A6A00F0B1806749A1FB031369
:10364C001B09012102EB4202D20303FB02F3634A82
:10365C009B0913605B4B19600699DBF800200B0289
:10366C0043EA016322F07F421343CBF800307FE63C
:10367C0003230193F7E6039BB3F5047F3FF661AF99
:10368C00DDE9047C204623466E6904E00120013309
:10369C006345144615D85A0957F8222003F01F0128
:1036AC00CA401F2918BF02F00102002BEED0A24223
:1036BC00ECD101308642EAD149480BE00223019358
:1036CC00D1E64FF48063DDE90310AA69FFF7F4FD3E
:1036DC0000285DD00023189A1360A3E629460698AB
:1036EC0000F0E2F800287FF47CAE069C082C51D048
:1036FC00042C51D0A4F10204B4FA84F4640901231B
:10370C001E4619462D4A136042F8843C2B4B196017
:10371C006B6AC9F80030D9F800206B6A9A42F5D16F
:10372C0000274FF0FF30CAF80070FFF7EFFA264B76
:10373C00264A38461A60FFF7F7FA0A222449254B25
:10374C000C601A602A6924496B6AA1FB021203EB14
:10375C0043031209DB0303FB02F3204A9B091360AA
:10376C00CAF80060069BDBF800101A0242EA0363F9
:10377C0021F07F421A43130A03F47F03134323F00F
:10378C007F43CBF80030029B013B02937FF407AEE2
:10379C00002029E60324B2E70224B0E74FF47F03AC
:1037AC00D3F80C1C013106D0D3F80C3C45E70327A9
:1037BC001AE7022718E7162343E700BFC411845009
:1037CC00401184502C11845000118450FEFFFF0FC7
:1037DC000C11845038118450ABAAAAAAD811845069
:1037EC00360CF1002DE9F0431B4C85B00746DDE9A2
:1037FC000D56884620684FF0FF319146FFF710FABE
:10380C0028BB0020FFF73CFAE8B90023CDE90056AD
:10381C0002934A46414638460C9BFFF78BFD054602
:10382C000120FFF72DFA50B92068FFF701FA10B10B
:10383C000A48FFF78DFB284605B0BDE8F083084821
:10384C00FFF786FBF0E70748FFF782FBDDE706484A
:10385C00FFF77EFBD5E700BF64000020204A000084
:10386C00584A0000384A0000084A000010B50124EC
:10387C0086B005ABCDE901240093002204ABFFF721
:10388C0059FD06B010BD00BF08B501464FF480606D
:10389C00FFF750FA00230249024A0B60136008BD7F
:1038AC00C81184502C1184500138072815D8DFE832
:1038BC0000F0100C140814141404CB6800204B6294
:1038CC0070478B6800204B6270474B6800204B623E
:1038DC0070470B6800204B6270470148704700BF6F
:1038EC00310CF1000B6802E0082B0B6006D8026A61
:1038FC0013424FEA4303F7D000207047004870474B
:10390C00310CF10000230449044A0B604FF4806031
:10391C001360FFF7FBB900BF2C118450C411845005
:10392C0008B5FDF7FBF8BDE80840FDF78DB80020A1
:10393C00704770B50D4604464520A04729465220D5
:10394C00A04729462346BDE87040522018472DE970
:10395C00F04F4FF0000806460F461C464FF0FF3A5A
:10396C00C14645468BB00292029B187810B90BB039
:10397C00BDE8F08F45B9252800F04B813946B0479A
:10398C00029B01330293EFE764286DD019D83928D4
:10399C000AD831285FD22D2800F0418130284BD035
:1039AC00252807D1394632E1582800F0BB8063281E
:1039BC0000F02A8139462520B047029B39461878F9
:1039CC0025E1702800F0A48011D869284CD06C280F
:1039DC0005D1B8F16C0F2AD14FF04C08D0E768280C
:1039EC00E8D1B8F1680F22D14FF04808C8E7752824
:1039FC0072D018D87328DDD154F8045BAB465B4603
:103A0C001BF8010B002840F0FC80B9F1030F40F0CB
:103A1C000C815D1BAAEB0505002D49DD39462020E4
:103A2C00B047013DF8E778287CD07A28C2D1B8F1AC
:103A3C00000FBFD18046A3E7BAF1000F0EDAB9F13F
:103A4C00000F00F0EF80A0F1300AB9F1000F08BFB1
:103A5C004FF0020994E7BAF1000FF4DB0A2303FBE1
:103A6C000A0AAAF1300AF0E7B8F17A0F02D154F839
:103A7C00045B20E0B8F16C0FF9D0B8F14C0FF6D123
:103A8C00073424F00704F4E8022312F100410691F4
:103A9C0043F1000107910021DDE906BC4FF0FF3036
:103AAC00614508BF584505D239463046FFF741FFFE
:103ABC00002565E71546002D05DA39462D20B0475F
:103ACC006D420AF1FF3A4B462A46CDF800A0394622
:103ADC003046FCF761FDEBE7B8F17A0F02D154F8F0
:103AEC00042B11E0B8F16C0FF9D0B8F14C0FF6D1F2
:103AFC0000214FF0FF30073424F00704F4E80223D0
:103B0C00994208BF9042CFD3CDF800A04B46DEE7D8
:103B1C0039463020B04739467820B0474FF0080A74
:103B2C004FF00109029B1B78702B04D154F8043B15
:103B3C00049300230DE0B8F16C0FF7D0B8F14C0FE3
:103B4C00F4D1073424F007031C4654F8082B5B68A7
:103B5C000492002110224FF0400B03910591ABF120
:103B6C00040B0498CBF1200CABF1200120FA0BF0E4
:103B7C0003FA0CFC40EA0C0023FA01F1084310F0A4
:103B8C000F0006D1059911B9BBF1000F22D13021DC
:103B9C0003E009288CBF57213021084440B2394634
:103BAC0008930592B047039B059A01330393089B36
:103BBC00BBF1000F23D1B9F1030F7FF479AF039B55
:103BCC00C3EB4A05002D7FF773AF39462020B04771
:103BDC00013DF7E7511E9245089107DBB9F1010F42
:103BEC0006D1394630200993B047099B089AB6E7AD
:103BFC00B9F1020FFAD1099339462020F4E7059563
:103C0C00ADE73946B047FAE6394654F8040BB047ED
:103C1C004EE7A846A9464FF0FF3A0125B0E64FF013
:103C2C000309ADE64FF00109AAE60546A8E60FB474
:103C3C0007B504A951F8040B0191FCF7FFFC03B084
:103C4C005DF804EB04B07047044608B5084611460D
:103C5C001A46A047FEF7B4FDFDF7B8FB036803EB6B
:103C6C00C1018368B3F5004F2CBF51F8220031F825
:103C7C001200704710B50468806804EBC101B0F500
:103C8C00004F2CBF41F8223021F8123010BD2DE925
:103C9C00F041044600220D46FFF7E0FFE3681840B0
:103CAC00A368B0FA80F2B3F5004F34BF00200120B6
:103CBC006368C0F11F00801A03EBC0014A68561CF0
:103CCC004E60A2B9012202FA00F162690A436261F4
:103CDC00294643F8305002222B462046FFF7CAFFF4
:103CEC00032229462046BDE8F041FFF7C3BF53F835
:103CFC003060022231462046FFF7B0FF07460346EC
:103D0C00022229462046FFF7B5FF334603222946F7
:103D1C002046FFF7AFFF032239462B462046FFF71C
:103D2C00A9FF02223146DDE7F8B5CC1D114447F658
:103D3C00FF7224F0070421F00701091BB1F5802F55
:103D4C004FEAD1032CBF6FF00041114604600020F4
:103D5C009342E16094BF00210121B3FA83F6174628
:103D6C008446C1F1200104F11805891B21F0604142
:103D7C00C4E901530331246060612161A268BA4235
:103D8C0094BF00220122C2F11F02921B90420ADD55
:103D9C005B1A20460022FFF76DFF21692046BDE823
:103DAC00F840FFF774BFC5F804C0013045F808CBE4
:103DBC00E4E77047FDF7AABE0C22C368C9B202FB48
:103DCC0001314B7A23B9087AB0FA80F04009704778
:103DDC000220704770B5C9B24468C5684FF0200323
:103DEC00EFF3118683F31188BFF36F8F0C224A43D4
:103DFC00AB18187A90B10138C0B2187288B904EBBC
:103E0C0081040121A850E278586002F1502211601F
:103E1C00587286F31188BFF36F8F70BD6FF044003A
:103E2C00F7E70020F5E72DE9F8434668CFB2D0F864
:103E3C000CE04AB10C237B435EF803309A4252D01B
:103E4C0013B11B68002BF9D14FF02003EFF3118C49
:103E5C0083F31188BFF36F8F0C257D430EEB0503A5
:103E6C001C7A0134E4B21C728CF31188BFF36F8F8F
:103E7C005AB34FF0502C4FF00308CCF8088393F84A
:103E8C0009C0BCF1000F15D14FF02008EFF31189D8
:103E9C0088F31188BFF36F8FC2F800C0D3F8048089
:103EAC00B8F1000F1BD15A604EF8052089F3118828
:103EBC00BFF36F8F4FF050230325C3F80453BCF1AD
:103ECC00000F02D0D2E901329847012C05D106EB44
:103EDC008706B37803F150231C60002005E0C8F876
:103EEC0000205A60E2E76FF00F00BDE8F883002273
:103EFC00FFF799BF10B50022044601210520FDF7FC
:103F0C005BF80520FDF748F84FF050230222C3F868
:103F1C00182503220020C3F80423E368C3E900003A
:103F2C00E368C3E9030010BD70477047002307B571
:103F3C0001A88DF80430FEF71BFF03B05DF804FBFD
:103F4C00902908B5134639D10A4601460020FEF7E0
:103F5C001BFFBDE80840714672467346B7EE000A77
:103F6C00F7EE000AB7EE001AF7EE001AB7EE002AC9
:103F7C00F7EE002AB7EE003AF7EE003AB7EE004A39
:103F8C00F7EE004AB7EE005AF7EE005AB7EE006AA9
:103F9C00F7EE006AB7EE007AF7EE007A8EF3008C3B
:103FAC0010B4F1EE10CA4FF66074C0F6FF740CEA50
:103FBC00040CE1EE10CA10BCF44674476FF0150007
:103FCC00C7E7FEE70021012000F02BB843B2A9B1EE
:103FDC00002B12DB01215B099B0003F1604303F50D
:103FEC006143D3F8802200F01F0001FA00F022EAAE
:103FFC000002C3F88022D3F880327047002BFCDB20
:10400C0001225B099B0003F1604303F56143D3F884
:10401C00801200F01F0002FA00F00843C3F880027F
:10402C00E9E700F026B90146006800F022B908B5AE
:10403C00FDF726F8BDE80840FDF79CB930B50B68D4
:10404C0085B04C689DF808200D89013C0093498986
:10405C0023F01F03234465F3040261F3471223F09A
:10406C001F030F288DF808200393044605D86946D2
:10407C00FDF7FCF9204605B030BD6FF01504F9E7EB
:10408C0040E800F313F4803FD8B208BF6FF015007E
:10409C0070470138013910F8013F11F8012F934294
:1040AC0001D1002BF7D1981A704710B55AB10139CC
:1040BC00841810F8012B11F8013FA04201D09A424C
:1040CC00F7D0D01A10BD1046FCE7431A934210B536
:1040DC0000EB020308D3024601399A420BD011F8C7
:1040EC00014F02F8014BF8E70A4412F8014D8A42DD
:1040FC0003F8014DF9D110BDF0B581EA0004A50714
:10410C0003460BD0013B0A4491421AD1F0BD002A60
:10411C00FCD011F8014B013A03F8014B9C07F6D186
:10412C009508AC001E1F0F19B94205D16FF003069C
:10413C00234406FB0522E5E751F804CB46F804CFEF
:10414C00F2E711F8014B03F8014FDDE7034670B5B8
:10415C00C9B29C0710D141EA012444EA04459408F1
:10416C0003EB8406B3420DD16FF0030505FB042469
:10417C001C44A34209D170BD002AFCD003F8011BDA
:10418C00013AE6E743F8045BECE703F8011BF0E7C0
:10419C004FF0FF3070470B46C26892E8030083E88B
:1041AC0003000020704743681B68D3F88004C3F8F1
:1041BC00800470474368C2681B68D3F8100138B19B
:1041CC00127B00200A700122C3F810011A6070479C
:1041DC004FF0FF3070472DE9F34143688DF807101D
:1041EC001C68C66800F04CF9C0B964254FF0010892
:1041FC0006F10807D7E8EF3F002B03D1C7E8E28FA1
:10420C00002AF7D10CD021200021013DFEF7B8FA8D
:10421C0015F0FF05EED102B0BDE8F0810123B360CB
:10422C000023C4F820310DF10703C4F844350123F1
:10423C004FF47A75C4F84835A360D4F8203123B90B
:10424C00012000F014F8013DF7D10123E3600023B5
:10425C00B360E0E708B50020FDF79AF808B5FCF765
:10426C00B3FDFCF735FEBDE80840FEF745BE00F097
:10427C000DB9F8B506460F464FF02003EFF3118544
:10428C0083F31188BFF36F8FFEF79AFA3946044611
:10429C003046FFF7DFFF85F31188BFF36F8F2046A1
:1042AC00BDE8F840FDF792B8FFF73FBE30B50024EB
:1042BC00846141EA020414F00304C0E90232016192
:1042CC000CD14461A34203D1C0E90000002030BDF1
:1042DC00456901340D6041611144F3E76FF015003D
:1042EC00F5E703460020C3E90033C3E90200704739
:1042FC0021B9EFF3058008B9FCF700BE81F31188F2
:10430C00BFF36F8F7047034620B9EFF305820AB9EC
:10431C00FCF7F4BD83F31188BFF36F8F70474FF038
:10432C002003EFF3118083F31188BFF36F8FFFF736
:10433C00EABF0368984214BF18460020704710B5B6
:10434C004FF02003EFF3118483F31188BFF36F8FC9
:10435C00FDF79EFF84F31188BFF36F8F10BD50F8EB
:10436C00103C70B50446A0F11805CBB14FF02003FA
:10437C00EFF3118683F31188BFF36F8F294650F842
:10438C00100CFDF72FFF14F80B3C23F0020304F87C
:10439C000B3C002344F8103C86F31188BFF36F8F5D
:1043AC0014F80B3C284623F0140304F80B3CBDE82E
:1043BC007040FFF7C4BF10B54FF02003EFF311842A
:1043CC0083F31188BFF36F8FFEF7BAF884F311886B
:1043DC00BFF36F8F10BD38B504460D46FEF7B0F82D
:1043EC00637B43F0020363737DB12B68A5609D4230
:1043FC0012D08BB194F90E2093F90E10914205DD79
:10440C005A68C4E9003214605C6038BD69688B423C
:10441C0002D01B68002BEFD16B68256063606B6862
:10442C001C606C60F1E738B54FF02003EFF311829C
:10443C0083F31188BFF36F8FFFF77BFF044682F382
:10444C001188BFF36F8FC8B14FF02003EFF31185C4
:10445C0083F31188BFF36F8F01468068FDF7C2FEAE
:10446C00637B23F0020363730023A36085F311883D
:10447C00BFF36F8F04F1180000F00AF8204638BD26
:10448C00EFF30580003018BF01207047FCF7F8B837
:10449C0010B54FF02002EFF3118482F31188BFF3B3
:1044AC006F8F03683BB1FEF725FA002084F3118867
:1044BC00BFF36F8F10BD6FF01500F7E710B54FF01D
:1044CC002003EFF3118483F31188BFF36F8FFEF792
:1044DC0025FA84F31188BFF36F8F10BD70B50446B5
:1044EC000E464FF02003EFF3118583F31188BFF3D1
:1044FC006F8FFEF713FA012805DDA04203DD31466C
:10450C002046FCF79DF985F31188BFF36F8F70BDC2
:10451C0008B5FEF7EFFA08BD10B400F10C04C0E9C1
:0C452C0003445DF8044BFFF7FFBB704731
:0845380034BDFF7F010000000B
:104540006506000000000000CD1E00000000000015
:104550003D2B0000000000000116000000000000DC
:10456000013F000094000020211A0000A400002058
:10457000011A0000B4000020A106000000000000A5
:10458000E5070000C400002069420000D4000020BC
:08459000411A000000000000C8
:1045980000000000D13F000000000000D13F0000F3
:1045A80000000000D13F000000000000D13F0000E3
:1045B80000000000D13F0000000000004507000097
:1045C80000000000D13F000000000000D13F0000C3
:1045D80000000000D13F000000000000D13F0000B3
:1045E80000000000D13F000000000000D13F0000A3
:1045F80000000000D13F000000000000D13F000093
:1046080000000000D13F000000000000D13F000082
:1046180000000000D13F000000000000D13F000072
:1046280000000000D13F000000000000D13F000062
:1046380000000000D13F000000000000C10700009A
:1046480000000000D13F000000000000D13F000042
:1046580000000000D13F000000000000D13F000032
:1046680000000000D13F000000000000D13F000022
:1046780000000000D13F000000000000D13F000012
:1046880000000000D13F000000000000D13F000002
:1046980000000000D13F000000000000D13F0000F2
:1046A80000000000D13F000000000000D13F0000E2
:1046B80000000000D13F000000000000D13F0000D2
:1046C80000000000D13F000000000000D13F0000C2
:1046D80000000000D13F000000000000D13F0000B2
:1046E80000000000D13F000000000000D13F0000A2
:1046F80000000000D13F000000000000D13F000092
:1047080000000000D13F000000000000D13F000081
:1047180000000000D13F000000000000D13F000071
:1047280000000000D13F000000000000D13F000061
:1047380000000000D13F000000000000D13F000051
:1047480000000000D13F000000000000D13F000041
:1047580000000000D13F000000000000D13F000031
:1047680000000000D13F000000000000D13F000021
:1047780000000000D13F000000000000D13F000011
:1047880000000000D13F000000000000D13F000001
:0847980000000000D13F000009
:1047A000DEE61E284CBBCE8F025B00001D00000021
:1047B0001C0000001A0000001B00000001000000A7
:1047C000000000000F0000000E000000DEE61E28C2
:1047D000EAAC45B8025B0000DEE61E284CBBCE8F7B
:1047E000025B00000000000000000000000000006C
:1047F0000338FDD870470000FB3E0000E13D00009B
:10480000333E000000000000C53D00003C4C0000AD
:1048100042010000434C0000050100004D4C000027
:1048200014010000564C0000150100005F4C000010
:1048300039010000684C000009010000734C0000C1
:104840000A0000007E4C00000A010000884C0000B5
:104850000B010000924C00000F0100009D4C000075
:1048600010010000A84C000011010000B34C000032
:104870000E010000BD4C000021010000C64C0000EC
:1048800022010000CF4C000023010000D84C0000A2
:1048900024010000E14C000018010000E94C000078
:1048A0002A010000F14C00003A010000F94C000020
:1048B0002C010000014D00001C0100000A4D000009
:1048C0001D010000134D0000170100001D4D0000E8
:1048D00026010000254D000031010000314D00008F
:1048E00004010000000000000002000000040000BD
:1048F000000800000010000000000000CF3F000092
:10490000410E0000010E0000A90E0000E10D0000A4
:104910001C00002004000020140000200000000003
:104920000C000020020000002C49000000000000E4
:10493000934D000006000000E0FF0F000000002083
:104940009B4D000021000000E0FF0020C14100005D
:10495000E3410000B341000001180000A341000042
:104960000080005001000000009000500100000095
:104970004045000080450000884500009845000043
:1049800098450000F5FFFFFF436F756C64206E6F64
:1049900074206C6F636B20706F7765722073617623
:1049A00065206D7574657800FF8FFFFFFF8FFFFF37
:1049B000FE8FFFFFFE8FFFFFFD8FFFFFFC8FFFFFCE
:1049C000FC8FFFFF43616E277420696E6974696113
:1049D0006C697A65206D757465782C207761732019
:1049E0004E554C4C0D0A000043616E277420756EC5
:1049F0006C6F636B206D757465782C207761732004
:104A00004E554C4C0D0A00004661696C20746F20B5
:104A100061637175697265206D757465780A00004F
:104A20004661696C20746F2072656C6561736520E6
:104A30006D757465780A00004661696C20746F209A
:104A4000696E63726561736520504D20636F756E8A
:104A50007465720A000000004661696C20746F2062
:104A6000646563726561736520504D20636F756E78
:104A70007465720A00000000000100040401080CC3
:104A8000554152545F30007379735F636C6F636B91
:104A9000005365637572650909004E6F6E2D53658D
:104AA0006375726509002530327520253032752016
:104AB0003078253035782030782530357820090059
:104AC0002563004E6F6E2D53656375726500466CED
:104AD00061736820726567696F6E730909446F6D51
:104AE00061696E09095065726D697373696F6E73E0
:104AF0000A004E6F6E2D7365637572652063616C7D
:104B00006C61626C6520726567696F6E2030207021
:104B10006C6163656420696E20666C6173682072E5
:104B20006567696F6E2025642077697468207369F2
:104B30007A652025642E0A00436F756C64206E6FC1
:104B40007420696E697469616C697A652073656344
:104B50007572652073657276696365732028657266
:104B600072202564292E0A005352414D2072656738
:104B7000696F6E0909446F6D61696E09095065724C
:104B80006D697373696F6E730A005065726970683E
:104B90006572616C0909446F6D61696E090953742E
:104BA000617475730A002530327520252D323173FA
:104BB00025730009534B49500A00094552524F5280
:104BC0000A00094F4B0A0053504D3A204E532069BA
:104BD0006D61676520617420307825780A00535034
:104BE0004D3A204E53204D5350206174203078258B
:104BF000780A0053504D3A204E5320726573657405
:104C000020766563746F7220617420307825780A8D
:104C10000053504D3A207072657061726520746F58
:104C2000206A756D7020746F204E6F6E2D53656312
:104C300075726520696D6167652E0A004E52465F88
:104C40005030004E52465F434C4F434B004E52464D
:104C50005F52544330004E52465F52544331004E2F
:104C600052465F4E564D43004E52465F5541525498
:104C70004531004E52465F554152544532004E5226
:104C8000465F5457494D32004E52465F5350494D8E
:104C900033004E52465F54494D455230004E524605
:104CA0005F54494D455231004E52465F54494D457F
:104CB0005232004E52465F5341414443004E5246E9
:104CC0005F50574D30004E52465F50574D31004EA9
:104CD00052465F50574D32004E52465F50574D334B
:104CE000004E52465F574454004E52465F4950436F
:104CF000004E52465F564D43004E52465F46505559
:104D0000004E52465F45475531004E52465F45477B
:104D10005532004E52465F4450504943004E524671
:104D20005F50444D004E52465F4750494F54453105
:104D3000004E52465F524547554C41544F52530026
:104D40006D757465785F696E69742063616C6C65FC
:104D5000642077697468204E554C4C2070617261F4
:104D60006D6574657200436F756C64206E6F74209E
:104D7000616C6C6F63617465206D75746578206219
:104D800065666F726520696E697469616C697A69BC
:104D90006E6700464C4153485F30005352414D5FAF
:104DA0003000554152545F31004552524F523A2023
:104DB00043616E6E6F742066756C66696C6C20451D
:104DC00058545F41504920726571756573742E0D9A
:104DD0000A005741524E494E473A204F7074696F4E
:104DE0006E616C204558545F415049207265717561
:104DF000657374206E6F742066756C66696C6C6583
:104E0000642E0D0A0048575F43433331305F300052
:104E100076322E332E302D7263312D6E6373320055
:104E20002A2A2A20426F6F74696E67205A6570685B
:104E30007972204F53206275696C64202573202598
:104E400073202A2A2A0A006D61696E0000000000A2
:104E50003B390000F8000020010000000C01002098
:104E600001000000200100200100000034010020AA
:104E7000010000009D41000000C20100000103008C
:104E8000000000000000000000C20100000103005B
:104E900000000000000000000090D0034C00002043
:104EA0004C0000208400002090000020880000209A
:104EB000800000205C00002000000000392F00006E
:104EC000A12F0000792F0000BD2F00007D2F0000D2
:104ED000E0070020D4070020DC07002000000000CD
:044EE000D8070020CF
:104EE400474C0000784A0000F847000054010020B5
:104EF400A24D0000684900004C4900003800002021
:104F0400804A0000604900004C490000280000204D
:104F1400874A0000000000000000000000000000BC
:104F2400054E00000000000000000000000000002A
:104F3400E4000020E4000020000000000000000065
:104F44000F000000F8000020F8000020000000001E
:104F5400000000000F0000000C0100200C010020E4
:104F640000000000000000000F00000020010020ED
:104F74002001002000000000000000000F000000DD
:104F84003401002034010020000000000000000073
:044F94000F0000000A
:084F9800FFFFFFFFFFFFFFFF19
:104FA0000000000000000000000000000000000001
:104FB00000000000000000000000000000000000F1
:104FC00000000000000000000000000000000000E1
:107FE0007FE97FE9F8F738BE7FE97FE9F8F78CBED3
:107FF0007FE97FE9FBF7AABF000000000000000056
:0400000300001141A7
:00000001FF
